:020000041000EA
:1000000000B5324B212058609868022188439860DF
:10001000D860186158612E4B002199600221596106
:100020000121F02299502B49196001219960352056
:1000300000F044F80222904214D00621196600F024
:1000400034F8196E01211966002018661A6600F04E
:100050002CF8196E196E196E052000F02FF8012189
:100060000842F9D1002199601B49196000215960AB
:100070001A491B48016001219960EB211966A021F2
:10008000196600F012F800219960164914480160C1
:100090000121996001BC002800D000471248134993
:1000A000086003C880F30888084703B5996A0420EC
:1000B0000142FBD001200142F8D103BD02B5186610
:1000C0001866FFF7F2FF186E186E02BD00000240BE
:1000D000000000180000070000035F00212200005C
:1000E000F4000018222000A00001001008ED00E03C
:1000F00000000000000000000000000074B24E7A12
:1001000000200420F7010010CB010010CD010010E9
:10011000C9010010C9010010C9010010C901001077
:10012000C9010010C9010010C9010010CF01001061
:10013000C9010010C9010010D1010010D301001045
:10014000C1010010C1010010C1010010C101001067
:10015000C1010010C1010010C1010010C101001057
:10016000C1010010C1010010C1010010C101001047
:10017000C1010010C1010010C1010010C101001037
:10018000C1010010C1010010C1010010C101001027
:10019000C1010010C1010010C1010010C101001017
:1001A000C1010010C1010010C1010010C101001007
:1001B000C1010010C1010010C1010010C1010010F7
:1001C000EFF30580103800BE00BE00BE00BE00BECA
:1001D00000BE00BEF2EB8871904C0110BC4C0110C7
:1001E0003802001090A31AE71E481F49086006C88D
:1001F00081F3088810471D480068002801D019487D
:10020000F3E70DA40ECC002902D000F012F8F9E7B4
:100210001749184A002000E001C19142FCD116495B
:100220008847164988471649884700BEFDE701C937
:1002300001C29A42FBD37047BC4C0110C0000020A1
:10024000301900202C65011000000420000004205B
:100250002C65011000100420001004200000000094
:10026000704700000000000008ED00E0000000D032
:10027000301900205030002061510010E90B0010AF
:1002800021510010F8B5C0460448054B10B5834213
:1002900003D0044B002B00D0984710BD301900202C
:1002A000301900200000000006480749091A8B1089
:1002B000C90FC91810B5491003D0044B002B00D04A
:1002C000984710BD301900203019002000000000B0
:1002D00010B5074C2378002B09D1FFF7D5FF054B4C
:1002E000002B02D0044800E000BF0123237010BDA2
:1002F000681D002000000000200C0110054B10B507
:10030000002B03D00449054800E000BFFFF7CCFFF5
:1003100010BDC046000000006C1D0020200C011024
:1003200010B500240100C06982B08068009408F014
:100330001FFD02B010BDC046F0B54546DE4657462B
:100340004E46E0B51F001823984604008BB0804449
:100350000D00160041460822684603F0A3FA20006B
:100360002269636908F05CFB002800D0F0E0002FF0
:1003700000DAE5E0149B002B03D01A00DB680133A0
:10038000D360002D00D1F2E02B7F002B03D12A6A2D
:100390006B6AB6185F414146082268460296039789
:1003A00003F080FA2269636906A808F0B5F8069B95
:1003B00020009B46079B9A46089B9946AB6A05938B
:1003C000EB6A049308F0CAFB3023149A8561C2617A
:1003D000EB5C8046002B59D1049B002B67DB2B7F05
:1003E000002B15D1A86BE96B002803D180231B06D5
:1003F00099420DD0059A049B08F02AF807000E00D8
:10040000514500DDBBE000D1B6E0BB4500D1C3E003
:100410005B4606935346210007934B46102210314A
:100420006846089303F03EFA099B0799089A0698D4
:1004300008F056F84342584181444B46102206A921
:100440004046089303F02EFA0822684608A903F0F4
:1004500029FA2000069A079B08F0E2FA002866D1E4
:100460002800102206A9383003F01CFA4146A06C7F
:1004700009F0E2FF606F431C00D571E063670BB0C9
:10048000F0BCBB46B246A946A046F0BD08F0A0F8B5
:1004900080197941236A9B46636A9A46994261DDD5
:1004A00083468A4600239946049B002B97DA5B46D5
:1004B0000693534607934B4606A9102240460893DD
:1004C00003F0F0F94146A06C09F0BAFF00289FD074
:1004D0004E464746A8465D4601365346102206A9B9
:1004E000380007930896069503F0DCF93900A06CF4
:1004F00009F0A6FF01360028EFD10822684608A9B6
:1005000003F0D0F92000069A079B4546B84608F04C
:1005100087FA00280BD12800102206A9383003F0F2
:10052000C1F93900A06C09F087FF0020A7E71498F3
:1005300009F068FA2000414608F002FC00209EE71E
:1005400032003B0036480AF0A7F80026002711E7E2
:10055000149809F057FA33480AF09EF800208EE705
:1005600001238BE799429DD158459BD998E7149870
:1005700009F048FA002082E7584500D845E74823AB
:10058000EB5C022B29D0032B0FD0012BCFD0002303
:10059000BB46B24699463BE7B24500D038E7059BDB
:1005A000049A134300D033E7E9E7200008F0D6FAB5
:1005B0002900060010223831856103F073F93100FB
:1005C000A06C09F03DFF011E02D0A06C09F044FFB1
:1005D0003100200008F0B4FB1AE7200008F0BEFA52
:1005E0002900814638311022856103F05BF94946C4
:1005F000A06C09F025FF00280CD0149908F0AEFB80
:100600004146200008F09CFB2000494608F098FB7A
:10061000002034E74946200008F092FBB7E7C046C7
:10062000480C0110200C011070B5050004000600F4
:100630000A4B40358366280009F01EFBE36C183630
:10064000002B05D001222800A16E09F00FF9E0640B
:1006500030000023024AFFF763FE70BD900C0110CA
:1006600000943577F8B505009426040007000B4B7D
:100670006C358351280009F0FFFAA36F1837002B5F
:1006800005D001222800A15909F0F0F8A067380030
:100690000023034AFFF744FEF8BDC046A00C01103A
:1006A00000943577F8B50400806809F079FC1D4B9B
:1006B0002000E35C18305A1E93412C22A354A3233C
:1006C0009B00E15800292BD00B685A1E9341DBB2E6
:1006D000382227002600A35409F072F9A06809F017
:1006E00063FC114D40373800A56609F0C5FAE36C8C
:1006F0006C36002B05D001223800A16E09F0B6F847
:10070000E06494273000E55109F0B6FAA36F002B9E
:1007100005D001223000E15909F0A8F8A067F8BD22
:100720000023D5E7C902000018100110B620F8B563
:10073000800008F0FFF8A0239B00C3180363012387
:1007400098225B42C363DB1840638350C0328350FE
:1007500002006132FF32FA33C250683A3C3BC25069
:100760008025030000242D06E0331C605D60E82234
:1007700000230600C0218350C136E73A4250FF36BD
:100780009031465046183C39465001003931FF310E
:100790000C604D60A021B0264900435028394250DA
:1007A00050314350264976008151B221E02749005B
:1007B0004050403143500431435022495436815116
:1007C00004368351103682511F4E7F00C651E226F7
:1007D0007600805140368351043683510C36815166
:1007E000BF3F04368351FF3F103687518827174E8D
:1007F000BF00C6518926B600805140368351043669
:1008000083510C3681519E2189004350403141185B
:100810000C604D60B021890043503900C419B031DB
:10082000445044183C394450043142501831435428
:10083000303943508361A4239B00C2508262F8BDCB
:1008400029060010B00C011065060010A506001066
:1008500010B50AF039FE10BD70B504000AF0E6FDCF
:100860000AF06CFE002804D10AF06EFE002816D1B2
:1008700070BD2500230001227C3354351A702800F6
:1008800009F0FAF9236E002BEED001222800E16F67
:1008900008F0ECFF20660AF057FE0028E8D025009B
:1008A00023000122AC3384351A70280009F0E4F9E2
:1008B000EB68002BDCD0AC2301222800E15808F0C3
:1008C000D5FFE860D4E7C046A020F8B5800008F066
:1008D00031F8030028330362C0220023B821C0642A
:1008E00083502F4A90244250BC228C2580504032A5
:1008F00083502C49043283500C328150043283508F
:10090000103AFF3A64000251274C6D0044518E2486
:100910006400005140340351043403510C3401513C
:10092000B82149004350010080250024B1312D0633
:10093000FF310C604D600600DC2119364900435040
:10094000FF361031465046183C394650043142506B
:100950000431425488260100B600B8318151183E56
:100960008619346075608426B60083511036871965
:100970003C3E8751043682510436835574368619BD
:10098000346075609A24A40003519E239B00C150DB
:10099000C1183C3BC1500433C250183BC250F8BD93
:1009A00051080010B00C0110590800108023F0B558
:1009B0008769C5583433C4583B7DC66C83B0002B5F
:1009C0000CD1337D002B1AD12B7D002B28D1237D18
:1009D000002B36D10AF0CCFB03B0F0BD00238022FF
:1009E00000210020009310330AF02AFB012300228B
:1009F0000021B86A0AF0D0F8337D002BE4D0002340
:100A0000802210210020009310330AF019FB0123EB
:100A100010220021B06A0AF0BFF82B7D002BD6D03F
:100A20000023802220210020009310330AF008FBCD
:100A3000012320220021A86A0AF0AEF8237D002BB2
:100A4000C8D00023802200933021002010330AF008
:100A5000F7FA012330220021A06A0AF09DF8B9E7D5
:100A6000084B10B51A78002A00D010BD01321A7058
:100A70000AF010F804480AF007F800200AF016F807
:100A8000F3E7C04641300020002D0110F0B5D8201A
:100A9000C646800000B507F04DFF03002033836198
:100AA00002003433C3648023883240648067C250BC
:100AB0002C33C05034320833C2502C33C050F02293
:100AC0000023E8218350454AA8244250EC22A42563
:100AD0008050403283504249043283500C3281505E
:100AE00004328350403AFF3A640002513D4C6D009D
:100AF0004451A6246400005140340351043403518E
:100B00000C340151D021040049004350E8345831DD
:100B10004450010080250024E1312D06FF310C6096
:100B20004D600600F421F93649004350FF362C3958
:100B300046500431425004314354743141180C6022
:100B40004D60902189004350B03E10314650471807
:100B50003C3947500431802742500421BF00C15125
:100B60009037C7193C607D60A627BF00C35110377E
:100B7000BC46844488466146C6513C3FC15141460B
:100B80000437C251183FC151BA21890047183C604F
:100B90007D60BC27BF00C3511037BC46844461460A
:100BA000C6513C3FC15141460437C251183FC15163
:100BB000D021890047183C607D60D224A4000351F5
:100BC000D6239B00C650C4183C3BC4500433C250CB
:100BD0004246183BC25080BCB846F0BD610A0010C6
:100BE000B00C0110AD09001010B50021002009F073
:100BF0005FF910BD7047C046002210B505240A4BAE
:100C00008AB01B680892079206920592039202929C
:100C100002320192013A00920449002204940448ED
:100C200008F082FF0AB010BD3C220020B40C011075
:100C3000B01A0020014B036001207047B01A002059
:100C4000F0B5DE4657464E464546E0B587B0FFF75D
:100C50006DFDFE4B002298468360A82300219B0077
:100C6000C31819605A60AA239B000600C31801200C
:100C70004042C11718605960AE23802500249B00B4
:100C80002D06F3181C605D6000239946B02348468A
:100C90009B00F0500C33F0504C3BF018002108F052
:100CA00097FD30000021183008F092FD4846E84BCF
:100CB000F05433009933FF331C605D601C665D6641
:100CC00096239B00F3181C605D60FFF7FDFD434613
:100CD00083600023DF4A07008261C36180239B4653
:100CE000823B9A46B02150465B46F85078504346C6
:100CF0007862584619583B0038009933B830FF33B2
:100D000008600022190000230A604B600023D14ACA
:100D10008A60CB6043463A009B6F7932FF321A609B
:100D2000E2234A465B00FA503B00F0331C605D60F2
:100D30001C665D66FFF7AAFE434683605346514634
:100D4000C36103658633C1503433C15059464346AD
:100D500002005B58E8325A6003002133FF331C6005
:100D60005D601C665D66BC4B4946F360C023013480
:100D70005B0071613200F45001900431012007F0F2
:100D8000BBFDC621490070508A4689393200FF39BF
:100D9000012007F0B1FDC421542549007050853968
:100DA0003200FF39012007F0A7FDAC46C223B4444E
:100DB00061465B00F0505C3301603200F4500291F8
:100DC0000120042107F098FD9935FF35705132005C
:100DD0000421012007F090FDF4236D3D5B00F050ED
:100DE00032000421FF3D012007F086FDAC46F223CE
:100DF000B44465465B00F0500395056002255C3302
:100E0000F55032000421022007F076FD93239B0069
:100E1000F05032000421022007F06EFD92239B0067
:100E2000F05032000421022007F066FD91239B0060
:100E3000F050039B02994360884B0160FB60484679
:100E4000D8237E61F8506033FD503A00042102300F
:100E500007F052FD4335FF3578513A000421022056
:100E600007F04AFDAB46043D78513A0004210220C8
:100E700007F042FD68218C469822BC4461469446A6
:100E80009E23BC4462465B00F85005924260744B5E
:100E9000019A0160D360842348465B005661D050BC
:100EA0006033D050DC3B893034667666FF30F450D6
:100EB0000433F65033588838320004911C60042102
:100EC000FF3807F019FD5346F35880221860019B44
:100ED00092009C4662440260F42040003358E83897
:100EE00092461C6032000421FF3807F005FDF6220F
:100EF0005200B3586C321860019B04219C46624436
:100F0000026092208000335891461C60320001201C
:100F100007F0F2FC93239B00F358320018609220F4
:100F20008000335804215C60012007F0E5FC932326
:100F300052469B00F358042158601B681A604B46C8
:100F40000360A4237C67BF67FC500433FF507B59C8
:100F50003A001C60012007F0CFFC5B46FB583A00CA
:100F600018607B5904215C605C46012007F0C4FCDA
:100F70003B59340058601B68A8341C60731CFF3355
:100F800003603800A0235430F05030305C33F05010
:100F90003000019A403003009061404601242C3318
:100FA000D3640299036D039D1960049928485D601C
:100FB000D9602C4D0599644232189A601961022259
:100FC0002000290008F06EFB33007133FF331860F6
:100FD000596003222000290008F064FB3300D1335C
:100FE000FF331860596004222000290008F05AFBE2
:100FF0008C239B00F3181860596000222000290000
:1010000008F050FB3B00C8331860596001222000F3
:10101000290008F047FB3B002933FF331860596073
:1010200000222000290008F03DFB019E052233002C
:10103000F833186059602000290008F033FB593656
:10104000FF363060716007B00EE0C046B01A002075
:10105000C902000000E1F505C80C0110D40C011014
:10106000DC0C0110FFFFFF7FF0BCBB46B246A94677
:10107000A046F0BD7047C046094A83009A1810B5D3
:1010800014684022544080322240064CC000A446DE
:1010900063441A60044B9C466044416010BDC046E6
:1010A00004C0014004D0014000400140074B8000D3
:1010B000C3181B68C90092000A435A400C2313400E
:1010C000034A9446604403607047C04604C0014030
:1010D00004D001400123D022834012069362936121
:1010E000094A83009A1811684022514080320A4010
:1010F0000649C0008C4663441A60054B9C46052394
:10110000604443607047C04604C0014004D00140C1
:10111000004001408023DB051868000F7047C0467F
:101120000FB400B5084883B004F0E2F9049B002B2B
:1011300007D005A91800019103F088FF034804F0C7
:10114000D7F9012003F09AFFE40C0110D41101102B
:10115000EFF3108072B6034A1368002BFCD0BFF384
:101160005F8F70472C0100D0BFF35F8F0022024BCE
:101170001A6080F3108870472C0100D070B5EFF32F
:10118000108C72B60D4D2B68002BFCD0BFF35F8F17
:101190000724CB08C618C05C01230C40A3401C00E8
:1011A0000440034207D118433070BFF35F8F2C60B7
:1011B0008CF3108870BD1000FFF7B2FF2C0100D037
:1011C000F8B54746CE46884680B5EFF3108C72B628
:1011D000214D2C68002CFCD0BFF35F8F9A422CD895
:1011E000D4080727055D061901241740BC402C428E
:1011F0001FD007210127894609E0D408055D06199B
:101200004C4639001440A1400C00294211D0013253
:101210009342F2D201204042BFF35F8F00220E4B77
:101220001A608CF3108800280FDBC0BCB946B046AA
:10123000F8BD254310003570EEE7BFF35F8F002344
:101240002B608CF31088012040424346002BECD0E9
:101250000898FFF765FFC0462C0100D0044A1078BB
:10126000431CDBB2172B00D9102313707047C04604
:101270002811002010B5064B064C82B001000093E7
:1012800018221F232000FFF79BFF02B010BDC046AD
:10129000F40C01106C2700200021044B044ABFF31A
:1012A0005F8F02C39342FAD17047C046000100D05D
:1012B000800100D0054B064A1360064A1360536054
:1012C0009360D36013615361936170478080808025
:1012D00000E400E004E400E01F2318401E3B8340CC
:1012E000002905D0C021044A4900535013607047BB
:1012F000802201498B50FAE700E100E001228240A0
:10130000034B1B6813405A1E9341D8B27047C04626
:1013100000E100E001238340014A13607047C046AA
:1013200000E200E0064B10309B688000C358054A7D
:1013300000209B1A2F229A424041C0B27047C046FB
:1013400000ED00E02C11002070B50D00EFF31086C9
:1013500072B60F4A1368002BFCD0BFF35F8F0D4BA2
:1013600010309B6884001B590B4A934203D09D4266
:1013700001D001F0B7F9074B9B681D51BFF35F8F98
:10138000BFF35F8F0022024B1A6086F3108870BD96
:10139000240100D000ED00E0C1010010F0B5574677
:1013A0004E46DE464546E0B585B006000091170082
:1013B000EFF3108B72B66A4A1368002BFCD0BFF3B0
:1013C0005F8F0025674B5D579A46002D00DAA9E034
:1013D0006B00654C01935B199B009846A146C14484
:1013E0004B4652469B7910361370604BB6009B6893
:1013F00099590B1B2F2B33D95D4B994200D0ACE090
:10140000019B42469C465B4B6544AD0063535A4B7F
:101410000232A218043B9B1A1B05584A5B0D651942
:1014200013436B80564B0121AB80FF23AB71009BB4
:10143000EF71AB604B460B4319004C4B9B689951C5
:10144000BFF35F8FBFF35F8F0022454B1A608BF3B2
:10145000108805B0F0BCBB46B246A946A046F0BD18
:1014600001200A008243D3798C46BB4231D84546DD
:10147000130044491B1B5B415943090D3D4B63530A
:101480003D4B02356519043B5B1B1B053B4D5B0D5A
:101490002B43AA464D466B800425AC465546E04496
:1014A000131F44441B1B1B055B0D1D434B469971C9
:1014B00000999D8099604946DF71334B0143136069
:1014C000BBE75800C01880002018C179B9422FD955
:1014D00002000623D356002BF3DA02932B4B61460E
:1014E0000393131D9A4604235B429C46E1445046F5
:1014F0004B461B1A1B055B0D9C46204B957198466D
:101500006346404603439380019B5A199200039B14
:10151000A418A380029B1C4AA371009B2260E77160
:10152000A3608AE701F0DEF8002553465D574FE7D8
:10153000908802934005131D9A46031561469C4608
:101540004046D444634604302018181AE0230005AE
:10155000400D1B0218430390C5E701F0C3F84FE7A5
:10156000240100D0473000202C11002000ED00E0C5
:10157000C101001000A1FFFF5C11002000E0FFFF8F
:1015800001BDFFFFAAAA00000148804701BD00007D
:10159000F0B5DE4657464E464546E0B50C0083B0F2
:1015A000EFF3108872B6634A1368002BFCD0BFF3C8
:1015B0005F8F614B61499A68030010339F00D559D2
:1015C00000938D4243D0A54254D05D4EAA1B2F2AD2
:1015D0003DD85C4B9C461B689A4601231A009946ED
:1015E0008240534613401F2201934B4602409340D2
:1015F0009A468022634650469850BFF35F8FEFF3C0
:1016000005839B46002B37D0009B5B4501D001F042
:1016100069F82A004B469A439068844208D177E0E3
:101620004B005B189B00F3189868844236D01A0070
:10163000062151560029F3DA844255D0019B002B34
:1016400027D0C02251463F4B5200995019603A4B67
:101650009B68DD51BFF35F8FBFF35F8F0022354B77
:101660001A6088F3108803B0F0BCBB46B246A946A6
:10167000A046F0BD0D00EAE72A004B469A43906869
:101680008442D5D106201056130000280ADA0D0036
:1016900032E0802351462B4AD150D8E70620185615
:1016A000002822DB42001118890074188946A168BD
:1016B0009960E179D971062161569971002925DB7C
:1016C000A488F11A640524154C440919E02409057D
:1016D000490D24022143998013181B4A9B0011785D
:1016E000F31899711070A9E713005946002914D115
:1016F000FF3191711549918013490A789A71144A02
:101700009B1B5B415A43120D0A7097E71149E2E7B0
:101710000620105613000028C4DA0F4A0F49D21AC7
:10172000083A5002400D014399800D4952080A437E
:10173000DA8083E7240100D000ED00E0C101001051
:101740002C11002000E100E04730002001BDFFFF28
:10175000AAAA000001BD00006611002000F0FFFFF2
:1017600000F8FFFF70B501240443EFF30581EFF3A8
:10177000108C72B6214A1368002BFCD0BFF35F8F28
:101780001F4B05001F4AED1A6D416A43120D1E4D95
:101790008900AE6852B27658A6421CD0062159562E
:1017A00091421CD012215956914222D01E215956E5
:1017B000914220D02A2159560324914210D0134B34
:1017C00019781A708171BFF35F8F00220B4B1A607A
:1017D0008CF3108870BDAB680D4C5C50EFE70024B3
:1017E0006100091989005B18FF21997109499980E5
:1017F000E5E70124F4E70224F2E7C046240100D023
:101800002C110020AAAA000000ED00E047300020C3
:10181000C101001001BDFFFF10B5084B084C82B09C
:1018200001000093002205232000FFF7C9FC0028D7
:1018300001DB1F23181A02B010BDC046100D0110A5
:101840004D30002070B504000E001500FFF706FDB6
:101850000100200000F006F8A680E580BFF35F8F4E
:1018600070BDC046024B9C466144890001607047D0
:101870004000003470B5114C114DAC420FD2FF2620
:101880002368002B0CD0FFF7E9FC01002000FFF7D4
:10189000E9FFA680BFF35F8F0834AC42F0D370BD80
:1018A000FFF7DCFC01002000FFF7DCFF2671BFF32F
:1018B0005F8F0834AC42E3D3F1E7C0462019002023
:1018C0003019002010B50400FFF7C8FC010020000B
:1018D000FFF7C8FFFF232371BFF35F8F10BDC04622
:1018E00010B504000120FFF7C5FC034BC3189B0093
:1018F0002360BFF35F8F10BD40000034034B9C4654
:10190000614489000160BFF35F8F7047400000347D
:101910000A4B1968EFF3108072B60A68002AFCD0EF
:10192000BFF35F8F1B68BFF35F8F00221A6080F3E5
:10193000108840BF002000217047C04614300020AE
:10194000F0B5DE4657464E464546E0B583B0EFF368
:10195000058203231340B54A9900525800919046DE
:1019600001229A409346B24B1A60B24B01935B46F8
:10197000B1484363434608229B5E9946002B3ADAFE
:1019800043469B881BB2002B00DB9DE043469B79BE
:10199000002B00D0E1E0434608241C5F002C20DB34
:1019A00043465A6963001B19DB00D3189D68DC6845
:1019B0006B1C00D103E1A048009984466144826A0F
:1019C0000B69AE1A9B1A9E4213D35A46036A1A42F7
:1019D0000FD0994800F0A8FB8C4202DCC7D18542A9
:1019E000C5D940BF03B0F0BCBB46B246A946A0462D
:1019F000F0BD0D61EDE7424652695B0092464B44F3
:101A0000DB009A4453469E68DF6800F08DFB8F42EE
:101A1000B6DC00D1F8E0002F00DAD9E05246534698
:101A200054691B69019A934200D1CCE04146524669
:101A30000820085E528800042100104398470400E3
:101A40000D0023002B4300D1C2E0002D00DBDFE0BE
:101A500030003900001BA94153469860D96000222C
:101A60009A5E002A00DA8BE743465D6953009C18B2
:101A7000E4002C19A768E4688C4200DD80E702D1FD
:101A8000874200D97CE74646328108360DE08C4219
:101A900000D1C6E01E000023F25E002A0ADB5300DC
:101AA0009C18E4002C19A768E4689B18DB00EB186D
:101AB0008C42ECDD53461A804B46338043469B886C
:101AC0001BB2002B00DA61E743461A69EFF310817D
:101AD00072B61368002BFCD0BFF35F8F43469E881D
:101AE000012342465B42938036B21369BFF35F8F96
:101AF00000221A6081F31088002E00DA46E7434680
:101B00005D69083342469C467700BF19FF00EF1914
:101B1000BB68604698460823D15E9246FC6800295F
:101B200007DA0EE0A24246D018000023C15E002969
:101B300006DB4B005B18DB00EB18DA68A242F1DD34
:101B4000524606800023FE5E3980002EDCDA904685
:101B500043469B79002B00D11DE700234246937139
:101B6000434646460821595E08364B1C00D138E7EB
:101B700047468946556902E006004B1C18D04B00C9
:101B80005B18DB00E8180A008C46E95E43881BB24C
:101B9000002BF1DA01235B42DC178360C4604A4505
:101BA00003D031803B8903803A81E1464B1CE6D16A
:101BB000B8464C46F2E69A684245B5D9C0E7631C80
:101BC00000D0F8E605E7200023699847002825D1D2
:101BD000534642461B8813811269EFF3108372B695
:101BE00011680029FCD0BFF35F8F424651465288EE
:101BF0000A804246494651801269BFF35F8F002137
:101C0000116083F31088BBE6864200D803E7B7E68D
:101C1000094800F089FA001969411DE765682468E0
:101C20000FE7874200D835E744E7C046F42F00208D
:101C30003C700540411900100040054070B52E4C25
:101C40002569002D04D00A212C48FFF70BFE70BD3A
:101C50002B4E0321300000F05DFAE660FFF7FEFA3C
:101C6000284B03229C46D02322701B061B680121AF
:101C70006370254B6044A3600F2380002061022025
:101C8000638063694942A180198002311986473116
:101C90001D83585218315A5275325C399952183294
:101CA0000131995218320131995218320131995249
:101CB000083518329D5202311832995218320131CA
:101CC0009952183201319952183201319952183211
:101CD000013199521832013199520C4B0C49DC6098
:101CE00001303562FFF730FB01210320FFF7F4FAE2
:101CF000084B1D60A7E7C046741100201430002077
:101D00000040054040000034FFFF1000F42F002089
:101D100041190010386005400048704774110020D8
:101D2000F8B51F0008AB1B7804001600002B08D183
:101D300000F002FA32003B00121A8B41002B00DA4D
:101D400053E02269EFF3108072B61368002BFCD0C9
:101D5000BFF35F8F0223E15E63694A005218D2002D
:101D60009B18002937DB1A8862802269BFF35F8FD6
:101D70000025156080F31088069A9E60DF601A6166
:101D8000079A5A615A8801325204520C101C002AD8
:101D90001FD082B25880080410432669EFF31087E1
:101DA00072B63268002AFCD0BFF35F8FA2881A8017
:101DB000A1802369BFF35F8F00221A6087F3108828
:101DC0000B4923788C4601329A40E36863441A60D9
:101DD000F8BD0120DDE72369BFF35F8F00221A60A1
:101DE00080F3108801204042F2E70020F0E7C0466F
:101DF0003C20000070B501000469EFF3108C72B64E
:101E000020680028FCD0BFF35F8F02200D5E4C6974
:101E100068004019C0002418002D37DB2088488056
:101E20000869BFF35F8F002606608CF31088E360BB
:101E300063880498013320615B0405985B0CA26001
:101E400060611A1C002B1FD093B2280462801843D3
:101E50000A69EFF3108C72B61368002BFCD0BFF345
:101E60005F8F8B8823808D800B69BFF35F8F00228B
:101E70001A608CF310880B7801329A40CB680849BD
:101E80008C4663441A6070BD0122DDE70B69BFF325
:101E90005F8F00221A608CF3108801204042F2E725
:101EA0003C20000010B543890A1493421ADD530008
:101EB0009B184269DB00D3180469EFF3108C72B6EB
:101EC0002268002AFCD0BFF35F8F5A88090494B2BD
:101ED000090C8A4208D00369BFF35F8F00221A60A1
:101EE0008CF31088002010BD8022120214435C8005
:101EF000012302698371BFF35F8F002111608CF3AE
:101F00001088044902788C469340C26801206244DC
:101F10001360E8E73C20000040787047F0B504000B
:101F20000D0006267642F717C64636196F4100B5F2
:101F300082B08F4214D811D000F0FEF832003B007E
:101F4000121A8B41002B17DC002B47D020002900F0
:101F500000F030F902B080BCB846F0BD8642EBD943
:101F60000022002316001F0000F0E6F832003B00BC
:101F7000121A8B41002BE7DD00F0DEF832003B0047
:101F8000121A8B41002B0ADB00230193154B320000
:101F9000009315483B00FFF72DFF0028D6DB0023F8
:101FA0009C46B046114A124E736A9F4204D8B16AE9
:101FB0008845CBD99F42C9D11168EFF3108072B622
:101FC0000B68002BFCD0BFF35F8F1368BFF35F8FEC
:101FD0006146196080F3108820BFE5E7002AB5D07C
:101FE000CAE7C046111900107411002014300020F7
:101FF0000040054070B504000D0000F09DF88023FE
:10200000001969411B06994202D30120024940424E
:10201000FFF784FF70BDC046FFFFFF7FF0B5D646D7
:102020004F464646C0B504000D0082B0EFF3058769
:102030008946002F0ED0344900204B6AAB4203D3AF
:102040008A6A0130A24226D302B0E0BCBA46B14649
:10205000A846F0BD2D4B9846DB689A46434650464D
:102060001E7800F061F80B00514602000436B600FD
:10207000715820008E1A2900801A99418F4211DC74
:102080000ED020BF204A0020536A4B45DCD3926A11
:102090000130A242D8D25B1B5A1E9341D8B2D3E77B
:1020A0008642EED900F048F822002B00121A8B412C
:1020B000002B1ADB00230193154B220000934046AE
:1020C0002B00FFF797FE011E0FDD0F4B5A6A4A45A2
:1020D00017D39B6AA34212D34046FFF7E3FE0A4A96
:1020E0000020536A4B45AFD3D1E7074A0020536A1B
:1020F0004B45A9D3926A0120A242A5D2CBE74A451B
:10210000EAD120BFE8E7C046004005407411002036
:102110001119001010B5024A0248FFF72FF810BD40
:102120002C0D0110702700200300416A0A00986AF4
:10213000596A8A42FAD17047034B596A0A00986A71
:10214000596A9142FAD170470040054070B50400C9
:102150000D00174A536A1900966A536A8B42FAD1E6
:102160003000190024184D41AB4216D813D0104A44
:102170002B00526A954203D90D494A6A9A42FCD310
:102180009A4207D10A4A02E0516A994202D1916A01
:10219000A142F9D370BDA642E9D9054B5B6A1C0088
:1021A0005A1CEFD0012301246442E5175B42E3E7A8
:1021B00000400540064A536A9942FCD807D1044BB7
:1021C00002E05A6A914202D19A6A8242F9D3704778
:1021D00000400540F8B5040006200D0000F078F935
:1021E000002844D0374B3849E3185A1E93418022C7
:1021F000120494465B429B0D344A9B056344136072
:10220000334A136018000A689043FBD12D4B314AC2
:10221000E31859424B4180215B0049000620995246
:1022200000F056F92900C00000F0B4FB0130C309EA
:102230001ED1402701226262A362266BF30722D4DB
:10224000E36A254B0620E51800232B60266300F087
:102250003FF93900800000F09DFB7023E26A5A408C
:102260000E3313402B601D4B23630323A364F8BD7F
:102270001B4A93421ED900231A4A1B4F6262A36273
:10228000266BF307DCD5194B144AE3181A60656A0C
:10229000A36A0620AD01ED1800F01AF9144900F008
:1022A00079FBAD020100280000F074FB0021FFF76C
:1022B0004DFFC5E74006800E9F011A003F1803003E
:1022C000B9E7C0460080FCBF08C0004000E0004005
:1022D00000F00040203000202C100000010300001E
:1022E000FEFF0000FFFF0000C0FF3F003030000095
:1022F0004E0E0000F8B5DE464E4657464546E0B560
:102300008B4605000A991800160000F043FB0A9B53
:102310006C001F02324B64199C46A400644463683D
:1023200081469F4200D967602B1FDBB29846012B84
:1023300030D9C02380229B01E31812011A60294B77
:10234000AD0059599A4600291BD17301E026226835
:1023500053401E40802342465B01E3181E60012A61
:1023600030D9802380229B01E31812011A60534662
:102370004A4667605A51F0BCBB46B246A946A046E1
:10238000F8BD586900F006FB013043001B18033B01
:10239000FDD2DAE75B46012BCBD1C02303229B01A0
:1023A000E3181A60023AA3681A42FCD07301E026CF
:1023B0002268AD0053401E4080230A4A5B019246CA
:1023C000E3181E605A462168514003220A401A60F1
:1023D00001225B469A40A3681A42FCD0C1E7C0467E
:1023E0000080004078270020F0B546464F46D6468C
:1023F000C0B51F00344B44009C462418A40064441C
:10240000636888461600FF2B02D880235B00636058
:10241000031FDBB29A46012B30D9C02380229B01D7
:10242000E31812011A60294B850059599946002971
:102430001BD17301E026226853401E408023524680
:102440005B01E3181E60012A30D9802380229B01A2
:10245000E31812011A6080235B0063604B465F51F2
:10246000E0BCBA46B146A846F0BD586900F092FA01
:10247000013043001B18033BFDD2DAE74346012B32
:10248000CBD1C02303229B01E3181A60023AA36850
:102490001A42FCD07301E0262268850053401E409A
:1024A00080230A4A5B019146E3181E604246216878
:1024B000514003220A401A60012342469340A26819
:1024C0001342FCD0C1E7C0460080004078270020BE
:1024D000014B8000C058704778270020F8B50400F1
:1024E00021481E0017000D0000F054FA01003800CA
:1024F00000F050FA069B36041B031E432368002B92
:1025000020DB1A4B1A49E3185A1E9341802292018C
:1025100094465B421B0B174A1B0363441360164A25
:1025200013601F000A689743FBD1144B2560E21823
:102530002123A06013602368002BFCDA0823E660E7
:102540001360F8BD3F2322681340AB42D9D1A36882
:102550001B051B0D8342D4D1EE22E368D202134047
:10256000B342CED1EDE7C046001BB7000040FDBF2F
:1025700008C0004000E0004000F0004004300000CF
:1025800010B580241C4BE4051C6000281AD00123E0
:102590001A4C18431A4BDC611A4C44401C625962B5
:1025A00098628021144BC9051960174817490860C3
:1025B000E021C9041960002A07D18022144B1206B9
:1025C0001A6010BD0E4BD861EBE753019B1A9B00BC
:1025D0009A18802312015B049A4209D213000D4914
:1025E0000B60074B5A608022094BD2051A60E8E75E
:1025F000094B1A00F3E7C04600B00540D3C007B04E
:10260000008005402D3FF84FFCFF010008200140ED
:1026100000A00540E42F0020FFFFFF008023024AB6
:102620009B000B43D362704700800540142310B514
:102630000100188804331B88984710BD162310B575
:102640000100188802331B88984710BDF8B547462B
:10265000CE4680B50F1E19D01423994604330400CA
:102660000025012698464B461888434621681B885A
:10267000984701C4431E9841013540420640AF428D
:10268000F1D13000C0BCB946B046F8BD0126F8E72C
:10269000142370B50400188804331B880D00054905
:1026A000984703000020002C01DB0130A0402900E6
:1026B0009847C04655420000AA23064A1B011360F2
:1026C0008D235B00D3600449044B19605368002BD1
:1026D000FCDA70470040024000B0FA00006002409F
:1026E0007047C04610B50148FEF71AFD500D0110A5
:1026F00070B5074D074EB54209D20024013E761B46
:10270000B60808CD984723000134B342F9D170BD13
:10271000D80B0110140C0110054B064A06491A602B
:10272000064A074B1A6010000B689843FBD17047AC
:1027300000E00040BFCDFBFE08C00040FE7F3C0033
:1027400000F00040044BDB6C002B03D18022034BD4
:10275000D2021A607047C046000011504C20115040
:10276000044A054B1A60054A1368DB018033FBD12C
:102770007047C046FFFFFF0100F0004008C0004066
:102780004022034B9A675A671A67DA667047C04659
:1027900000F0014010B5FEF77FFD10BDF8B52749E8
:1027A000274C284D641AA6103200302E00D9302252
:1027B0002800920001F076F8BC2C3BD830202F2363
:1027C0002C196407204A801BE40F9B1B052B16D98C
:1027D0003700002C02D0B300771CEA50001B3319DD
:1027E0009B004108EB18C900C9181A605A600833E9
:1027F0009942FAD1012303421CD09843C619B30071
:10280000EA50731C2F2E15D09B00EA50B31C2E2EBD
:1028100010D09B00EA50F31C2D2E0BD09B00EA50E9
:10282000331D2C2E06D09B00EA50731D2B2E01D099
:102830009B00EA50054B9D60F8BDC04600010010AA
:10284000C001001000000020C101001000ED00E0F8
:10285000002310B5294C82B0A367FFF72DFF01229A
:10286000274B1A60636C012BFCD10322254B1A60A5
:10287000224A936B012BFCD1013300930121224AA0
:1028800022480433FFF72AFE052301210093204A42
:102890002048FFF723FE0022022104201E4BFFF7F1
:1028A000A3FD0022012105201C4BFFF79DFD002206
:1028B000002107201A4BFFF797FD00220021082076
:1028C000174BFFF791FD8023DB00009300220021CE
:1028D0000920134BFFF70EFD0022104B00210620AC
:1028E000FFF782FD0420FFF7F3FD0E4900F052F8D8
:1028F00001000020FFF792FE02B010BD00800040F2
:102900003CB0004030B00040002F685900800240C9
:10291000008C864700C00240001BB7004059730777
:10292000006CDC0240420F0001480421014B1847B3
:10293000901100204D260010014B9B6818470000A5
:1029400090110020124A936F9B0815D29066D166B1
:10295000002905D0FFE7FFE7FFE7516F106F7047D1
:1029600004B580210906C2175140002800D0C84391
:102970000EF0D2F8002104BDF0B5146E556E576FFD
:10298000166FFFF7E3FF1466556657671667F0BDCD
:10299000000000D0114A936F9B0813D21066516655
:1029A000002905D0FFE7FFE7FFE7516F106F704781
:1029B00004B5002801D00020C0430EF0ADF800217E
:1029C00004BDC046F0B5146E556E576F166FFFF715
:1029D000E5FF1466556657671667F0BD000000D026
:1029E00094464A4A926F9208624601D228E0C04655
:1029F000F0B5464E346E756E776F366F00F020F886
:102A00009446424A14665566576716676246F0BD9B
:102A100094463E4A926F9208624601D254E0C04604
:102A2000F0B53A4E346E756E776F366F00F04CF835
:102A30009446364A14665566576716676246F0BD77
:102A4000002B24DB11D000293EDA00B5C9434042F7
:102A500000D1013100F038F8C943404200D10131C2
:102A6000DB43524200D1013300BD002AEBD10028E4
:102A700001D1002905D00020C90FC90701D1C043E9
:102A8000410800B50EF038F80022002300BD00B563
:102A900000290ADBDB43524200D1013300F014F875
:102AA000C943404200D1013100BDC943404200D179
:102AB0000131DB43524200D1013300F005F8DB4322
:102AC000524200D1013300BD002923D1002B18D17F
:102AD000002A0CD0BC460D4F38667A6600210023D0
:102AE000FFE7FFE7FFE77A6F386F67467047002818
:102AF00001D00748010000B50DF0FEFF00220023C1
:102B000000BD02000B00002000217047000000D033
:102B1000FFFFFFFF002B00D0BFE0130C28D1002ADD
:102B2000E7D080B4114F39667A66FFE7FFE730B42B
:102B3000040C7B6F396F1B0423433B667A66FFE707
:102B4000FFE7FFE7C04684B27B6F3D6F1B04234362
:102B50003B667A66FFE7FFE7C04600232C042D0C96
:102B60007A6F386F00196941B0BC7047000000D01F
:102B7000F0B594460025140E01D112020835140F49
:102B800001D112010435940F01D192000235D40F06
:102B900001D152000135D40B0134254F7C66254C00
:102BA0003C660E0C93B2FFE7FFE7FFE73C6F66431E
:102BB000360C7703BE467343DF0B5B04C01AB94182
:102BC000130C7343DB18C91ACE086643360CB6449F
:102BD00093B273431F0F1B01C01AB941130C734307
:102BE0001F0B1B05C01AB941860D8F023E43664379
:102BF000360C092D24DB520A7243801A7703460AE9
:102C00006643360C16235B1BDE40DF40BF1964466B
:102C10006643821B7046043506330100D940A84044
:102C2000C01900D30131A24206D20023F0BD00003A
:102C3000000000D0FFFFFFFF121B0130F3D3F1E7CC
:102C400009277F1BFE406446A2B27243801A00D25D
:102C50000139220C7243130C1204821A99410B00A1
:102C60007046043513370100F940A840801900D39D
:102C70000131002B02D1A2420AD2F0BD013000D3B3
:102C80000131121BFAD2013BF8D1A24200D2F0BDB1
:102C9000013000D30131121BF7E7F0B51C0C00D056
:102CA00080E00CB400251C0A04D11B02160E33432D
:102CB000120208351C0B04D11B01160F33431201FD
:102CC00004359C0B04D19B00960F334392000235D0
:102CD000DC0B02D192185B4101351C00971864414E
:102CE0000134464F7C66464C3C660E0CFFE7FFE71E
:102CF000FFE7C0463C6F6643360C7703BE4697B28B
:102D00007743C01B00D20139C01B00D201399FB2EA
:102D10007743C91BC91B170C77437E04FF0B801B2D
:102D2000B941CE086643360C0C2D33DBB644120B8A
:102D30001F053A431B0B97B27743C01B00D20139E2
:102D40009FB27743C91B170C77433E043F0C801B8F
:102D5000B941860D8F023E43664329277F1BFE4003
:102D60000C3D7746AF40BF1930BCA2B2ABB2724344
:102D70007343801A9941220C7243130C1204801A77
:102D8000994102000B000137001BA941F9D2781EBE
:102D90000021F0BD0C277F1BFE4077467F0BAF4024
:102DA000FF19E0E700245D1C07D0144F7D663966EB
:102DB000FFE7FFE7FFE7FFE73C6F95B29EB2654391
:102DC0006643401BB141150C1E0C65436643360437
:102DD0002F0C3E432D04401BB141994204D2020006
:102DE0000B0020000021F0BD01D19042F7D3801AE2
:102DF000994101349942F2D3F6E70000000000D077
:102E0000FFFFFFFF48404140484018B41B4B5B6840
:102E1000FC46019308BD04DFBF30001018B4174B07
:102E20001B68FC46019308BD00DFC93000109446C2
:102E3000134A926F920809D2624618B40F4BDB68AE
:102E4000FC46019308BD0CDF813300100C4AF0B53D
:102E5000146E556E576F166F6246FFF7EEFF084A05
:102E60001466556657671667F0BD18B4034B9B6828
:102E7000FC46019308BD08DF25320010681B0020C6
:102E8000000000D0FFB550404240504059404B40F8
:102E9000594000E0FFB5154F4C00640D03D0BC4213
:102EA00004D10C0314D80020090D09055C00640D41
:102EB00003D0BC4204D11C030AD800221B0D1B0501
:102EC00001264B4009D44B4003D58B4200D18242AE
:102ED000FFBD9942FCD19042FFBD0B43DB18034379
:102EE0001343F5D0C9434918FFBD0000FF07000098
:102EF00000B5FFF7CFFF01D0002000BD012000BDCD
:102F000000B5FFF7C7FF804100BDC04600B5FFF721
:102F1000C1FF01D9002000BD012000BD00B5FFF7B1
:102F2000B1FF01D9002000BD012000BD00B5FFF7B1
:102F3000A9FF804100BD012040054A00121804D8B5
:102F40005A00121801D80020704701207047000075
:102F50000021002805D17047C1174840401AFAD017
:102F6000C90713B5064B1B6898470CBC441CA2400C
:102F70001005120B0349091B09051943114310BD24
:102F8000103000201F04000010B54C00620D80239B
:102F9000D218DB00D21A5B057E2A10DD9E3A13DAC6
:102FA000CC170903490819435242D1406400013447
:102FB0001532202A05DAD0400843604310BD0020B6
:102FC00010BD0846604310BDC80FC018013810BDC1
:102FD00018B4044B5B6AFC46019308BD24DF31350D
:102FE00000100000681B0020132370B51D78012D10
:102FF00019D014DD1F48FFF721FB06001E48FFF71C
:103000001DFB1E4C80223100200000F04BFC022DE5
:103010002DD01B48FFF70AFB1A4B186070BD1A4BE6
:10302000164CA364F5E7184B144C23606360A3604F
:10303000E36023616361A361E36123626362A3626E
:10304000E36223636363A363E36323646364A3644E
:10305000E36423656365A365E36523666366A3662E
:10306000E36623676367A367E367A364D1E7064B5F
:10307000A364CEE75344000053460000681B0020C1
:103080004C330000103000208D30001007B5604632
:1030900001880A0A0230DF2AFAD1C9B2820804D3B1
:1030A000028840880004104300E00068014A505044
:1030B000039007BD681B00200FB403BC0CBCF0B527
:1030C0000124E407634000E0F0B50C0DCF0F661E4D
:1030D0003605891B640503D3C943404200D301313F
:1030E000640D03D0661CF60A07D0E41B00207F00A5
:1030F000791C89078912803C24031D0DDF0F6E1E89
:1031000036059B1B6D0503D3DB43524200D30133CD
:103110006D0D03D06E1CF60A07D0ED1B00227F0058
:103120007B1C9B079B12803D2D032F1B661B58D4D5
:10313000A446202E46DA20371400BC401D00BD40B6
:10314000F24033412A4380185941CB0F05D0C9437F
:10315000C043002264425041514162464D0D28D186
:103160000D0D07D100281FD0241940414941013AD3
:103170000D0DF9D0640006D3013000D30131002CCD
:1031800001D140084000013A0BD4941CE40A04D158
:1031900012051144DB071944F0BDD907204B194330
:1031A00000E0D9070020F0BD0029DDD1002CDBD1E3
:1031B000F0BD0132C6074008CD0728434908002E5C
:1031C000E1D0D9E73C2E29DA203E40371400BC403C
:1031D00000D00124F24014431A00BB401C43D31713
:1031E000ACE7AC46202F08DA20360400B4400D00CE
:1031F000B540F84039412843A5E73C2F0CDA203F81
:1032000040360400B44000D00124F84004430800D4
:10321000B1400C43C117EAE710001900002494E7FD
:103220000000F07FF0B50C0D661E3605891BE60A1E
:103230006405640D02D0651CED0A04D00020012154
:103240000905803C2403A4461C0D671E3F05DB1BBB
:10325000E70A6405640D02D0651CED0A04D0002263
:1032600001231B05803C24037740644497B484B257
:1032700096B27443070C7E43150C6F4380B26843CB
:10328000361802D3012000043F183004350C001911
:103290007D41844688B29AB250430C0C62431F0CA5
:1032A0007C438EB27E43921902D301263604A419C0
:1032B0001604170C3618674101BC81B29AB251430B
:1032C000040C62431B0C5C4380B25843121802D3B7
:1032D0000120000424181004130C401863412D1819
:1032E0005E410020474106BC88B293B258430C0CA3
:1032F0006343120C544389B251435B1802D301213A
:103300000904641819041A0C091862416D18564111
:103310000020474118BCF902720D1143F0026A0DFA
:103320001043ED020A0D03D16D1940414941013BA3
:10333000124E9B1B7600B3420ED26D0007D30130B4
:10334000002671416646354301D1400840001B0507
:10335000C918E4072144F0BD0BDA013306D101306E
:1033600004D101314F0D01D04908F2E7E1070020F7
:10337000F0BD013631050020EBE70000FF0300003F
:10338000F0B51C0D671E3F05DB1BE70A6405640DE5
:1033900002D0661CF60A04D0002201231B05803CE3
:1033A0002403D0252D060026F6432E661E096E66E0
:1033B000CE0FF619B44649004F0D02D07E1CF60A16
:1033C00003D000200021403F3F033E1BB600B44421
:1033D000013F7F05C91B49082E6F013676089C0204
:1033E000950D25437543ED137543AD1301356D10F0
:1033F000F603761B0CB4CC02450D2C43A2B2B3B23B
:103400005A43270C7B43350C6F43A4B26C431B1902
:1034100002D3012424043F191C041D0CA4187D416F
:1034200024196D41009A91B2ACB26143170C7C43F0
:103430002B0C5F4392B25A43A41802D30122120408
:10344000BF182204230C52187B41019C6C431B19AA
:10345000520ED9010A434401A01A81B2B2B25143BB
:1034600003145A43360C734387B27743D617D219E5
:1034700000277E4136049B191704160C7F185E4105
:103480007316ED18F301002680337541A90F06D19C
:103490006400690AE8055B0A184309D22FE0042298
:1034A000944480337541A90AA8059B0A184326D382
:1034B000404149412404009A019B0D005543641B7F
:1034C0004343E41A95B286B27543170C7E43030C4E
:1034D0005F4392B25A43B61802D301221204BF18B6
:1034E0003204330C52197B4152429C41002C02D4CD
:1034F0000022013051414008CA071043490802B078
:103500006246D7079210084BD218084B9A4203D252
:1035100012058918C919F0BD0020002A01DC390004
:10352000F0BD01331905F5E7FD030000FE070000BB
:10353000002200B5203200F004F8080000BD0000B1
:1035400000220B150AD410B5944600F031F814147B
:10355000013400DA0021CB17144C20470020002151
:1035600070476244343A0CD40C2A07DA04009140C4
:10357000904052422032D440214310BDD843D94319
:1035800010BD203207D40C469440524220321141E3
:10359000D040204310BD0800C917203203D4524246
:1035A0002032104110BD1800190010BD6335001005
:1035B0000A0DCC0F531E1B05C91A520503D3C9436C
:1035C000404200D30131520D03D0531CDB0A07D017
:1035D000121B00206400611C89078912803A1203C3
:1035E000014BD21A70470000FF03000051434343D0
:1035F000C9188C46110C83B24B4310B4040C6143C0
:1036000092B280B2504362431C041B0C001910BCE0
:1036100059411304120CC018514161447047000015
:103620004840414048400E4B5B6818470C4B1B68B4
:1036300018470C4A936F9B0802D2094BDB68184766
:10364000F0B5146E556E576F166FFFF7F6FF054A0B
:103650001466556657671667F0BD014B9B6818479F
:10366000681C0020000000D007B548404140484099
:1036700001E0C04607B54200120E03D0FF2A03D175
:10368000420218D8C00DC0054A00120E03D0FF2A0E
:1036900003D14A020FD8C90DC9050122414005D402
:1036A000414001D5814207BD884207BD0143491809
:1036B00001D0C043001807BD00B5FFF7D5FF01D901
:1036C000002000BD012000BD491A002808D108468D
:1036D00070470000C10FC90700D54042002817D02D
:1036E000F44603B40B4B1B68984706BC81409E38D8
:1036F0004042803107D20B0607D04900490AC00575
:103700001043084360470130F8E7490A8902F5E7AA
:103710007047000010300020132310B512481C78A9
:10372000FEF78CFF0100012C0AD003DD80220F4838
:1037300000F0B8F80E48FEF779FF0E4B186010BD88
:103740000A4C5422200000F0ADF80B4B6365A365D2
:10375000E36523666366A366E36623676367A3671F
:10376000E3672362E361E5E753460000681C00203D
:103770004C330000103000207D37001007B5604644
:1037800001880A0A0230DF2AFAD1C9B2820804D3BA
:10379000028840880004104300E00068014A50504D
:1037A000039007BD681C002070B504000A4E30006D
:1037B0000DF002FA20000BF01FFB050030000DF0A9
:1037C00093F9002D05D0054B2C199C4201D82800F7
:1037D00070BD0348FDF7A4FC201900200000042060
:1037E0005C0D0110F8B506000C000C4F38000DF010
:1037F000E3F92100300009F0AFFC050038000DF0BE
:1038000073F97443002D05D0054B2C199C4201D847
:103810002800F8BD0348FDF783FCC04620190020AE
:10382000000004205C0D011070B505000C000B4E6B
:1038300030000DF0C1F92800210009F0F3FC05006B
:1038400030000DF051F9002D05D0054B2C199C428C
:1038500001D8280070BD0348FDF762FC2019002044
:10386000000004205C0D011070B50400054D280017
:103870000DF0A2F920000BF0C9FA28000DF034F980
:1038800070BDC0462019002001480421014B184793
:10389000A01100204D260010014B1B6818470000A6
:1038A000A0110020014B5B6818470000A011002008
:1038B0009A4200D2885470477047C046F8B55746C0
:1038C000DE464E464546E0B599460A9B07009A46B5
:1038D0000D9B884693460B9C9B073BD10C9B9C42BF
:1038E0003DD21E1B0B9415000C005E442A004B4673
:1038F000013521002020B847B542F7D1A0460B9CE6
:10390000002C20D0454636195346321B013C185D29
:1039100029004B46B847002CF6D12B0035009846BD
:103920000D9B9B070FD55B46EC1A0C9BA3420AD953
:10393000464698462A004B46310020200134B847BD
:1039400001354445F6D32800F0BCBB46B246A94633
:10395000A046F8BD16001500002CD3D1E0E71600F4
:10396000002CCFD11500EEE7F0B54F464646D646BF
:10397000C0B584B098460EAB1B7894469946129B0E
:103980000D9C109F119E9A0725D4002E65D1BC4234
:1039900021D201221A409246202C00D1E9E00C9A53
:1039A000551E302202E0202C00D17BE001342A5544
:1039B000A742F8D85246002A0DD0B4420BD20C9A36
:1039C000551E3022202C02D171E0202C2DD0013444
:1039D0002A55B442F9D1DA063CD55A052ED4002C2A
:1039E00028D10F9A102A00D1B6E0022A00D1BCE0FB
:1039F00030220C9C227001244A46002A65D15A07C5
:103A000000D499E02B220C9D2A55013403930C9B82
:103A100062460093029643460194FFF74FFF04B0BD
:103A2000E0BCBA46B146A846F0BD2024DA06EDD582
:103A30005A0503D4A74266D0B44264D00F9A102A24
:103A400071D0022A57D0202CE0D02200013430253A
:103A50000C9FBD54202CD9D0CEE7012215001D406B
:103A6000AA461A4236D04A46002A4AD10C321A4295
:103A700047D1BC42A1D2202C91D1202E17D820248E
:103A8000DA06C3D55A051BD4202F01D0202ED5D15C
:103A90001F220F9D102D6FD0022DD8D162250C9FB3
:103AA000BD54D0E75246002A79D0202EBDD920241B
:103AB000DA06ABD55A0503D4202FE9D0202EE7D063
:103AC0000F9A102AA2D12024A0E72D220C9D2A555E
:103AD00001349BE7BC4200D37DE7202C00D05EE799
:103AE000DA06F0D55A05EED4202F62D0202EEAD186
:103AF00034001F22CDE7202C00D187E722000134BB
:103B0000CCE7013EB5E7621E012CC2D10F9A102A04
:103B100000D06AE79A063BD558220C9C2270283ABE
:103B20006270022468E79A060ED4202CCBD078224B
:103B30000C9D2A55013486E71A0700D466E7202237
:103B40000C9D2A55013461E7202CBCD058250C9AD5
:103B500012191570013476E79A0608D558220C9C84
:103B6000227030226270022446E76032F7E7782242
:103B7000F5E7002A83D1B3E7A21E013C9D0603D4DA
:103B800078250C9FBD5460E758250C9FBD545CE719
:103B900078220C9C2270483A627002242CE7DA06E4
:103BA00000D433E75A058BD4202F00D044E71F22DE
:103BB0006FE73C001F226CE710B5002800D110BD54
:103BC00001F04AFCFBE7C0460B0010B5002802D00C
:103BD00049681B68984710BDF0B557464E464546A4
:103BE000DE46E0B599B08246894690460893229A0F
:103BF000239B10001900FFF79EF9002800D0CDE0AC
:103C0000229823990122D94B5242FFF78FF90028BD
:103C100000D0C3E0229823990122D54B5242FFF7EE
:103C20006FF9002800D0B9E02298239900220023E0
:103C3000FFF766F9002800D0F1E1229E239F802340
:103C4000269ADB001A400D92269A1A4201D10623C9
:103C500024938023269A1B011A403B009346099621
:103C6000334300D0B3E0002A00D0C2E10023002497
:103C70000A930B94002304250993259B0024AB424F
:103C800000D95C1B0223269A1A400C92269A1342F2
:103C900003D06B426B415B421C40099B002B07D059
:103CA0000A9A0B9B30003900FFF7C1F806000F009D
:103CB0002298239900220023FFF722F9002803D03D
:103CC000802109067B181F00269AAA4B00960197AF
:103CD0001340089E0493249B0394029342463300AE
:103CE0004946504600F0AAF90400002D67D0202074
:103CF000269A4946024013005A4253415B42621CD5
:103D000018400A92330022004530D047099A6F1EAE
:103D1000D317D4185C40D30F9B46002501E0202D1B
:103D200013D008AA94461F23200063440A210135BA
:103D30005E19FEF72FFE3031317020000A21FEF7A8
:103D400029FE26000400092EE9D805230693002346
:103D500004930A3303935B46089E029310AB0A9ABE
:103D6000009349463300504605970195FFF7FCFD47
:103D70000C9A0400002A22D04246851A259AAA42AB
:103D80001DD9B0465746160022004346494620201A
:103D90000135B8470134AE42F6D810E0269B4246C2
:103DA0000493259B49460393249B50460293229BF0
:103DB000239C00930194089B00F040F9040020002C
:103DC00019B0F0BCBB46B246A946A046F0BD6A4B4E
:103DD00078009C46400D6044FFF7BEF8674A684B88
:103DE000FFF743F8674A684BFFF718F8674A3B0349
:103DF0001B0B1A4304000D0009981100644B0022AC
:103E0000FFF703F8634A644BFFF72FF802000B003B
:103E100020002900FFF702F8FFF7B6F80990FFF736
:103E20009BF85E4A5E4B04000D00FFF71EF800226F
:103E30005C4BFEF7F3FFFFF7A7F85B4A5B4B2900EB
:103E40000C902000FFF711F804000C980D00FFF70C
:103E500083F8574A574BFFF708F802000B00200081
:103E60002900FEF7D2FF04000D0002000B000A94A7
:103E70000B95FEF7FAFF04000D000A980B9902005B
:103E80000B00FEF7CBFF00220E900F914A4B200053
:103E90002900FEF7CCFF0022484BFEF7BFFF0200CF
:103EA0000B0020002900FEF7C2FF0022444BFEF762
:103EB000B5FF02000B0020002900FEF7B8FF0A9AA8
:103EC0000B9B0D0080210400C9050020FEF79DFF1B
:103ED00002000B0020002900FEF7A0FF02000B00EB
:103EE0000E980F99FEF7A3FF0022284BFEF796FFCE
:103EF000344B0C9C9C46644423050022FEF7B5FF1E
:103F000004000D0002000B00300039000A940B95EC
:103F1000FEF7F6FF00285DD123002A00C625099987
:103F200063318D42AD4159466D420435002900D1BF
:103F3000A3E6134363D030003900234A234BFEF736
:103F4000EDFF002807D0002230003900204BFEF79B
:103F5000D7FF002853D1249B002B00D18DE60D9B69
:103F60005A1E9341249AD31A249386E6FFFFEF7FCB
:103F7000FFFFEFFFFFF7FFFF01FCFFFFFB799F5003
:103F80001344D33FB3C8608B288AC63F0000F03F7C
:103F90000000F83F61436F63A787D23F71A379099F
:103FA0004F930A400000E03F1655B5BBB16B02408D
:103FB000EF39FAFE422EE63F00002C40000024407C
:103FC00000001840FF0300002D431CEBE2361A3FAF
:103FD00080842E41099B0022013B09932000164B4F
:103FE0002900FEF724FF0A00010003000A910B924A
:103FF00094E7002300240A930B9400230993249A46
:10400000099B9A4214DDD31A013B24938023269AFC
:10401000DB001A4300230025269209932DE6802217
:1040200012069446229B1E00239B63441F0006E653
:1040300000232493EAE7C04600002440F0B545463B
:10404000DE464E465746E0B595B08B4690469946BB
:104050001E9A1F9B0A9019001000209DFEF76BFF0F
:10406000002800D0B0E11E981F990122C74B524290
:10407000FEF746FF002800D037E11E981F99012265
:10408000C34B5242FEF752FF002800D0A7E01E9813
:104090001F990022BF4BFEF749FF002800D088E09F
:1040A0001E981F990022BC4BFEF72AFF002800D063
:1040B0007FE01E981F9900220023FEF721FF0028B1
:1040C00000D0FAE000230B938023229C229ADB008D
:1040D0001C401A4200D102E1092D00D87CE106A95A
:1040E0008C462C00172200233021093C6244013306
:1040F000D154EF1A202B00D132E1A342F7D1002294
:10410000A44B069207931E981F99FEF73DFF0500EA
:10411000FEF722FF02000B001E981F99FEF775FEA6
:10412000069A079BFEF7A1FE08900991FEF750FF43
:104130000600FEF70DFF02000B0008980999FEF734
:1041400064FE0022954B08900991FEF7EFFE0028CF
:1041500000D1D2E001363000FEF7FAFE069A079B46
:10416000FEF7DCFE002801D000260135AA46002F0C
:1041700000D098E02800FEF7EFFE02000B001E982A
:104180001F99FEF742FE854B002206000F00FEF746
:10419000B7FE0CAB9A46002845D10022300039000A
:1041A0007E4BFEF7C3FE00283DD1EB073BD5013522
:1041B00039E0229B42460493219B594603930A9877
:1041C0001E9B1F9C0295009301944B46FFF704FD34
:1041D00015B0F0BCBB46B246A946A046F0BD229B36
:1041E0005B0767D403226E4B2299019203912199B8
:1041F0000291009342464B4659460A98FFF75EFBF0
:10420000E6E706AA94461723280063440A210134EE
:104210001E19FEF797FB3031280031700A21FEF796
:1042200091FB051E76D0202CEBD10323229A13405C
:10423000012B1DD1219B002B1AD00B9B002B00D0F2
:10424000BBE0229A0C33134200D0B6E0219BA3427C
:1042500000D887E006AB9C4617223023624404E076
:104260002199013413558C4259D0202CF8D12024A7
:10427000229B01940393219B02935346B9E706AA1C
:10428000944617230A216344300001341D19FEF7B8
:1042900081FB3031297030000A21013FFEF77AFBA3
:1042A000092E46D90600202CE9D155460CAB202416
:1042B0009A46B8E704223B4B96E71E9A1F9B0020C4
:1042C0000021FEF7A2FD01230B938023229C229A5A
:1042D000DB001E901F911C401A4200D0FCE6002219
:1042E000314B0627069207930DE7229B0393219BF0
:1042F0000293042301932D4B7BE700220898099930
:10430000264BFEF7FDFD002800D02FE7002E4FD1F1
:1043100001362BE70323229A1340012B66D0202C71
:10432000A6D00B9B002B1FD02D23524613550134D2
:104330009EE75546202CB9D030233A19002F08D0DB
:10434000172006A9013409180B55202CAED0944231
:10435000F6D10CAB9A462E2352461355013462E730
:104360002024CCE6202C83D0229B5B0708D4229B00
:104370001B0700D47CE7202352461355013477E70E
:104380002B2352461355013472E7C046FFFFEFFF5F
:10439000FFFFEF7F65CDCD4165CDCDC10000E03F92
:1043A000B80D0110B00D011080842E41C00D011018
:1043B000F30700D4DAE60136D8E6219B013B2193CE
:1043C000A34200D946E7AAE7229B0393219B0293CD
:1043D00003230193074B0CE7074BEA009B185C682B
:1043E0001B682F000693079400248CE6219B002B6A
:1043F00095D022E7BC0D011048190110F0B55746C1
:10440000DE464E464546E0B5A5B01F002E9B9146C0
:104410000D93CA4ACA4B82468B461A60002900D1C6
:1044200029E2002338789846002800D12BE2C54BBA
:1044300044460C93C44B55464E460E930AE0631C0B
:104440009846220033005946A84744463878002849
:1044500000D187E001372528F1D108239A46043B93
:104460009946023B9846013B00229C460B943878C3
:10447000791C0300203BDBB2102B03D80C9C9B0063
:10448000E3589F460300303B0B9C0B92092B3AD913
:10449000002398462A2800D1DDE000239A462E28E2
:1044A0004BD00300683BDBB2122B1ED80E9A9B0048
:1044B000D3589F4663460F001A43D8E743460F0080
:1044C0001A43D4E74B460F001A43D0E710230F00DE
:1044D0001A43CCE753460F001A43C8E780235B001A
:1044E0000B9A78781A430B9201310F0067284FD846
:1044F0002428A4D90300253BDBB2422B9FD8934943
:104500009B00CB589F46002398460B9B47469C46F2
:1045100000E00131BB00DB195B001F180878303F59
:104520000300303B092BF4D963460B930023B846B4
:104530009A460F0001312E28B3D180200B9AC0007B
:1045400002430B9230225242944678780B00844406
:104550006246092A00D8AAE12A2800D1B9E10F0051
:1045600001319EE7A046AA46B146C84503D30123C0
:104570005B424B4498464B46424659460020D04742
:10458000200025B0F0BCBB46B246A946A046F0BD0F
:1045900001006939C9B20F2900D950E701238B40C6
:1045A0009C466B4B994663464A4613400F936246BE
:1045B0004B461A4200D068E10A2956D0072900D09C
:1045C0003DE70D9B02CB9846002900D092E10B9B62
:1045D00010211A008A4310001131084381468020BF
:1045E0001A00C0000240110003421CD114AB9C46CB
:1045F0001F220F2362440D959C4615000F9B0B94C0
:1046000002E0202B0CD0110064460C402000373013
:10461000092C00D807380133E8540A090F29F0D8CB
:104620000B9C0D9D0F934B46082206935346059213
:1046300008320392002204930F9B029201931CAB59
:1046400022000093594633002800FFF78DF94346B6
:1046500004000D93FAE60D9B04CB9046002A79DB0B
:1046600078780D930F00013117E70D9B02CB14935F
:104670000B789C4618005346002B00D134E10028EB
:1046800015D05346013B013399460D940B9C894448
:104690004A460B00A14601E0934203D05C78013307
:1046A000002CF9D14A465B1A0D9C0B920F93802384
:1046B000DB0099460B9A13400D934B461A4204D0E7
:1046C0000F9B534501D953460F93022399460B9AEA
:1046D00013400B934B46134200D1F5E16346002B88
:1046E00000D1D6E10D9B002B00D182E10B1BD146FE
:1046F00031009A463B00A1442E005F464D46220001
:104700009B46894609E04B463900541CB047534646
:10471000185D002800D192E122009542F3D14B466A
:104720005A46A946BB46350017001E004C460B9B57
:10473000002B00D0ADE1149B0D9387E6FD430010E4
:10474000E02F0020AC170110F01701103C180110E9
:10475000419000000B9A283802430B924246524285
:10476000787890460F000D93013196E678786C28A2
:1047700000D15DE180230B9A5B001A430B9201315B
:10478000B3E680239B00ABE67878682800D148E147
:1047900080230B9A01311A430B92A6E6672800D1B9
:1047A000B2E0472800D11AE1452800D11CE10B9A5C
:1047B0000721049242460D9B0392073352468B43D6
:1047C000190002920CC92800009201930D91220059
:1047D00033005946FFF700FA040037E6462800D1B7
:1047E0008DE00B9A0721049242460D9B03920733FA
:1047F00052468B43190002920CC928000092019383
:104800000D91220033005946FFF718FC04001DE605
:10481000631C98462200330059462520A847444689
:1048200014E60D9B04330F93631C99460B9B9A0768
:1048300000D40AE10D9B2200187859463300A8479E
:1048400043464444012B00D86FE1B0462E002500BA
:104850004C46B9465F4622004346013439002020C9
:10486000B047AC42F7D12C00BB4635004F46464618
:104870000F9B0D93EAE5D64B38789A46002398466D
:10488000002800D0D3E500246FE66F2842D000D87E
:10489000FDE11023782800D19BE00B9A9A430B92FC
:1048A0000A239C46002314930A330F9338E057469B
:1048B0000B9AB900C919490001330F181878303F15
:1048C000010030390929F4D9BA460B921F00591C4E
:1048D000E7E50D9BB87804CB0237D143C9170A40EE
:1048E00092460D93791CDCE5002800D1DFE6022317
:1048F0005B42C8E621200B9A0243914676E62023CC
:104900000B9A1A430B926CE780230B9A1B011A43F4
:104910000B924CE708239C460023149308330F9313
:104920000B9880230200DB001A401100020018429D
:1049300000D080E00C239A431000802302009B00EB
:104940001A400B92184200D0F1E0802302005B0075
:104950001A4091460D9A04321492184200D0C3E2D4
:10496000430600D5D7E0030600D421E30D9B1B8846
:104970000993002B00D02DE110339843002900D17A
:1049800028E10023994643460593534604930F9B21
:1049900006900393002302934B4601931CAB220025
:1049A0000093594633002800FEF7DEFF0400C2E6FC
:1049B000582809D0622800D0E3E202239C46002355
:1049C000149302330F93ABE720230B9A1A430B92F5
:1049D000103B9C460023149310330F93A0E78023D1
:1049E0000B9A1B011A430B9220230B9A1A430B922A
:1049F000DDE60B1B9A460F9B99463B0037005E464F
:104A00009B4622003B003100A84753460134185D05
:104A10000028F6D14B460F935B46B3463E001F007D
:104A200085E6C0230B9AB8781A430B92F91C5CE513
:104A3000C0239B00F6E70D239A4310007DE75B46F9
:104A40003500BB464E461F0071E64346012B66D932
:104A5000631E434432002E001D003B00A2465F4609
:104A600091469B4622004B46013439002020B04736
:104A7000AC42F7D15B463500BB464E46A146544694
:104A80001F000D9B4A461878594633004444A847F6
:104A9000EEE60F9BA146984500D84CE64444E41A44
:104AA000B0462E0025004C46B9465F4622004346DC
:104AB000013439002020B047AC42F7D12C00BB466E
:104AC00035004F46464636E60F98804500D873E2DB
:104AD0004346E218131A32002E001D003B00914697
:104AE0005F469B460F9122004B460134390020203F
:104AF000B047AC42F7D15B46BB461F0043460F9917
:104B000001330F930B7835009C464E4660460028D3
:104B100000D0E7E50FE60D9B1B78099329E70D9B75
:104B20002200187859463300A8474C46A0E60D9A53
:104B3000FA3BFF3B07329A430133994691444B4677
:104B40000D931368526815921A4306D110329043A0
:104B500000220992002900D083E06122810600D55D
:104B60004122D2B20A9214AA91460A9A00210A3A24
:104B70000B9242461792524618925A46B2460991F3
:104B80001E001F31149B4944BB4616941A950024FD
:104B9000674698468946159D19901B920AE0303267
:104BA000D2B24B4601341A55A8454CD0202C4CD0DB
:104BB00006000D003A00002330002900FDF728FF11
:104BC000D2B2092AEBD90B9B9C466244D2B2E8E7E9
:104BD000B93800106123820600D54123DBB20A3BBD
:104BE0000B93434614A91F228C46159353466244E7
:104BF000B2460D9417974C468046A9461700099D6A
:104C00000F9E169308E03033DBB201343B55B542BA
:104C10000ED3202C0CD0050031002800FDF7BAFE81
:104C2000CBB20929EFD90B9A94466344DBB2ECE787
:104C3000159B40469846169B4D465646A1469A46B9
:104C40000D9C179F9FE6B742B0D9179B56469846D2
:104C5000189B5F469A461B9B09949B46169C199885
:104C60001A9D43460593534604930F9B0690039366
:104C700000230293099B01931CAB22000093594629
:104C800033002800FEF770FE0400FFF7DFFB10235F
:104C90000B9A9A430F92692800D091E10B998023D7
:104CA0000A00DB001A4010000A00194203D011214B
:104CB00018008A430F920F9A802311009B0019401D
:104CC0008C461A425BD1802311005B001940894653
:104CD0000D9904310B911A4200D0B2E013005B062B
:104CE00000D4EDE00D9B1B781A00D90F0D91002B1D
:104CF00000D1A3E0100014AA944642461F23159247
:104D000052466344A846BA464D461494B146040040
:104D10001F00169201E0202D0FD020000A21FDF780
:104D200039FE01357E193031317020000A21FDF73E
:104D300031FE26000400092EEDD8159B4E46A946EB
:104D400045469846169B57469A46149C0F9B0693D9
:104D500043460593534604930A2303930D9B029302
:104D60004B4601931CAB22000093594633002800A8
:104D7000FEF7FAFD0B9B04000D93FFF767FB07227C
:104D80000D9B07339343013294469C4462460D9237
:104D90000CCBD90F0B911100194300D19BE0D9170F
:104DA00013911291514010911399594011911098FB
:104DB0001199129A139B801A99411090119114AA7B
:104DC0009446424600231592524699461692320066
:104DD0001F336344A8464E46BA4614941F00109CE5
:104DE000119D914601E0202E10D0200029000A22BA
:104DF0000023FDF70DFE013630322B00BA550D00B1
:104E000022000400002BEED1092AECD8159B109447
:104E10001195454698464B46169AB14657461E0090
:104E20009246149C0F9B0693434605935346049366
:104E30000A2303930B9B02934B461CE7002885D162
:104E400059E70D9B1B68DA0F1100002B00D1A6E07B
:104E5000DA179818504014AA91461F2342464B4433
:104E6000A8460D94169704006546B1461F0014919C
:104E7000159201E0202D0FD020000A21FDF78AFDB8
:104E800001357E193031317020000A21FDF782FD95
:104E900026000400092EEDD8159BAC4645469846E1
:104EA000149B4E4619000D9C169F0F9B0291069372
:104EB00043460593534604930A230393634650E7FE
:104EC00013001B066ED50D9B00229B5ED9175A1846
:104ED0004A4092B209E7002399460028A2D1002255
:104EE0000023109211936AE70D9B1B689946002BD3
:104EF00003D110339843002938D16123820600D5AD
:104F00004123DBB20A3B0D9343461693534614A943
:104F10001F228C4617932B0062444D46B2461594CF
:104F200018978046170099460B9C0F9E08E0303377
:104F3000DBB201343B55B5420ED3202C0CD005001A
:104F400031002800FDF726FDCBB20929EFD90D9AD3
:104F500094466344DBB2ECE7169B40469846179BA9
:104F600056464D469A460B94189F159C434605930A
:104F7000534604930F9B06900393002302930B9BCD
:104F80000BE50B9980230A00DB001A4010000A0091
:104F9000194200D08BE610239A430F928BE600282B
:104FA00083D158E70D9B1B68D9175A184A409CE6D5
:104FB0000D9B1B680993DCE4030001330F93A5E507
:104FC0000B926DE40CB430B585B008AC08CC064D3E
:104FD0000A000094010028000394FFF70FFA05B0BF
:104FE00030BC08BC02B01847B138001000B585B01D
:104FF0000391012102900093034813004A4202A941
:10500000FFF7FCF905B000BDC93B00100FB430B587
:105010000C4985B008AA08CA0D680392002D0CD06F
:1050200000920122084C5242200002A9A847012008
:1050300005B030BC08BC04B01847180000F058FA9E
:105040000020F5E7E02F0020B93B001010B5094A19
:105050000300146884B0002C08D001220091064897
:10506000524203A9A047012004B010BD00F040FA4D
:105070000020F9E7E02F0020B93B001000BEFDE75B
:10508000094A03001068002805D00849C3188B425C
:1050900007D81360704706480449C31810608B4254
:1050A000F7D901204042F5E7DC2B00200000042066
:1050B00050300020030010B508001100002B05D16E
:1050C000044B1A685B6800F065F910BD012040428E
:1050D000FBE7C046501701100300013B10B5080064
:1050E0001400012B06D801230022210000F0D2F881
:1050F000200010BD01204042FBE7C0460120404295
:105100007047C046012040427047C04601204042DF
:105110007047C0460300022200209A424041704777
:1051200010B5FFF7ABFFC04630B50D0083B01900D6
:10513000002A0BD0074B084C0192009302002B0071
:105140002000FFF763FF0120FFF798FF034B1A00D1
:10515000F1E7C046C80D0110D80D0110181001105C
:1051600070B5FDF7C5FA074D074EB54209D20024C8
:10517000013E761BB60808CD984723000134B342A0
:10518000F9D170BD140C0110200C0110030010B5F2
:10519000080011001B68984710BDC046F0B5C64610
:1051A00000B5437D07000D001600002B38D0002A03
:1051B0002EDD00216A1E90466A5C037D4C1C002097
:1051C0000A2A0CD0A64216D043461B5D21000D3B97
:1051D0005A4253416A5CDBB24C1C0A2AF2D1002BC2
:1051E000F0D1884217DB022110483B689847A6425D
:1051F00007D02000E8E7864203DD311A3B68281813
:105200009847AD19013D2B780D3B5A4253413B75F0
:1052100080BCB846F0BD091A3B6828189847E2E7F9
:105220000368110028009847F2E7C046981901105A
:10523000F0B5C6460B6806000C0000B5802B06D002
:105240005A1C2260E418267180BCB846F0BD0F4B92
:105250001D68002D16D00B1D98460D4F02E02D69DC
:10526000002D0FD02B68002BF9D03B68002B01D00C
:10527000AB42F4D1280041462268FFF78FFF2D6929
:10528000002DEFD101220023DBE7C046D02B002008
:10529000D82B0020F0B5DE4657464E464546E0B5D1
:1052A00085B017001C0006000D00FCF745FF002329
:1052B000314A12184B41802109068B4202D3012248
:1052C0002E4B52422E4908008A460BF055FC0190A5
:1052D0006B1C03D130000AF09DF80500002C26D08D
:1052E000284B9846284B1C68002C15D0002F21D144
:1052F000264F02E02469002C0ED02368002BF9D041
:105300003B68002B01D09C42F4D120002A003100E0
:10531000C0472469002CF0D1019B002B28D1280024
:1053200005B0F0BCBB46B246A946A046F0BD184B3E
:105330009846D7E7154B994602ABDF1D0A239B46DB
:1053400002E02469002CE7D02368002BF9D04B46FB
:105350001B68002B01D0A342F3D12A0031002000AA
:10536000C0475B460122390020003B70C047E8E798
:1053700050460BF0B9FBD2E740420F00FFFFFF7F22
:10538000281900209D510010D02B0020D82B002080
:105390008D510010F8B557464E464546DE469846B4
:1053A0001A4BE0B59B461A4B07000E0091469A46F1
:1053B000184D5B461C68002C03D115E02469002CB5
:1053C00012D02B68002B01D0A342F7D1A368002B89
:1053D000F4D03100380098470028EFDDF0BCBB4620
:1053E000B246A946A046F8BD53465B6A984508D820
:1053F0005246926A4A4502D302204042EEE798455F
:10540000FAD101200021FCF7A1FED2E7D02B002029
:1054100000400540D82B00200A4A1368002B05D114
:105420000CE01A001B691032002B07D09842F8D10B
:10543000002902D103691360016170470029FCD083
:105440001060FAE7D02B002010B500F0B3F900F09F
:10545000FBFB012010BDC046F0B5CE46474680B5E7
:1054600083B06B460600DD1D2870FCF765FE002347
:105470001A4A12184B41802109068B4202D301229D
:10548000174B52421749080088460BF075FB164B24
:1054900081461C68002C14D0144F02E02469002CB3
:1054A0000FD02368002BF9D03B68002B01D09C4221
:1054B000F4D1200001222900FFF770FE2469002C9E
:1054C000EFD14B46002B05D1300003B0C0BCB9462C
:1054D000B046F0BD40460BF007FBF5E740420F0039
:1054E000FFFFFF7F28190020D02B0020D82B0020A1
:1054F00070B5040009F08EFF0123010005000122B0
:105500002000FFF7C7FE084B1C68002C06D063681C
:10551000002B05D098472469002CF8D1280070BDD5
:105520002469002CF3D1F9E7D02B0020F0B5CE464A
:10553000474680B5A3B004000D00FCF7FDFD002335
:10554000294A12184B41802109068B4202D30122BD
:10555000264B5242264F38000BF00EFB002306006C
:10556000019322002B00234801A9FFF73FFD019B77
:105570008046002B14D1204B1C68002C06D0636899
:10558000002B0BD098472469002CF8D1002E25D190
:10559000404623B0C0BCB946B046F0BD2469ECE734
:1055A000154B1D689946002D1CD0144C02E02D6946
:1055B000002D0FD02B68002BF9D02368002B01D0D1
:1055C000AB42F4D12800019A02A9FFF7E7FD2D694B
:1055D000002DEFD14B4601951C68CEE738000BF04B
:1055E00083FAD5E70195D1E740420F00FFFFFF7F27
:1055F0002819002031520010D02B0020D82B002079
:105600000FB400B583B004A901C90191FFF78EFF63
:1056100003B008BC04B01847F0B5002915DD0E4BE7
:105620000D271A680D4B0E4CD3185D426B4145187F
:1056300020215B001E5F0478A64207D093691942BF
:10564000FCD101301460A842F5D1F0BD9369194234
:10565000FCD11760F2E7C046243000200080FCBF78
:1056600020300020204B70B504000D1E1E682ADD7E
:10567000002010211D4B013C1A689369194214D176
:10568000013093691942FCD1136823548542F4D147
:10569000002E08D050239363516B183B0B401449E4
:1056A0008C466244136028000CE0002E08D0502382
:1056B0009363516B183B0B400D498C466244136059
:1056C00000280DD070BD002E0AD05022074B1B6859
:1056D0009A63596B183A0A4005498C4663441A602C
:1056E00003204042EEE7C0465C2700202430002023
:1056F00034100000064B10B51B68002B06D00021AB
:10570000044A12689163044A1068984710BDC04665
:105710005C27002024300020642700200822034B4F
:1057200019688B691A42FCD17047C04624300020AA
:10573000F8B51A4F1A4B3A680500D318584243413E
:10574000184E14331C003368002D02D0002B0FD0EC
:10575000F8BD002BFCD0002120009563FBF7BCFDB9
:1057600020001149FBF714FF104B35601D60EFE777
:105770000E4B200019600C493560FBF7E5FD012157
:105780002000FBF7A9FD50223B689A63596B183A39
:105790000A4007498C4663441A60D9E72430002048
:1057A0000080FCBF5C270020F55600106427002015
:1057B000341000000D4B10B51B780D4B0D4C1B78B1
:1057C0000D4B02211B780D4B00202360FBF754FC8E
:1057D00002210120FBF750FCE12120684902FCF77F
:1057E000F9FC01210648FFF717FE10BDB44C01106B
:1057F000B04C011024300020AC4C0110004003409C
:10580000B01100207047C0460022014B1A7070474B
:10581000483000204B790020FF2B0BD18B79002BD7
:1058200008D1CB79012B05D1082A03D9024B8A78FC
:1058300009301A707047C046483000200120704778
:1058400010B5012901D0012010BD134953791079F9
:1058500009781B02034300209942F5D15378012BAC
:1058600008D0022BF0D1002064220021FCF788FE32
:105870000120E9E7D37891781B021943DB0507D5AE
:105880004A0A100001231A407E331940FCF700FF3A
:1058900001204A0A4042F5E748300020004870479E
:1058A000801A011070B5050014000120012909D1EA
:1058B00053780020012B05D1637912791B02134321
:1058C000072B00D070BD21002800024A9F3301F051
:1058D0005FFAF7E7D81901100123037000487047F9
:1058E000B81901104B780A781B0213438A7810B557
:1058F00012041A43CB781B0613439622D20093421C
:1059000000D010BD0022012011004042FCF7C0FE73
:10591000024B1860024B19607047C0466027002098
:105920006827002010B5024B1878FBF7F3FC10BD78
:105930004A300020154B70B51A68002A22D0EFF3C8
:10594000108172B610680028FCD0BFF35F8F002072
:105950000F4A596010701B68BFF35F8F186081F3A6
:105960001088002400250B4E3078FBF7C7FC002878
:1059700004D1002400252900200070BD3078FBF7F9
:10598000C9FCF8E7FA240025A400ECE7EC2F00207E
:105990004B3000204A30002070B5040000200E007B
:1059A00001F016FB002836D0002001F027FB00286C
:1059B00031D0FCF7C1FB0023184A12184B4180215B
:1059C00009068B4216D2164D28000BF0D5F8002898
:1059D00021D0002001F0FCFA00280FD10120002185
:1059E000404200F009FD0324644228000BF07CF8DB
:1059F000200070BD01220B4B5242E4E7002001F071
:105A0000FDFA0028EAD021003200002001F000FB5E
:105A1000041EEAD1E7E703246442E9E740420F00AD
:105A200018300020FFFFFF7F10B5FCF785FB002337
:105A30000E4A12184B41802109068B4202D30122E3
:105A40000B4B52420B4C20000BF096F800280CD068
:105A500001200021404200F0CFFC002001F022FB99
:105A60000028F5D120000BF03FF810BD40420F0098
:105A7000FFFFFF7F18300020F8B5DE46574680B59F
:105A800005000C00FCF758FB0023374A12184B4165
:105A9000802109068B4202D30122344B5242344901
:105AA00008008A460BF068F8002803D1C0BCBB464A
:105AB000B246F8BD002001F08BFA00284AD000263B
:105AC000002C43DD2B4B9B4614E0A919002001F06C
:105AD00023FB070001200021404200F08DFC002044
