:020000041000EA
:1000000000B5324B212058609868022188439860DF
:10001000D860186158612E4B002199600221596106
:100020000121F02299502B49196001219960352056
:1000300000F044F80222904214D00621196600F024
:1000400034F8196E01211966002018661A6600F04E
:100050002CF8196E196E196E052000F02FF8012189
:100060000842F9D1002199601B49196000215960AB
:100070001A491B48016001219960EB211966A021F2
:10008000196600F012F800219960164914480160C1
:100090000121996001BC002800D000471248134993
:1000A000086003C880F30888084703B5996A0420EC
:1000B0000142FBD001200142F8D103BD02B5186610
:1000C0001866FFF7F2FF186E186E02BD00000240BE
:1000D000000000180000070000035F00212200005C
:1000E000F4000018222000A00001001008ED00E03C
:1000F00000000000000000000000000074B24E7A12
:1001000000200420F7010010CB010010CD010010E9
:10011000C9010010C9010010C9010010C901001077
:10012000C9010010C9010010C9010010CF01001061
:10013000C9010010C9010010D1010010D301001045
:10014000C1010010C1010010C1010010C101001067
:10015000C1010010C1010010C1010010C101001057
:10016000C1010010C1010010C1010010C101001047
:10017000C1010010C1010010C1010010C101001037
:10018000C1010010C1010010C1010010C101001027
:10019000C1010010C1010010C1010010C101001017
:1001A000C1010010C1010010C1010010C101001007
:1001B000C1010010C1010010C1010010C1010010F7
:1001C000EFF30580103800BE00BE00BE00BE00BECA
:1001D00000BE00BEF2EB88714887011074870110E1
:1001E0003802001090A31AE71E481F49086006C88D
:1001F00081F3088810471D480068002801D019487D
:10020000F3E70DA40ECC002902D000F012F8F9E7B4
:100210001749184A002000E001C19142FCD116495B
:100220008847164988471649884700BEFDE701C937
:1002300001C29A42FBD3704774870110C0000020AE
:10024000F8180020AC9F01100000042000000420DA
:10025000AC9F0110001004200010042000000000DA
:10026000704700000000000008ED00E0000000D032
:10027000F818002044300020497C0010112500109F
:10028000097C0010F8B5C0460448054B10B5834200
:1002900003D0044B002B00D0984710BDF818002065
:1002A000F81800200000000006480749091A8B10C2
:1002B000C90FC91810B5491003D0044B002B00D04A
:1002C000984710BDF8180020F81800200000000022
:1002D00010B5074C2378002B09D1FFF7D5FF054B4C
:1002E000002B02D0044800E000BF0123237010BDA2
:1002F000401D00200000000088430110054B10B590
:10030000002B03D00449054800E000BFFFF7CCFFF5
:1003100010BDC04600000000441D002088430110AD
:10032000F0B54546DE4657464E46E0B51F00182359
:10033000984604008BB080440D0016004146082208
:10034000684606F023F82000226963690BF03CF947
:10035000002800D0F0E0002F00DAE5E0149B002B2D
:1003600003D01A00DB680133D360002D00D1F2E026
:100370002B7F002B03D12A6A6B6AB6185F41414676
:10038000082268460296039706F000F8226963691E
:1003900006A80AF08FFE069B20009B46079B9A4604
:1003A000089B9946AB6A0593EB6A04930BF0C2F97C
:1003B0003023149A8561C261EB5C8046002B59D1D1
:1003C000049B002B67DB2B7F002B15D1A86BE96BFF
:1003D000002803D180231B0699420DD0059A049B67
:1003E0000AF004FE07000E00514500DDBBE000D11D
:1003F000B6E0BB4500D1C3E05B46069353462100FF
:1004000007934B46102210316846089305F0BEFF53
:10041000099B0799089A06980AF030FE4342584112
:1004200081444B46102206A94046089305F0AEFFD2
:100430000822684608A905F0A9FF2000069A079B34
:100440000BF0C2F8002866D12800102206A9383027
:1004500005F09CFF4146A06C0CF0E0FE606F431C71
:1004600000D571E063670BB0F0BCBB46B246A9464D
:10047000A046F0BD0AF07AFE80197941236A9B46B6
:10048000636A9A46994261DD83468A46002399460B
:10049000049B002B97DA5B460693534607934B4623
:1004A00006A910224046089305F070FF4146A06C53
:1004B0000CF0B8FE00289FD04E464746A8465D4641
:1004C00001365346102206A9380007930896069570
:1004D00005F05CFF3900A06C0CF0A4FE013600288A
:1004E000EFD10822684608A905F050FF2000069ABF
:1004F000079B4546B8460BF067F800280BD128004B
:10050000102206A9383005F041FF3900A06C0CF02C
:1005100085FE0020A7E714980CF02EF92000414634
:100520000BF03CFA00209EE732003B0036480CF00E
:10053000A5FF0026002711E714980CF01DF9334899
:100540000CF09CFF00208EE701238BE799429DD1A0
:1005500058459BD998E714980CF00EF9002082E7D3
:10056000584500D845E74823EB5C022B29D0032BE4
:100570000FD0012BCFD00023BB46B24699463BE7B4
:10058000B24500D038E7059B049A134300D033E707
:10059000E9E720000BF0CEF82900060010223831E0
:1005A000856105F0F3FE3100A06C0CF03BFE011EEE
:1005B00002D0A06C0CF042FE310020000BF0EEF9EE
:1005C0001AE720000BF0B6F82900814638311022D6
:1005D000856105F0DBFE4946A06C0CF023FE002887
:1005E0000CD014990BF00EFA414620000BF0D6F90E
:1005F000200049460BF0D2F9002034E7494620009C
:100600000BF0CCF9B7E7C046B043011088430110A6
:1006100070B50500032304002C35436528000CF059
:1006200015FAA36B002B05D001222800616D0BF099
:10063000D7FFA06370BDC04670B50300050001225E
:10064000040084335C351A7028000CF0FFF9A36EA7
:10065000002B06D0842301222800E1580BF0C0FFB4
:10066000A06670BD70B5030005000122B4338C355F
:100670001A70040028000CF0E9F9EB68002B06D092
:10068000B42301222800E1580BF0AAFFE86070BDF6
:10069000A420F8B580000AF021FF022388225B42E3
:1006A00083658350303283500023C0211032835041
:1006B000304A94244250C4229025805040328350C6
:1006C000043283502C4A543142500431435018397B
:1006D000FF3964000151294C6D00445192240226D7
:1006E0006400005140340351043403510C3402516E
:1006F0000434035110340651214C60354451C22456
:100700006400005140340351043403510C3402514D
:10071000EC22802500245200835040322D0682189E
:100720001460556007008822213792008350FF37FC
:1007300010328750603704328750043A87183C3AA9
:100740008750043286500432815474328218146007
:1007500055609E22920083500200A223C0329B006B
:10076000C250C2183C3BC2500433C1500433C15480
:10077000F8BDC04611060010F843011039060010FC
:1007800065060010B023F0B5D6469A4630334F4682
:10079000994630334646984603000122D8338244B6
:1007A000C0B50500070006001A70040081448044AB
:1007B00050460CF04BF95346DB6841377136A13592
:1007C000FF37FF36FF35002B07D0D8230122E15831
:1007D00050460BF005FF5346D86023000022093332
:1007E000FF331A7048460CF031F94B46DB68002B9A
:1007F00008D084235B00E158012248460BF0F0FE4C
:100800004B46D86000234246404693620CF01EF9E6
:100810004346DB68002B08D09C235B00E158012293
:1008200040460BF0DDFE4346D86000233800BB6233
:100830000CF00CF9FB68002B07D0B4235B000122FD
:100840003800E1580BF0CCFEF860144B3000B36276
:100850000CF0FCF8F368002B07D0CC235B000122DE
:100860003000E1580BF0BCFEF0600D4B2800AB628D
:100870000CF0ECF8EB68002B07D0E4235B000122BE
:100880002800E1580BF0ACFEE860064807F0A4FB36
:10089000E0BCBA46B146A846F0BDC046FC430110D4
:1008A0000444011010440110F8B5070003000022B1
:1008B00006000500D833B0371A70040038000CF079
:1008C000C5F8FB687136A135FF36FF35002B06D021
:1008D000D82301223800E1580BF082FEF860124B59
:1008E0003000B3620CF0B2F8F368002B07D0CC23D1
:1008F0005B0001223000E1580BF072FEF0600B4B00
:100900002800AB620CF0A2F8EB68002B07D0E423C0
:100910005B0001222800E1580BF062FEE860044809
:1009200007F05AFBF8BDC046FC43011030440110EB
:100930003844011010B5024807F04EFB10BDC04608
:1009400048440110D723DB00F0B5C6469846C36F74
:100950000600996A00230500070000B50400416302
:10096000836383878044214807F0BEFB7136204BA8
:10097000FF36B36230000CF069F8F368A135E03758
:10098000FF35002B07D0CC235B0001223000E1585B
:100990000BF026FEF060230001220933FF331A70AA
:1009A00038000CF053F8FB68002B07D084235B0061
:1009B00001223800E1580BF013FEF8604346012293
:1009C00063622823E2540B4B2800AB620CF03EF824
:1009D000EB68002B07D0E4235B0001222800E158DC
:1009E0000BF0FEFDE86080BCB846F0BD7444011019
:1009F000FC43011090440110F0B5036CC26A1B8DDA
:100A00000400012587B09A4200DB0025EDB29A422E
:100A100003DA3C23E35C002B03D03C23E55407B00E
:100A2000F0BD2600A36B01AF01337136FF36A3631F
:100A30001421234A380007F039F83000B7620CF06F
:100A400005F8F368002B07D0CC235B0001223000AF
:100A5000E1580BF0C5FDF060A16B1A4807F044FBAC
:100A60002300260000220933FF33E0361A703000DD
:100A70000BF0ECFFF368002B07D084235B0001220E
:100A80003000E1580BF0ACFDF060DA23DB00E31836
:100A90006362012228232600E254A1360A4BFF3666
:100AA000B36230000BF0D2FFF368002BB5D0E42323
:100AB0005B0001223000E1580BF092FDF060ACE7E2
:100AC0009C440110A4440110C8440110F0B54746ED
:100AD000CE460600050080B5036C0400C76A0120FD
:100AE0001A8DD98D90469A8D5B8D11364135814690
:100AF00087B0FF36FF359F4201DB97422DDA802217
:100B000012069446236B30006344B3620BF09EFFE1
:100B1000F368002B07D09C235B0001223000E158D2
:100B20000BF05EFDF060236B2800AB620BF08EFFD4
:100B3000EB68002B07D0B4235B0001222800E158AA
:100B40000BF04EFDE8604B46002B01D0474509DA1B
:100B500007B0C0BCB946B046F0BD01238F424FDAA2
:100B60009946CCE7284807F037FA0023A3872300EB
:100B7000250001220933FF33E0351A7028000BF0FD
:100B800065FFEB68002B07D084235B00012228005F
:100B9000E1580BF025FDE860DD23DB00E31863621C
:100BA000012228232500E25401AE7135A36BFF35E5
:100BB0001421164A300006F079FF2800AE620BF0CF
:100BC00045FFEB68002B07D0CC235B0001222800F7
:100BD000E1580BF005FDE86025000D4BA135FF3510
:100BE000AB6228000BF032FFEB68002BB0D0E4239F
:100BF0005B0001222800E1580BF0F2FCE860A7E757
:100C0000002399467BE7C046D44401109C44011060
:100C1000FC440110F0B5C64600B5016CC36A0A8DEC
:100C20000400012686B0934200DB0026088E0125D1
:100C3000F6B2834200DB0025EDB2934253DA3C2347
:100C4000E35C002B4FD101A98846A36B2700013339
:100C50001421294AA363404606F028FF4346713712
:100C6000FF37BB6238000BF0F1FEFB68002B07D0AA
:100C7000CC235B0001223800E1580BF0B1FCF86096
:100C8000A16B1E4807F030FA230027000022093329
:100C9000FF33E0371A7038000BF0D8FEFB68002BEA
:100CA00007D084235B0001223800E1580BF098FC48
:100CB000F860E023DB00E3186362012228232700A9
:100CC000E254A1370E4BFF37BB6238000BF0BEFE7B
:100CD000FB68002B07D0E4235B0001223800E158B9
:100CE0000BF07EFCF8603C23E6540133E55406B07B
:100CF00080BCB846F0BDC0469C44011008450110B8
:100D00002C450110F0B54746CE4680B5036C040073
:100D100006000500188E9A8D80460120D98DE76A5D
:100D20005B8D11364135814687B0FF36FF359F42D6
:100D300001DB97422DDA236B3000B3620BF086FEA5
:100D4000F368002B07D09C235B0001223000E158A0
:100D50000BF046FCF060802212069446236B2800BC
:100D60006344AB620BF072FEEB68002B07D0B42338
:100D70005B0001222800E1580BF032FCE8604B4692
:100D8000002B01D0474509DA07B0C0BCB946B046D0
:100D9000F0BD01238F424FDA9946CCE7284807F08F
:100DA0001BF90023A3872300250001220933FF3309
:100DB000E0351A7028000BF049FEEB68002B07D0D5
:100DC00084235B0001222800E1580BF009FCE86055
:100DD000E323DB00E3186362012228232500E254A9
:100DE00001AE7135A36BFF351421164A300006F0B1
:100DF0005DFE2800AE620BF029FEEB68002B07D0E9
:100E0000CC235B0001222800E1580BF0E9FBE860ED
:100E100025000D4BA135FF35AB6228000BF016FE07
:100E2000EB68002BB0D0E4235B0001222800E158DE
:100E30000BF0D6FBE860A7E7002399467BE7C046A6
:100E4000384501109C4401106045011070B5026CDA
:100E5000C36A118D040086B08B420BDD518D8B422D
:100E600008DD918D8B4205DDD18D8B4202DD128E26
:100E7000934201DC06B070BD030005000022093377
:100E8000FF33E0351A7028000BF0E0FDEB68002B13
:100E900007D084235B0001222800E1580BF0A0FB5F
:100EA000E860250000231135FF35AB6228000BF008
:100EB000CDFDEB68002B07D09C235B0001222800AE
:100EC000E1580BF08DFBE860250000234135FF352C
:100ED000AB6228000BF0BAFDEB68002B07D0B423FF
:100EE0005B0001222800E1580BF07AFBE860E62362
:100EF000DB00E3186362012228232500E25401AEDF
:100F00007135A36BFF351421144A300006F0CEFD75
:100F10002800AE620BF09AFDEB68002B07D0CC23C3
:100F20005B0001222800E1580BF05AFBE860250025
:100F30000B4BA135FF35AB6228000BF087FDEB684A
:100F4000002B07D0E4235B0001222800E1580BF0BE
:100F500047FBE860034807F03FF88BE76C4501105A
:100F60007C45011084450110F8B5E920DE4657465E
:100F70004E464546C000E0B50AF0B0FA03004833DB
:100F800003643C33C367A823EC22C066C05000232F
:100F9000E82152008350E04A49004250EA225200C0
:100FA000805040328350DD4D043283500C328550E6
:100FB0000432835001228C2468314250D849A40065
:100FC00001518D218900405040314350043143503C
:100FD0000C3145500431435002218A46A621544623
:100FE00089004450A424CF49A4000151A5218900BF
:100FF000405040314350043143500C314550D421CE
:101000000327C90041185834015110340751BC2737
:10101000C54CBF00C451BD24A4000051403403514D
:10102000043403510C340551D724E4000719D224A9
:10103000A40007510424A346D6245E46D427A40066
:101040000651BA4CBF00C451D524A400005140340D
:101050000351043403510C340551DA24E400A4464E
:10106000EA2484446746A40007510524A446EE24DC
:101070006746A4000751EC27AD4CBF00C451ED24D6
:10108000A40000514034035104340351A94C0551CC
:10109000DD24E400A046812480444746E400075153
:1010A0000627103407518227A34CFF00C451A34CDC
:1010B0000051A34C035104340351A24C0551E024C8
:1010C000E400A0468D2480444746E40007510727EA
:1010D000103407518E279C4CFF00C4519B4C00518B
:1010E0009B4C0351043403519A4C0551E324E40012
:1010F000A046992480444746E4000751082710344D
:1011000007519A27944CFF00C451944C0051944CC1
:10111000035104340351934C0551E624E4000519AE
:10112000A524E40005514034A046802580440024D5
:1011300047462D063C607D60AE27FF00C3518C27DB
:10114000BF00B946B0278144FF004E46B9468144EE
:10115000C6514F46844E875104368251834E825584
:10116000E8267600B146BB2681444F46F6008751FB
:10117000183EB0468044464634607560B926F60095
:1011800083511036B14681444F46794E875104361B
:101190008251784A784F83547432821814605560B3
:1011A000C422D2008350BC2292009046C6228044C2
:1011B0004646D2008650D42292009046804446464D
:1011C0006E4A8650EC2292009046C72280444646E2
:1011D000D20086508222D200904680444646684A19
:1011E0008650CD3AFF3A904680444646D132FF328F
:1011F0008650103A904680444646624A865066467B
:10120000043286505646183A8650A032821814602E
:101210005560D122D2008350A42292008418D32298
:10122000D2008450C93AFF3A8418574A574D845027
:10123000043A8418564A84505C4604328650183A60
:1012400084500200D4241832E4000251514C44511D
:10125000D524E40000250619002434607560D626E4
:10126000F6008355083682514B4EC651D826F600FB
:10127000861934607560D926F60083550836825188
:10128000464F474EC651DB26F6008619346075601E
:10129000DC26F600835508368251424F424EC65135
:1012A000DE26F600861934607560DF26F600835569
:1012B000083682513D4F3E4EC651E126F600861952
:1012C00034607560E226F600835508368251394F46
:1012D000394EC651E426F600861934607560E5265D
:1012E000F600835508368251344A354E8251E72242
:1012F000D200821814605560E822D200835428225C
:101300008361C161016243628354F0BCBB46B24653
:10131000A946A046F8BDC04685070010F843011055
:10132000A908001045090010F9090010CD0A0010A5
:10133000150C001004040000050D0010140400003A
:1013400054040000640400004D0E001074040000FA
:10135000B4040000C404000035090010D4040000E7
:101360001405000024050000440500004C050000A1
:101370009C050000A4050000BC0600003406000027
:101380003C060000F40500009C060000A4060000D6
:101390005C060000944501109C450110D406000035
:1013A000AC450110EC060000EC44011004070000FD
:1013B000B84501101C070000C84501107C4501100C
:1013C000340700008C23C258643BD35C4C22835406
:1013D000002B02D00023836443647047F8B5DE46D7
:1013E00057464E4645464C22E0B5825C0400036DEC
:1013F000002A00D1E1E05A8D188D92469A8D276C13
:101400009146DA8D1B8E90469B46874200DADAE0E1
:1014100000252E1C57450DDA504604F075FE011CC0
:101420008246301C04F00FFE5146061C281C04F0B6
:101430000DFE051C4F4510DA484604F065FE0021FC
:10144000814604F01AFE011C301C04F0FFFD4946E1
:10145000061C281C04F0FAFD051C47450DDA404621
:1014600004F052FE011C8046301C04F0EFFD4146A2
:10147000061C281C04F0EAFD051C5F4510DA5846DE
:1014800004F042FE011C071C04F0E0FD011C301CAE
:1014900004F0DCFD391C061C281C04F0D7FD051CDB
:1014A000C023FE21984627008905281CA044F03758
:1014B00004F012FE002800D098E0291C301C04F033
:1014C000C8FDA16C061C04F0C1FD5249051C04F0C6
:1014D00011FE002800D087E04F49281C04F0FCFDD5
:1014E000002800D04C4DE16AA564301C04F0C5FD15
:1014F000216B8146281C04F0C0FD011C484604F005
:10150000A5FD616C051C301C04F09DFD616B04F0B1
:10151000B4FD011C281C04F099FD6664A66B011C37
:101520008146301C04F092FD4946051C301C04F035
:101530008AFDE66B8246291C301C04F0CDFD002894
:1015400000D0351C80231B069C46B4446046291CF1
:10155000E14604F0CFFD002800D04D465146301C36
:1015600004F0BAFD002800D156464846311C04F06C
:10157000C1FD002800D1B146434640469D620BF0B4
:1015800065FA4346DB68002B07D0E8230122E158C7
:1015900040460BF025F84346D8604B46BB62380006
:1015A0000BF054FAFB68002B07D08C235B00012260
:1015B0003800E1580BF014F8F860F0BCBB46B246B6
:1015C000A946A046F8BD04F09FFDC0210906051CF0
:1015D00004F053FD002104F039FD0021061C281CF5
:1015E00004F034FD051C15E70A4D7CE70023424654
:1015F000404693620BF02AFA4346DB68002B07D083
:10160000E8230122E15840460AF0EAFF4346D86049
:101610000023C3E700002041000020C1A42070B5D2
:10162000800009F05BFF03000200583303658C2340
:101630009432C067C2502C339422C05000239021B2
:1016400052008350274A490042509222C424C025A8
:1016500052008050403283502349043283500C3270
:10166000815004328350783AFF3A640002511F4C93
:101670006D004451C22464000051403403510434CD
:1016800003510C340151EC218025002449004350C2
:1016900040312D0641180C604D60060088218136CE
:1016A00089004350FF361031465046183C394650A9
:1016B00002260431425018394650903141180C60CE
:1016C0004D609E21890043500100A22321319B00DF
:1016D000FF31C150C1183C3BC1500433C250183BCC
:1016E000C25070BDC5130010F8430110DD13001087
:1016F00080235B00C258D83BD25C0433C25470478D
:101700002C2370B5C35C0400026B456E002B05D121
:10171000137D002B17D12B7D002B00D170BD26002F
:10172000AB6A6536FF36B36230000BF08FF9F368B1
:10173000002BF3D0C6235B0001223000E1580AF0F1
:101740004FFFF060EAE70600936A3536FF36B36272
:1017500030000BF07BF9F368002BDCD0AE235B008C
:1017600001223000E1580AF03BFFF060D3E7C046A9
:10177000982370B5C2583433C558A03BC35C0400ED
:10178000002B05D0137D002B17D12B7D002B00D112
:1017900070BD2600AB6A6536FF36B36230000BF0D1
:1017A00055F9F368002BF3D0C6235B00012230000B
:1017B000E1580AF015FFF060EAE70600936A353653
:1017C000FF36B36230000BF041F9F368002BDCD038
:1017D000AE235B0001223000E1580AF001FFF06007
:1017E000D3E7C046F0B58E20C646C00000B509F06C
:1017F00075FE0300383303633433436602009023DD
:10180000C065A032C0500833C2502C33C0503432AF
:101810000833C2502C33C05034320833C2502C33FA
:10182000D022C0500023CC2152008350514A49009D
:101830004250CE228024FC255200805040328350FA
:101840004D49043283500C32815004328350F03AB7
:10185000FF3AA4000251494C6D004451FE2464003B
:10186000005140340351043403510C340151F73D0D
:1018700004340351FF3D103405519625404CAD0012
:1018800044519724A40000514034035104340351BF
:101890000C340151AC218025002489004350403193
:1018A0002D0641180C604D600600BE21F9368900F6
:1018B0004350FF361031465047183C3947500431E9
:1018C000AE2742500421BF00C1519037C7193C6078
:1018D0007D60D427BF00C3511037C6513E00C719E1
:1018E0003C3E875104368251183E8151903686190C
:1018F00034607560EA26B6008351513EFF3EEE2704
:10190000B046BF008044BC4646468444C651664645
:101910003C3FC651FE260437C251B600183FC151A4
:1019200087193C607D6080274646FF00C351103711
:10193000C6513E00C7193C3E875104368251183EBD
:1019400081518A21C90041180C604D608B21C9006A
:10195000435001008D239931DB00FF31C150C11884
:10196000084BC1500433C250183BC25080BCB8462B
:10197000F0BDC046F1160010F84301100117001029
:10198000711700102C0400009423F0B5C76AC558E5
:101990003433C4583B7D066E83B0002B0CD1337DAD
:1019A000002B1AD12B7D002B28D1237D002B36D183
:1019B0000CF0F0FD03B0F0BD0023802200210020D8
:1019C000009310330CF04EFD012300220021B86A71
:1019D0000CF0F4FA337D002BE4D000238022102198
:1019E0000020009310330CF03DFD01231022002154
:1019F000B06A0CF0E3FA2B7D002BD6D000238022B6
:101A000020210020009310330CF02CFD0123202214
:101A10000021A86A0CF0D2FA237D002BC8D0002345
:101A2000802200933021002010330CF01BFD012395
:101A300030220021A06A0CF0C1FAB9E7084B10B5BA
:101A40001A78002A00D010BD01321A700CF034FA56
:101A500004480CF02BFA00200CF03AFAF3E7C046E9
:101A600035300020B8670110F0B5DE20C646800092
:101A700000B509F033FD03003433C3623433036629
:101A800002008C2380659C32C0500833C2502C3336
:101A9000C05034320833C2502C338422C05000234B
:101AA000802152008350464A490042508222B42489
:101AB000B025520080504032835042490432835056
:101AC0000C32815004328350583AFF3A640002517C
:101AD0003D4C6D004451B224640000514034035128
:101AE000043403510C340151DC21441C490043509F
:101AF000FF3458314450010080250024F9312D066F
:101B0000FF310C604D608021890043501031461830
:101B10003C39465004314250043143547431411829
:101B20000C604D60962189004350B03E1031465004
:101B300047183C3947500431862742500421BF00E2
:101B4000C1519037C7193C607D60AC27BF00C351BD
:101B50001037BC46844488466146C6513C3FC1515B
:101B600041460437C251183FC151C021890047186E
:101B70003C607D60C227BF00C3511037BC4684441F
:101B80006146C6513C3FC15141460437C251183FDE
:101B9000C151D621890047183C607D60D824A4003B
:101BA0000351DC239B00C650C4183C3BC450043393
:101BB000C2504246183BC25080BCB846F0BDC04639
:101BC0003D1A0010F843011089190010036D9B6A3B
:101BD000836470478423C3589B6AC3647047C046BC
:101BE000B823F0B54E46DE4657464546C358E0B5E5
:101BF0009946EC230400C55883B0806809F0A8FA20
:101C0000A26BE36B06000F00002B11DD30003900E2
:101C1000801A9941002915DC002900D17BE0A663D8
:101C2000E76303B0F0BCBB46B246A946A046F0BD90
:101C3000002BF4D1002AF2D030003900801A9941EB
:101C40000029E9DD90235B0098464B469B6AA0443F
:101C50009A4604F083FA324904F00FFA04F08CFA41
:101C6000534600900191206C181A03F04BFE2D4A48
:101C70002D4B03F0D0FD00222C4B03F0AEFD009A5B
:101C8000019B03F0AAFD03F085FEAD6A8146606CFE
:101C9000281A03F037FE234A234B03F0BCFD002231
:101CA000224B03F09AFD009A019B03F096FD03F08E
:101CB00071FE53464946236483466564A06C04F074
:101CC000C2F94346986240460AF0C0FE4346DB68CC
:101CD000002B08D0A4235B00E158012240460AF003
:101CE0007FFC4346D8602500E06C594604F0ABF910
:101CF0005135FF35A86228000AF0A8FEEB68002BDA
:101D000000D18CE7BC235B0001222800E1580AF0D7
:101D100067FCE86083E7064B984200D87FE791E7CD
:101D20005F708930C3718BB665BCB93F0080764067
:101D30003F420F00F0B58020C646C00000B509F054
:101D4000CDFB030002005833036584238C32C06747
:101D5000C2502C33C05034320833C2502C33C050E0
:101D600034320833C250A6222C33C0501B3BFF3BF9
:101D700052008350303283500023C0210C328350F4
:101D8000474A49004250C222F424F02552008050B4
:101D9000403283504349043283500C328150043224
:101DA0008350D83AFF3A640002513F4C6D004451D1
:101DB000F2246400005140340351043403510C34C4
:101DC0000151DF3D04340351FF3D1034055190258E
:101DD000364CAD0044519124A400005140340351CD
:101DE000043403510C340151A621802500248900BC
:101DF000435040312D0641180C604D600600B8215B
:101E0000813689004350FF361031465046183C3920
:101E100046500431A82642500421B6008151903624
:101E20008619346075600700CE26E137B60083510D
:101E3000FF371036875187193C3E8751043682514F
:101E4000183E81519036861934607560E426B600DC
:101E50008351513EFF3EE827B046BF008044BC4658
:101E600046468444C65166463C3FC651F826043770
:101E7000C251B600183FC15187193C607D60FA24F9
:101E8000A4000351FE2344469B00C450C4183C3BAD
:101E9000C4500433C250183BC15080BCB846F0BD9A
:101EA000CD1B0010F8430110D51B0010E11B0010E2
:101EB000C36A70B59C6A0021201C04F013F9FE214E
:101EC000431E98416400640805008905201C04F045
:101ED00011F9002805D00748290001220CF0C8FE9E
:101EE00070BD0549201C04F0C8F804F02FF980B239
:101EF000F2E7C046FF0F000000F07F45036E70B5AB
:101F00009C6A0021201C04F0EDF8FE21431E98413C
:101F10006400640805008905201C04F0EBF8002823
:101F200005D00748290000220CF0A2FE70BD05492B
:101F3000201C04F0A2F804F009F980B2F2E7C046D0
:101F4000FF0F000000F07F4510B501200CF062FE8D
:101F500010BDC046B02070B5800009F0BFFA030084
:101F60003433C362343303668C238065A022C050AF
:101F7000002398218350384A802442509C22F8251F
:101F800080504032835004328350344A543142509E
:101F9000043143506400EF390151314C4451FC2469
:101FA000005140340351043403510C3402510434C1
:101FB0000351F63D103405512A4C5735FF35445135
:101FC000AE246400005140340351043403510C34F6
:101FD0000251D82204005200835098345832845061
:101FE000020080250024F1322D06FF321460556076
:101FF000FC2252008350103286183C3A865004323C
:1020000081500432835474328218146055609422D3
:10201000113E92008350FF3E1032865086183C3AA3
:1020200086500432842681500422B60082519036B4
:10203000861934607560AA24A40003510400AE23FD
:1020400059349B00FF34C450C4183C3BC450043383
:10205000C150183BC25070BD491F0010F843011019
:10206000B11E0010FD1E0010F0B5C646836B0400C3
:102070009E6A416B00B50700301C03F0E7FF942314
:10208000E16A051C6063301C984603F0F6FF216B83
:10209000061C281C03F0F1FF011C301C03F0D6FFC6
:1020A00043466C37E05038000AF0D0FCA36F002B99
:1020B00006D0434601223800E1580AF091FAA067A1
:1020C00080BCB846F0BDC046AC2070B5400009F0F9
:1020D00005FA030040338363A8220023A021406651
:1020E0008350134A80254250A422805040328350AE
:1020F000043283500F4A54314250F8228350020078
:10210000002439322D06FF3214605560A02252009F
:10211000835002005133FF33A032C250C2183C3BFF
:10212000C25001220433C250183B0332C25070BD6A
:1021300069200010F8430110F8B5CE464746050067
:1021400006008021224A040080B5D0689035000640
:10215000000F60360130490053680B42FCD1013852
:10216000176A0028F8D18021D068194A0004000FAE
:102170007F420130890053680B42FCD10138536A19
:102180000028F8D15B42984688233000E7509946F2
:102190000AF05CFCE36E002B06D04B4601223000B7
:1021A000E1580AF01DFAE06643462800AB620AF0E7
:1021B0004DFCEB68002B06D0B82301222800E15823
:1021C0000AF00EFAE860C0BCB946B046F8BDC04699
:1021D00000002050F0B5D6464F4646460025C0B513
:1021E0003D4C8AB020003D4908F08EFC02230822B5
:1021F00000212000009508F0B3FD002201210820F5
:1022000001F02AFC00220121092001F025FC802692
:10221000F827C02376021B037F0202A9102206A81A
:102220009A46049302960397059504F0AFF82C4B59
:1022300006A9102202A89946079304F0A7F8802364
:10224000DB020593274B0022039380231B03984650
:102250000493002102AB200008F0DCFD012223687A
:102260000121134323602000022300950B3208F064
:1022700077FD002201210C2001F0EEFB002201215C
:102280000D2001F0E9FB534602A9102206A8049391
:1022900002960397059504F079F84B4606A910229B
:1022A00002A8079304F072F8C023DB0205930E4BDB
:1022B00000220393434601210493200002AB08F05F
:1022C000A9FD02222368134323600AB0E0BCBA468A
:1022D000B146A846F0BDC04600002050CC510110C8
:1022E00080770100807701088077010C8C2070B521
:1022F000800009F0F3F803003433C362C8220023DE
:10230000C02180658350274A94244250C4229025DE
:102310008050403283502449043283500C32815023
:1023200004328350183AFF3A640002511F4C6D008A
:102330004451922464000051403403510434035149
:102340000C340151BC21040049004350C0345831C1
:102350004450010080250024B9312D06FF310C6066
:102360004D600600E021D13649004350FF362C393C
:1023700046500431425004314354743141180C60CA
:102380004D6086218900435001008A2321319B0042
:10239000FF31C150C1183C3BC1500433C250183BFF
:1023A000C25070BDD5210010F84301103921001032
:1023B0002823026BD25C0433C25470472C2370B5BF
:1023C000C35C0400002B34D12D23C35C002B1CD034
:1023D0000CF056FB2000C030030019490B435B078B
:1023E0001CD18B1CC31A042B18D94A880B881204E1
:1023F0001A43CB888D881B042B430CC00B8998345F
:10240000200023860AF022FB70BD0CF001FB2000A7
:10241000C03003000B490B435B07E2D00B889834B4
:1024200023854B8863858B88A385CB88E3850B89BF
:10243000E6E70CF00DFA2D230122E254E4E7C04652
:10244000CC2F0020301B0020902070B5800009F0B8
:1024500045F8030038330363343343669023C06583
:10246000D822C0500023D0218350264A9C244250B9
:10247000D42298258050403283502349043283501F
:102480000C32815004328350283AFF3A64000251E2
:102490001E4C6D0044519A24640000514034035195
:1024A000043403510C340151C4214900435001004C
:1024B00080250024C9312D06FF310C604D60E821D4
:1024C000060049004350D0361031465046183C397A
:1024D00046500431425018394250903141180C6036
:1024E0004D608A218900435001008E2331319B00C9
:1024F000FF31C150C1183C3BC1500433C250183B9E
:10250000C25070BDB1230010F8430110BD2300106C
:1025100010B5002100200AF0BFFB10BD7047C04677
:10252000002210B501240B4B8AB01B680892079259
:102530000692039202920432059401921334013AF6
:10254000009205490022049404480AF0B5F90AB043
:1025500010BDC04614220020D8450110781A002072
:10256000014B036001207047781A0020F0B5DE4669
:1025700057464E464546E0B5A3B0FEF789F880239E
:10258000814600210022FE4D9B004B44856019606E
:102590005A60822300214A46FA489B004B44186047
:1025A0005960E132AB6FFF321A608B22494600203E
:1025B000920088500121F4482C324A441060516046
:1025C00098220020002192004A44106051608E221F
:1025D00092004A445A60A123494600229B00CA50F7
:1025E00080274B4600263F06F8331E665F661E6056
:1025F0005F6060331E665F66FEF7B6FC86230400EC
:10260000856002202900DC2540425B006051E050DB
:102610003033E0503033E0503033E0503033E0506E
:102620004D3BFF3B80466064E05020000022CB58C9
:10263000D130FF3018606263A263A287AA220191A1
:102640000121D24BD248D2002363A3180832E5629D
:1026500018605960A3180021002219605A60A62250
:102660000199D2008B6FA21882209A600022C94B78
:102670008000E250231860301E605F6023186030D5
:102680001E605F60231860301E605F60231860303A
:102690001E605F60231860301E605F60231860302A
:1026A0001E605F60231860301E605F60231860301A
:1026B0001E605F602318200098321E605F608B5898
:1026C00018305B681860FEF7A9FF019982468160A7
:1026D00002004146EC208E2311505B000020D150B7
:1026E0008C3B5165D1505146AB4B1063D362AB4A22
:1026F0000D644A635546AA4ACB638A634C23002281
:102700005935FF3548648864CA542E606F602E6660
:102710006F66FFF767F86035019DB02183468560DD
:102720000200404649005050434630315050D021BD
:102730009E3350639066D050505082225946434693
:102740005200885000222E33CA545A46D132FF32EA
:10275000166057608C2292005A4416605760A4227B
:1027600092005A4416605760FFF77EF9414643468F
:10277000016341669A31856043503431435082335E
:10278000EB58421CFF325A6003003933FF331E609E
:102790005F601E665F6601950690FFF7CBFAFC232B
:1027A00005009B05EB62FA239B052B6342468823B9
:1027B00001986A65A860EA504346BE32AB50343295
:1027C000AB50002200232A64AA63EB636A642A00E8
:1027D0000023B932FF32AB64EB6416605760862287
:1027E0009200AB1860321E605F60AB181E605F60C5
:1027F000FFF7B0FB43460100020001980B634B66F4
:102800008233C358983288609A600B00D0331E66BA
:102810005F661E605F6060331E665F660791FFF74C
:1028200053FC01000198424688609820EB6A0391AE
:10283000CB622B6B0B630B000A500020D833CA63AA
:1028400048631E605F60FFF73FFC0100EB6A019880
:10285000CB622B6B88600B63080043469821435082
:10286000002141630100D831C3630E604F600290C4
:10287000FFF73CFD424601008C2301988860CA5056
:102880000B004146BE329950424619001A6380231C
:102890000A00C358C032DA600B00F8331E605F6074
:1028A0001E665F660491FFF7CFFD03000198982133
:1028B00098601800022305224350A633C2504246B6
:1028C00034314250414603000331426382668185C0
:1028D000019009336930FF33FF301E605F6006608E
:1028E00047604F462F4B4E46FB6000277761E0372D
:1028F0008846F1514A460331012008F0D1FD0C37DA
:10290000F0514A460421012008F0CAFD043FF0516D
:102910004A460421012008F0C3FDE423A83FF050FB
:102920004F44A0260760424615974F467600BA519D
:1029300004214A460120A62708F0B2FD4E467F003A
:10294000F0514A460421012008F0AAFD043FF0514D
:102950004A4604210120A22608F0A2FD4A4676003C
:1029600090517021D0224E464746494452000160A2
:102970001691B75004214A46012008F091FD13E05A
:10298000781A00208096980000BCA0650AD7A33D65
:1029900000F2052A7C0500009A99193ECDCC4C3DE9
:1029A000CDCCCC3DE8450110AC37FF37F0514A465D
:1029B0000421012008F074FD043FF0514A4604212F
:1029C0000120D22608F06CFD494676008851053E6C
:1029D000FE4BFF3E4E440660E360F82306225B0098
:1029E00061610620E25004212200179608F058FD8C
:1029F0005437E051220004210620FC2608F050FD47
:102A00007600A05122000421062008F049FDC421CF
:102A10008C46F422A444614694463032A44466466F
:102A2000FA2394465B00A4443032E05012910160D6
:102A300061469446703BA44462469C463033A444AD
:102A40004660089666469C46A444C26006610F92A2
:102A50000996624603269C33816042610E91E650DE
:102A6000059204212200032008F01AFD9721890015
:102A7000605022000421032008F012FD96218900F5
:102A8000605022000421032008F00AFD95231299CA
:102A90009B00E050059A016009995C3341608260B7
:102AA0000421E6502200032008F0FAFCAF239B002B
:102AB000E05022000421032008F0F2FCAE239B002A
:102AC000E05022000421032008F0EAFCAD2308991D
:102AD0009B00E050059A016009995C334160826077
:102AE0000421E6502200032008F0DAFCC7239B00F3
:102AF000E05022000421032008F0D2FCC6239B00F2
:102B0000E05022000421032008F0CAFCC5230899E4
:102B10009B00E050059A01600999826041600520A0
:102B20005C332200E050042108F0BAFCDF239B0054
:102B3000E05022000421052008F0B2FCDE239B00B7
:102B4000E05022000421052008F0AAFCDD230E9AA3
:102B50009B00E050089902600F9A816042600999D9
:102B6000059A5C33C16002610421E6502200032013
:102B700008F096FCF7239B00E0502200042103207C
:102B800008F08EFCF6239B00E05022000421032075
:102B900008F086FCF523089E9B00E050059906602E
:102BA000099E8160466005205C332200E0500421CC
:102BB00008F076FC864B2200E0500421052008F046
:102BC0006FFC8723DB00E05022000421052008F081
:102BD00067FC0E9A08997F4BE050026081600F9A63
:102BE00005994260C660016105205C332200E05017
:102BF000042108F055FC784B2200E0500421052008
:102C000008F04EFC9323DB00E05022000421052055
:102C100008F046FC089A714B0E99E050026042465B
:102C200041600F995C3381600599C6600161E25093
:102C300004212200012008F033FC694B2200E050FF
:102C40000421012008F02CFC9F23DB00E05022002F
:102C50000421012008F024FC624B0996E050066034
:102C60005646614BA020F3604B46736153460026E5
:102C700040001E50023660301E509F3852460421DC
:102C8000FF3808F00DFCD62253465200985004211C
:102C90005246022008F004FCD422534652009850B9
:102CA00004215246022008F0FBFBD2225346520078
:102CB0009850D03A5244026018925A460533FF3376
:102CC00043601993494B0021D3604B465361DC2389
:102CD0005B00D1506033D6500431022008F0E0FB95
:102CE00089235A469B00D0500421022008F0D8FBCB
:102CF00088235A469B00D0500421022008F0D0FBC4
:102D000087235A469B00D050A422A43B5B44520028
:102D10005A44436014939E23026058469B00C65059
:102D2000139204215A460220A12608F0B9FB5B4603
:102D3000B60098515A460421022008F0B1FBA023A6
:102D40005E469B00F0505A460421022008F0A8FB82
:102D50009F239B00F050139E06990660244B149EFF
:102D60004660CB604B464B61902300265B00CE5003
:102D70006033CE504B46D0206B618023320002215D
:102D80001C4E40009B00EE602A50EA509F38603392
:102D9000E9502A000231FF3808F082FB9B239B0098
:102DA000E8502A000421022008F07AFB9A239B00B5
:102DB000E8502A000421022008F072FB99239B00AE
:102DC000E850313BFF3B9C4616E0C046F4450110FD
:102DD0003C040000340400009C0400009404000043
:102DE000FC040000F404000000460110104601102D
:102DF0002046011028460110AC44634603601A9334
:102E0000B2235B009C46AC446346079A43601B9325
:102E1000D660B82300265561D6506033D650603353
:102E2000D650039AFE4B5561D36013004246C0361C
:102E30009A5104211A0001201E0008F031FBCC2316
:102E40003200F0500421012008F02AFBC823320090
:102E5000F05004210120039608F022FB039AC426B7
:102E60001300803390511C93029A0360ED4B40464F
:102E7000D360C02355610421D05008F011FBCC234E
:102E8000029A0421D050012008F00AFBC823029ABC
:102E90000421D050012008F003FB029B042198512B
:102EA00080330360049E1D93DF4BE020F36033000A
:102EB0004E465E6100261E50603002361E501E00D7
:102EC0003F381A00FF3808F0EBFA3300A6267600E8
:102ED00098511E001A000421022008F0E1FA330084
:102EE000A426760098511E001A000421022008F042
:102EF000D7FA3300A226760098511E000493A43618
:102F00007433066043601F930198C84B1E96C360DC
:102F10004E46F02300224661C25042466033C25002
:102F200004210200012008F0BBFAAE23019A5B00E5
:102F3000D0500421012008F0B3FAAC23019A5B00C1
:102F4000D0500421012008F0ABFAAA21019A4900CF
:102F50005050AC3202602092484642460065C2643E
:102F6000C2674A468020AC23125048464246C250AF
:102F70004A46B02012503830135840465139186034
:102F8000FF3908F08DFA4A46EC23D358C922D20003
:102F90001860A3180360A4204A4640001358404616
:102FA0000421186008F07CFAA6214A4649005358CB
:102FB00049391860049BFF39D933FF330360D420AB
:102FC000400013584046186008F06AFAD6214A4675
:102FD0004900535842461860019BA939E933FF3331
:102FE0000360D020D4232250E4503030D23B235011
:102FF0000430245040462F33FF336030E250FF301E
:103000000433E450225030333030E45022504046F4
:103010003033E450F8302C33E250FF300433E450C6
:103020002358FF391A604046220008F039FAE35964
:1030300022001860FC2040002358F738FF38042194
:10304000586008F02DFAE35922005860FC20400037
:10305000235840460421986008F022FAE3592200E0
:103060009860FC204000235840460421D86008F0B6
:1030700017FAE3592200D860FC204000235840464C
:103080000421186108F00CFAE35922001861FC20B1
:103090004000235840460421586108F001FAE359E2
:1030A000219058618E20019F1A689137FF37176071
:1030B00080005A68504410600C908320C00058442F
:1030C00050600D90AE209A688000584410601090B7
:1030D000C420DA6880000699584410601190862058
:1030E0008C461B698000604418600A909C20219BDC
:1030F000800060441860962342469B00E3580B9082
:103100001A6004212200012008F0CAF997239621B1
:1031100042469B00E35889001860635801205A60BA
:103120000421220008F0BCF99723962142469B0017
:10313000E35889005860635801209A6004212200F6
:1031400008F0AEF997239B00E35804211A689860B1
:1031500017605B680A9F22001F600B9F01260760B3
:10316000AE27BF00E359B84602271F60AF270220F1
:1031700008F096F94246BF00E35904211860A358AD
:10318000012022005E6008F08BF94246E3590421D9
:103190005860A358012022009E6008F081F9E3598D
:1031A0000C991A6898600A9F11605B680D995160CC
:1031B0001F60C627BF00E359B84602270B992200BB
:1031C00001601F60C7270421022008F069F9424608
:1031D000BF00E35904211860A358012022005E605B
:1031E00008F05EF94246E35904215860A3580120D3
:1031F00022009E6008F054F9E3590C9F1A68986009
:103200000D9917605B680A9F51601F60DE27BF0041
:10321000E3590B99220001601E60042108E0C046BA
:10322000304601104046011050460110584601102A
:10323000012008F035F9B8460437E3592200186038
:103240004046235804215E60012008F029F9E35923
:10325000220058604046235802200421986008F05C
:103260001FF9E35922009860404623580421DE608C
:10327000012008F015F9E3592200D8604046235890
:1032800004211E61012008F00BF9E359109F1A6810
:10329000186117605A68119F0D9917609A680C9F02
:1032A00051601760DB680A9F0B991F600160F62070
:1032B00002278000235880461F60F7272200042140
:1032C000022008F0EDF8BF00E359220018604046E4
:1032D000235804215E60012008F0E2F8E35922003F
:1032E00058604046235804219E60012008F0D8F819
:1032F000E3590D991A680C9F9860176051605B68DC
:103300000A9F0B991F6001608720C00023588046E8
:1033100022001E600421012008F0C2F8FE4F2200A6
:10332000E359042118604046235801205E6008F0EC
:10333000B7F8E35922005860404623580220042180
:10334000986008F0ADF8E359220098604046235891
:103350000421DE60012008F0A3F8E3592200D860C0
:103360004046235804211E61012008F099F8E359D2
:10337000109F1A68186117605A68119F0D9917609D
:103380009A680C9F51601760DB680A9F0B991F6059
:10339000016093200227C0002358804622001F604E
:1033A0000421022008F07CF8DC4F2200E3590421BC
:1033B00018604046235801205E6008F071F8E35918
:1033C000220058604046235804219E60012008F0E6
:1033D00067F8E35922009860404623580421DE60D4
:1033E000012008F05DF8E3592200D86040462358D8
:1033F00004211E61012008F053F8E3590C9F1A685C
:10340000186117600D9F0B9957605A68109F1760DD
:103410009A68119FDB6817600A9F22001F609F2334
:10342000DB00E35801601E600421012008F038F839
:10343000BB4B5246E358042118600760E02357460F
:10344000D420FE500433FF502C33FE504000043390
:10345000FF503B58A8381E60D627FF3808F020F8E8
:1034600051467F00CB5952461860D42040000B587B
:10347000A8385E600421FF3808F012F85146CB5995
:10348000BD375860FF371B685F441F60F027BF00DF
:103490005F440760AA205F46C22340003E505B00A5
:1034A00004303F50FE500433FF508827BF00B84619
:1034B0005F4640463B585A461E600421012089273A
:1034C00007F0EEFF5946BF00CB59414618605846F9
:1034D00043585A465E600421012007F0E1FF594637
:1034E000CB597C37B846A844474658601B685A46B3
:1034F0001F60BE27BF00EF190760A02080000B5897
:1035000004211E60012007F0CBFFA1215A4689004B
:10351000535804211860A0208000135801205E60D9
:1035200007F0BEFFA1215A46890053584146586012
:103530001B682A001960A02307609A275B00EE50E1
:103540000433ED502C33EE50BF000433ED50EB59F3
:1035500004211E60012007F0A3FFB8460437EB5991
:103560002A00186040462B5804215E60012007F0B5
:1035700097FFEB5903995860029F1B684A1CFF3262
:103580001A607B1C8C27FF3303600800C823CE51D0
:1035900090219846C358405002001E608C3901208B
:1035A00007F07EFFCC230399CB580799186084233A
:1035B0008C469B00634403604346029890218046FA
:1035C000C358C651020040501E608C39012007F0DC
:1035D00067FF434641460293CC23CB5807991860B6
:1035E0009A238C469B006344036084208023049AC2
:1035F0008046D65012502C30165034339830D2506A
:10360000135848381E600421FF3807F049FFA623ED
:1036100004995B00CB580A001860A42040000B58A6
:1036200048385E600E00FF38042107F039FF049629
:103630003300A62676009B59D4265860B6001B6836
:10364000AA1958361A60AC21AB190360B8260220BB
:10365000BC23019A49009051D250535855391860F3
:10366000FF3907F01DFFAE2301995B00CB581860AE
:103670005346E133FF330360BC23DB00E3184360B0
:1036800048462C30E0672000B03008632000E0306E
:1036900003005046C35180205F4640003B5020004D
:1036A0001130FF30386320004130FF307866200051
:1036B00027007130FF300300A1370698FF37C3623F
:1036C00007665046C030020098235846C250504604
:1036D000F03003005F46CC203B5058463530FF3079
:1036E00028653030030040462B5028002130FF3041
:1036F00003000398079A83636C30D0622800029F0E
:103700005130FF30B8636C371766049F48463B0062
:1037100060331A0006E0C0463C0400009C04000030
:10372000FC040000EC235C30F862EA503B003030CF
:103730009033AB510300080098304B6603005046AD
:1037400003652364B44B159F1B6D1C9A1F61169F64
:103750009A605F611D9A179FDA609F61089A129FB5
:103760001A981899DF611A62099F0E9A18605A62B6
:103770001B98DF625963059F19990F9A58601F6360
:1037800099639A62139A1E9E1F999E640126A34F05
:10379000DA635964149A209976421A64D964002233
:1037A0003000390008F086FE4B46D033186059606F
:1037B00001223000390008F07DFE4B463133FF33E3
:1037C0001860596002223000390008F073FE4B4641
:1037D0009133FF331860596000223000390008F03F
:1037E00069FE2300E133FF33186059600122300085
:1037F000390008F05FFE90239B00E31818605960C1
:1038000002223000390008F055FEA8239B00E3187F
:103810001860596004223000390008F04BFEC023C4
:103820009B00E3181860596005223000390008F049
:1038300041FED8239B00E31818605960062230002F
:10384000390008F037FEF0239B00E3181860596038
:1038500007223000390008F02DFE8423DB00E31836
:103860001860596008223000390008F023FE9023C8
:10387000DB00E3181860596009223000390008F0B5
:1038800019FE9C23DB009C46644420606160092291
:103890003000390008F00EFE53463133FF33186014
:1038A00059600A223000390008F004FE5346913373
:1038B000FF331860596009223000390008F0FAFD22
:1038C0005B46A933FF33186059600A223000390083
:1038D00008F0F0FD82239B005B44186059600B22C6
:1038E0003000390008F0E6FD9A239B005B44186025
:1038F000596000223000390008F0DCFD069C0A22E5
:1039000023001133FF33186059603000390008F08C
:10391000D1FD23007133FF33186059600C22300051
:10392000390008F0C7FD2B009133FF331860596050
:103930000D223000390008F0BDFD2B00F133FF33BC
:10394000186059600E223000390008F0B3FD94234E
:103950009B009C4665442860696000223000390065
:1039600008F0A8FD079C10222300A83318605960B6
:103970003000390008F09EFD23000933FF33186042
:10398000596011223000390008F094FD230069339A
:10399000FF33186059600F223000390008F08AFDAB
:1039A000039B0F22B033186059603000390008F0D3
:1039B00081FD029B0022B03318605960300039004D
:1039C00008F078FD049C02222300D033186059606F
:1039D0003000390008F06EFD23003133FF331860EA
:1039E000596002223000390008F064FD019C032276
:1039F0002300E033186059603000390008F05AFDA8
:103A000023004133FF331860596023B0F0BCBB463C
:103A1000B246A946A046F0BD781A0020FFFFFF7FFE
:103A20007047C046094A83009A1810B514684022AE
:103A3000544080322240064CC000A44663441A60C1
:103A4000044B9C466044416010BDC04604C0014028
:103A500004D0014000400140074B8000C3181B68A0
:103A6000C90092000A435A400C231340034A94466B
:103A7000604403607047C04604C0014004D0014068
:103A80000123D0228340120693629361094A830086
:103A90009A1811684022514080320A400649C000FD
:103AA0008C4663441A60054B9C4605236044436082
:103AB0007047C04604C0014004D0014000400140AE
:103AC0008023DB051868000F7047C0460FB400B5AF
:103AD000084883B004F080FA049B002B07D005A9A6
:103AE0001800019104F026F8034804F075FA01204B
:103AF00004F038F860460110504C0110EFF31080CC
:103B000072B6034A1368002BFCD0BFF35F8F704777
:103B10002C0100D0BFF35F8F0022024B1A6080F3AC
:103B2000108870472C0100D070B5EFF3108C72B67E
:103B30000D4D2B68002BFCD0BFF35F8F0724CB0803
:103B4000C618C05C01230C40A3401C000440034283
:103B500007D118433070BFF35F8F2C608CF310884F
:103B600070BD1000FFF7B2FF2C0100D0F8B547463A
:103B7000CE46884680B5EFF3108C72B6214D2C6886
:103B8000002CFCD0BFF35F8F9A422CD8D4080727B3
:103B9000055D061901241740BC402C421FD00721A7
:103BA0000127894609E0D408055D06194C4639000D
:103BB0001440A1400C00294211D001329342F2D2AC
:103BC00001204042BFF35F8F00220E4B1A608CF33E
:103BD000108800280FDBC0BCB946B046F8BD2543AD
:103BE00010003570EEE7BFF35F8F00232B608CF37E
:103BF0001088012040424346002BECD00898FFF784
:103C000065FFC0462C0100D0044A1078431CDBB28B
:103C1000172B00D9102313707047C046E010002006
:103C200010B5064B064C82B00100009318221F23EA
:103C30002000FFF79BFF02B010BDC0467046011088
:103C4000482700200021044B044ABFF35F8F02C3C2
:103C50009342FAD17047C046000100D0800100D0E5
:103C6000054B064A1360064A136053609360D360A5
:103C700013615361936170478080808000E400E0AD
:103C800004E400E01F2318401E3B8340002905D0B8
:103C9000C021044A490053501360704780220149F3
:103CA0008B50FAE700E100E001228240034B1B68E1
:103CB00013405A1E9341D8B27047C04600E100E05D
:103CC00001238340014A13607047C04600E200E0D0
:103CD000064B10309B688000C358054A00209B1A91
:103CE0002F229A424041C0B27047C04600ED00E02A
:103CF000E410002070B50D00EFF3108672B60F4A85
:103D00001368002BFCD0BFF35F8F0D4B10309B6806
:103D100084001B590B4A934203D09D4201D001F00D
:103D2000B7F9074B9B681D51BFF35F8FBFF35F8FE0
:103D30000022024B1A6086F3108870BD240100D067
:103D400000ED00E0C1010010F0B557464E46DE46DA
:103D50004546E0B585B0060000911700EFF3108BE3
:103D600072B66A4A1368002BFCD0BFF35F8F002540
:103D7000674B5D579A46002D00DAA9E06B00654C51
:103D800001935B199B009846A146C1444B4652469D
:103D90009B7910361370604BB6009B6899590B1BCA
:103DA0002F2B33D95D4B994200D0ACE0019B4246AA
:103DB0009C465B4B6544AD0063535A4B0232A218DC
:103DC000043B9B1A1B05584A5B0D651913436B8016
:103DD000564B0121AB80FF23AB71009BEF71AB60B1
:103DE0004B460B4319004C4B9B689951BFF35F8FB7
:103DF000BFF35F8F0022454B1A608BF3108805B02C
:103E0000F0BCBB46B246A946A046F0BD01200A0060
:103E10008243D3798C46BB4231D84546130044498E
:103E20001B1B5B415943090D3D4B63533D4B023511
:103E30006519043B5B1B1B053B4D5B0D2B43AA46E1
:103E40004D466B800425AC465546E044131F444460
:103E50001B1B1B055B0D1D434B46997100999D80F3
:103E600099604946DF71334B01431360BBE758004B
:103E7000C01880002018C179B9422FD9020006234A
:103E8000D356002BF3DA02932B4B61460393131D99
:103E90009A4604235B429C46E14450464B461B1A1B
:103EA0001B055B0D9C46204B95719846634640462A
:103EB00003439380019B5A199200039BA418A3808B
:103EC000029B1C4AA371009B2260E771A3608AE7F2
:103ED00001F0DEF8002553465D574FE790880293C6
:103EE0004005131D9A46031561469C464046D4443E
:103EF000634604302018181AE0230005400D1B0209
:103F000018430390C5E701F0C3F84FE7240100D040
:103F10003B300020E410002000ED00E0C101001063
:103F200000A1FFFF1411002000E0FFFF01BDFFFF13
:103F3000AAAA00000148804701BD0000F0B5DE4696
:103F400057464E464546E0B50C0083B0EFF3108867
:103F500072B6634A1368002BFCD0BFF35F8F614BCE
:103F600061499A68030010339F00D55900938D4230
:103F700043D0A54254D05D4EAA1B2F2A3DD85C4B9E
:103F80009C461B689A4601231A0099468240534674
:103F900013401F2201934B46024093409A468022D1
:103FA000634650469850BFF35F8FEFF305839B46FF
:103FB000002B37D0009B5B4501D001F069F82A0047
:103FC0004B469A439068844208D177E04B005B18D7
:103FD0009B00F3189868844236D01A000621515687
:103FE0000029F3DA844255D0019B002B27D0C02250
:103FF00051463F4B5200995019603A4B9B68DD5136
:10400000BFF35F8FBFF35F8F0022354B1A6088F3D9
:10401000108803B0F0BCBB46B246A946A046F0BD2E
:104020000D00EAE72A004B469A4390688442D5D1B6
:1040300006201056130000280ADA0D0032E0802313
:1040400051462B4AD150D8E706201856002822DBCB
:1040500042001118890074188946A1689960E179B5
:10406000D971062161569971002925DBA488F11ABE
:10407000640524154C440919E0240905490D24025E
:104080002143998013181B4A9B001178F3189971EA
:104090001070A9E713005946002914D1FF3191711E
:1040A0001549918013490A789A71144A9B1B5B4108
:1040B0005A43120D0A7097E71149E2E7062010569D
:1040C00013000028C4DA0F4A0F49D21A083A5002E6
:1040D000400D014399800D4952080A43DA8083E775
:1040E000240100D000ED00E0C1010010E410002028
:1040F00000E100E03B30002001BDFFFFAAAA000064
:1041000001BD00001E11002000F0FFFF00F8FFFFBE
:1041100070B501240443EFF30581EFF3108C72B600
:10412000214A1368002BFCD0BFF35F8F1F4B0500A3
:104130001F4AED1A6D416A43120D1E4D8900AE688B
:1041400052B27658A6421CD00621595691421CD034
:1041500012215956914222D01E215956914220D007
:104160002A2159560324914210D0134B19781A7002
:104170008171BFF35F8F00220B4B1A608CF31088A4
:1041800070BDAB680D4C5C50EFE70024610009196D
:1041900089005B18FF21997109499980E5E701249D
:1041A000F4E70224F2E7C046240100D0E410002026
:1041B000AAAA000000ED00E03B300020C101001081
:1041C00001BDFFFF10B5084B084C82B00100009301
:1041D000002205232000FFF7C9FC002801DB1F2374
:1041E000181A02B010BDC0468C46011041300020A4
:1041F00070B504000E001500FFF706FD0100200059
:1042000000F006F8A680E580BFF35F8F70BDC04662
:10421000024B9C46614489000160704740000034B5
:1042200070B5114C114DAC420FD2FF262368002B04
:104230000CD0FFF7E9FC01002000FFF7E9FFA680A2
:10424000BFF35F8F0834AC42F0D370BDFFF7DCFCE6
:1042500001002000FFF7DCFF2671BFF35F8F0834F9
:10426000AC42E3D3F1E7C046E8180020F81800207C
:1042700010B50400FFF7C8FC01002000FFF7C8FFDD
:10428000FF232371BFF35F8F10BDC04610B504003C
:104290000120FFF7C5FC034BC3189B002360BFF34D
:1042A0005F8F10BD40000034034B9C466144890081
:1042B0000160BFF35F8F7047400000340A4B1968FC
:1042C000EFF3108072B60A68002AFCD0BFF35F8F4C
:1042D0001B68BFF35F8F00221A6080F3108840BF15
:1042E000002000217047C04608300020F0B5DE46AF
:1042F00057464E464546E0B583B0EFF305820323AB
:104300001340B54A990052580091904601229A40B4
:104310009346B24B1A60B24B01935B46B14843637C
:10432000434608229B5E9946002B3ADA43469B8817
:104330001BB2002B00DB9DE043469B79002B00D095
:10434000E1E0434608241C5F002C20DB43465A6909
:1043500063001B19DB00D3189D68DC686B1C00D15F
:1043600003E1A048009984466144826A0B69AE1A51
:104370009B1A9E4213D35A46036A1A420FD0994899
:1043800000F0A8FB8C4202DCC7D18542C5D940BFF2
:1043900003B0F0BCBB46B246A946A046F0BD0D61D5
:1043A000EDE7424652695B0092464B44DB009A447B
:1043B00053469E68DF6800F08DFB8F42B6DC00D16B
:1043C000F8E0002F00DAD9E05246534654691B69E1
:1043D000019A934200D1CCE0414652460820085E43
:1043E0005288000421001043984704000D00230068
:1043F0002B4300D1C2E0002D00DBDFE030003900AC
:10440000001BA94153469860D96000229A5E002A99
:1044100000DA8BE743465D6953009C18E4002C19D1
:10442000A768E4688C4200DD80E702D1874200D9AA
:104430007CE74646328108360DE08C4200D1C6E06A
:104440001E000023F25E002A0ADB53009C18E400E1
:104450002C19A768E4689B18DB00EB188C42ECDD94
:1044600053461A804B46338043469B881BB2002B31
:1044700000DA61E743461A69EFF3108172B61368F8
:10448000002BFCD0BFF35F8F43469E88012342463A
:104490005B42938036B21369BFF35F8F00221A60CC
:1044A00081F31088002E00DA46E743465D69083341
:1044B00042469C467700BF19FF00EF19BB68604673
:1044C00098460823D15E9246FC68002907DA0EE080
:1044D000A24246D018000023C15E002906DB4B0033
:1044E0005B18DB00EB18DA68A242F1DD5246068069
:1044F0000023FE5E3980002EDCDA904643469B792D
:10450000002B00D11DE700234246937143464646E7
:104510000821595E08364B1C00D138E747468946CA
:10452000556902E006004B1C18D04B005B18DB00FD
:10453000E8180A008C46E95E43881BB2002BF1DACA
:1045400001235B42DC178360C4604A4503D031809D
:104550003B8903803A81E1464B1CE6D1B8464C4684
:10456000F2E69A684245B5D9C0E7631C00D0F8E688
:1045700005E7200023699847002825D15346424685
:104580001B8813811269EFF3108372B6116800293A
:10459000FCD0BFF35F8F4246514652880A804246A4
:1045A000494651801269BFF35F8F0021116083F388
:1045B0001088BBE6864200D803E7B7E6094800F05A
:1045C00089FA001969411DE7656824680FE7874289
:1045D00000D835E744E7C046E82F00203C7005408E
:1045E000ED4200100040054070B52E4C2569002DAD
:1045F00004D00A212C48FFF70BFE70BD2B4E03217F
:10460000300000F05DFAE660FFF7FEFA284B032267
:104610009C46D02322701B061B6801216370254B2A
:104620006044A3600F2380002061022063806369DF
:104630004942A18019800231198647311D835852A1
:1046400018315A5275325C399952183201319952E7
:104650001832013199521832013199520835183205
:104660009D52023118329952183201319952183242
:10467000013199521832013199521832013199524F
:104680001832013199520C4B0C49DC600130356213
:10469000FFF730FB01210320FFF7F4FA084B1D6000
:1046A000A7E7C0462C11002008300020004005403C
:1046B00040000034FFFF1000E82F0020ED42001002
:1046C00038600540004870472C110020F8B51F00E5
:1046D00008AB1B7804001600002B08D100F002FA8A
:1046E00032003B00121A8B41002B00DA53E02269A2
:1046F000EFF3108072B61368002BFCD0BFF35F8F0E
:104700000223E15E63694A005218D2009B18002917
:1047100037DB1A8862802269BFF35F8F002515603E
:1047200080F31088069A9E60DF601A61079A5A61CA
:104730005A8801325204520C101C002A1FD082B237
:104740005880080410432669EFF3108772B6326868
:10475000002AFCD0BFF35F8FA2881A80A180236952
:10476000BFF35F8F00221A6087F310880B4923780C
:104770008C4601329A40E36863441A60F8BD012018
:10478000DDE72369BFF35F8F00221A6080F3108892
:1047900001204042F2E70020F0E7C0463C20000044
:1047A00070B501000469EFF3108C72B62068002820
:1047B000FCD0BFF35F8F02200D5E4C69680040198A
:1047C000C0002418002D37DB208848800869BFF31B
:1047D0005F8F002606608CF31088E360638804987E
:1047E000013320615B0405985B0CA26060611A1CB8
:1047F000002B1FD093B22804628018430A69EFF39C
:10480000108C72B61368002BFCD0BFF35F8F8B88BF
:1048100023808D800B69BFF35F8F00221A608CF3B9
:1048200010880B7801329A40CB6808498C46634463
:104830001A6070BD0122DDE70B69BFF35F8F0022B4
:104840001A608CF3108801204042F2E73C200000FF
:1048500010B543890A1493421ADD53009B1842692C
:10486000DB00D3180469EFF3108C72B62268002ABB
:10487000FCD0BFF35F8F5A88090494B2090C8A42B6
:1048800008D00369BFF35F8F00221A608CF3108891
:10489000002010BD8022120214435C8001230269B3
:1048A0008371BFF35F8F002111608CF3108804497E
:1048B00002788C469340C268012062441360E8E7A6
:1048C0003C20000040787047F0B504000D0006263B
:1048D0007642F717C64636196F4100B582B08F424F
:1048E00014D811D000F0FEF832003B00121A8B41B0
:1048F000002B17DC002B47D02000290000F030F9F6
:1049000002B080BCB846F0BD8642EBD9002200233D
:1049100016001F0000F0E6F832003B00121A8B412F
:10492000002BE7DD00F0DEF832003B00121A8B416D
:10493000002B0ADB00230193154B3200009315482E
:104940003B00FFF72DFF0028D6DB00239C46B04636
:10495000114A124E736A9F4204D8B16A8845CBD976
:104960009F42C9D11168EFF3108072B60B68002B1B
:10497000FCD0BFF35F8F1368BFF35F8F6146196090
:1049800080F3108820BFE5E7002AB5D0CAE7C0460B
:10499000BD4200102C1100200830002000400540CE
:1049A00070B504000D0000F09DF8802300196941E6
:1049B0001B06994202D3012002494042FFF784FFBF
:1049C00070BDC046FFFFFF7FF0B5D6464F46464656
:1049D000C0B504000D0082B0EFF305878946002FB3
:1049E0000ED0344900204B6AAB4203D38A6A0130AF
:1049F000A24226D302B0E0BCBA46B146A846F0BDFA
:104A00002D4B9846DB689A46434650461E7800F088
:104A100061F80B00514602000436B60071582000C0
:104A20008E1A2900801A99418F4211DC0ED020BFC6
:104A3000204A0020536A4B45DCD3926A0130A242DF
:104A4000D8D25B1B5A1E9341D8B2D3E78642EED927
:104A500000F048F822002B00121A8B41002B1ADBC1
:104A600000230193154B2200009340462B00FFF7D3
:104A700097FE011E0FDD0F4B5A6A4A4517D39B6AFA
:104A8000A34212D34046FFF7E3FE0A4A0020536ACE
:104A90004B45AFD3D1E7074A0020536A4B45A9D312
:104AA000926A0120A242A5D2CBE74A45EAD120BFB3
:104AB000E8E7C046004005402C110020BD42001030
:104AC00010B5024A0248FFF72FF810BDA8460110A2
:104AD0004C2700200300416A0A00986A596A8A42FA
:104AE000FAD17047034B596A0A00986A596A914291
:104AF000FAD170470040054070B504000D00174A18
:104B0000536A1900966A536A8B42FAD13000190031
:104B100024184D41AB4216D813D0104A2B00526ACC
:104B2000954203D90D494A6A9A42FCD39A4207D169
:104B30000A4A02E0516A994202D1916AA142F9D32C
:104B400070BDA642E9D9054B5B6A1C005A1CEFD028
:104B5000012301246442E5175B42E3E7004005407E
:104B6000064A536A9942FCD807D1044B02E05A6ABC
:104B7000914202D19A6A8242F9D3704700400540BF
:104B8000F8B5040006200D0000F078F9002844D0A4
:104B9000374B3849E3185A1E934180221204944639
:104BA0005B429B0D344A9B0563441360334A136098
:104BB00018000A689043FBD12D4B314AE318594243
:104BC0004B4180215B0049000620995200F056F9C4
:104BD0002900C00000F0B4FB0130C3091ED14027FA
:104BE00001226262A362266BF30722D4E36A254B9B
:104BF0000620E51800232B60266300F03FF93900FA
:104C0000800000F09DFB7023E26A5A400E3313408F
:104C10002B601D4B23630323A364F8BD1B4A9342FF
:104C20001ED900231A4A1B4F6262A362266BF30748
:104C3000DCD5194B144AE3181A60656AA36A06208A
:104C4000AD01ED1800F01AF9144900F079FBAD023E
:104C50000100280000F074FB0021FFF74DFFC5E7BD
:104C60004006800E9F011A003F180300B9E7C046B6
:104C70000080FCBF08C0004000E0004000F00040A1
:104C8000143000202C10000001030000FEFF000083
:104C9000FFFF0000C0FF3F00303000004E0E00005C
:104CA000F8B5DE464E4657464546E0B58B4605000C
:104CB0000A991800160000F043FB0A9B6C001F02C3
:104CC000324B64199C46A4006444636881469F4249
:104CD00000D967602B1FDBB29846012B30D9C02367
:104CE00080229B01E31812011A60294BAD0059592B
:104CF0009A4600291BD17301E026226853401E40CA
:104D0000802342465B01E3181E60012A30D98023CC
:104D100080229B01E31812011A6053464A466760DD
:104D20005A51F0BCBB46B246A946A046F8BD5869E8
:104D300000F006FB013043001B18033BFDD2DAE70D
:104D40005B46012BCBD1C02303229B01E3181A60E1
:104D5000023AA3681A42FCD07301E0262268AD0033
:104D600053401E4080230A4A5B019246E3181E60AE
:104D70005A462168514003220A401A6001225B46CC
:104D80009A40A3681A42FCD0C1E7C04600800040A8
:104D900054270020F0B546464F46D646C0B51F0002
:104DA000344B44009C462418A4006444636888463D
:104DB0001600FF2B02D880235B006360031FDBB269
:104DC0009A46012B30D9C02380229B01E31812019F
:104DD0001A60294B85005959994600291BD1730146
:104DE000E026226853401E40802352465B01E318B0
:104DF0001E60012A30D9802380229B01E318120112
:104E00001A6080235B0063604B465F51E0BCBA468A
:104E1000B146A846F0BD586900F092FA013043004F
:104E20001B18033BFDD2DAE74346012BCBD1C0234D
:104E300003229B01E3181A60023AA3681A42FCD0CD
:104E40007301E0262268850053401E4080230A4AF1
:104E50005B019146E3181E604246216851400322DF
:104E60000A401A60012342469340A2681342FCD0D4
:104E7000C1E7C0460080004054270020014B80005D
:104E8000C058704754270020F8B5040021481E0080
:104E900017000D0000F054FA0100380000F050FA3D
:104EA000069B36041B031E432368002B20DB1A4B92
:104EB0001A49E3185A1E93418022920194465B429C
:104EC0001B0B174A1B0363441360164A13601F0031
:104ED0000A689743FBD1144B2560E2182123A06098
:104EE00013602368002BFCDA0823E6601360F8BD2A
:104EF0003F2322681340AB42D9D1A3681B051B0D89
:104F00008342D4D1EE22E368D2021340B342CED121
:104F1000EDE7C046001BB7000040FDBF08C00040E1
:104F200000E0004000F000400430000010B5802494
:104F30001C4BE4051C6000281AD001231A4C1843AE
:104F40001A4BDC611A4C44401C6259629862802101
:104F5000144BC9051960174817490860E021C904B6
:104F60001960002A07D18022144B12061A6010BD66
:104F70000E4BD861EBE753019B1A9B009A188023D4
:104F800012015B049A4209D213000D490B60074BD2
:104F90005A608022094BD2051A60E8E7094B1A00D3
:104FA000F3E7C04600B00540D3C007B0008005401D
:104FB0002D3FF84FFCFF01000820014000A00540F4
:104FC000D82F0020FFFFFF008023024A9B000B43E5
:104FD000D362704700800540142310B50100188883
:104FE00004331B88984710BD162310B5010018889C
:104FF00002331B88984710BDF8B54746CE4680B5AA
:105000000F1E19D0142399460433040000250126ED
:1050100098464B461888434621681B88984701C428
:10502000431E9841013540420640AF42F1D1300065
:10503000C0BCB946B046F8BD0126F8E7142370B5E8
:105040000400188804331B880D00054998470300A5
:105050000020002C01DB0130A04029009847C04609
:1050600055420000AA23064A1B0113608D235B00F2
:10507000D3600449044B19605368002BFCDA704775
:105080000040024000B0FA00006002407047C04695
:1050900010B50148FEF71AFDCC46011070B5074D5A
:1050A000074EB54209D20024013E761BB60808CD52
:1050B000984723000134B342F9D170BD4043011039
:1050C0007C430110054B064A06491A60064A074B05
:1050D0001A6010000B689843FBD1704700E0004055
:1050E000BFCDFBFE08C00040FE7F3C0000F000404A
:1050F000044BDB6C002B03D18022034BD2021A60DD
:105100007047C046000011504C201150044A054B16
:105110001A60054A1368DB018033FBD17047C04633
:10512000FFFFFF0100F0004008C000404022034B99
:105130009A675A671A67DA667047C04600F00140FE
:1051400010B5FEF77FFD10BDF8B52749274C284D57
:10515000641AA6103200302E00D9302228009200A6
:1051600001F014F9BC2C3BD830202F232C196407F4
:10517000204A801BE40F9B1B052B16D93700002CFF
:1051800002D0B300771CEA50001B33199B00410882
:10519000EB18C900C9181A605A6008339942FAD14D
:1051A000012303421CD09843C619B300EA50731C74
:1051B0002F2E15D09B00EA50B31C2E2E10D09B0032
:1051C000EA50F31C2D2E0BD09B00EA50331D2C2EE1
:1051D00006D09B00EA50731D2B2E01D09B00EA5095
:1051E000054B9D60F8BDC04600010010C0010010D5
:1051F00000000020C101001000ED00E0002310B508
:10520000294C82B0A367FFF72DFF0122274B1A60BC
:10521000636C012BFCD10322254B1A60224A936B4D
:10522000012BFCD1013300930121224A224804338F
:10523000FFF72AFE052301210093204A2048FFF7AB
:1052400023FE0022022104201E4BFFF7A3FD0022B3
:10525000012105201C4BFFF79DFD002200210720A6
:105260001A4BFFF797FD002200210820174BFFF78C
:1052700091FD8023DB000093002200210920134BC5
:10528000FFF70EFD0022104B00210620FFF782FDE4
:105290000420FFF7F3FD0E4900F052F80100002052
:1052A000FFF792FE02B010BD008000403CB000400D
:1052B00030B00040002F685900800240008C8647C3
:1052C00000C00240001BB70040597307006CDC02AD
:1052D00040420F0001480421014B184750110020A3
:1052E000F94F0010014B9B68184700005011002037
:1052F000124A936F9B0815D29066D166002905D09B
:10530000FFE7FFE7FFE7516F106F704704B580219B
:105310000906C2175140002800D0C8430EF0C8FF4C
:10532000002104BDF0B5146E556E576F166FFFF770
:10533000E3FF1466556657671667F0BD000000D09E
:10534000114A936F9B0813D210665166002905D04D
:10535000FFE7FFE7FFE7516F106F704704B50028C4
:1053600001D00020C0430EF0A3FF002104BDC046C1
:10537000F0B5146E556E576F166FFFF7E5FF1466A4
:10538000556657671667F0BD000000D094464A4A3C
:10539000926F9208624601D228E0C046F0B5464EB0
:1053A000346E756E776F366F00F020F89446424A7F
:1053B00014665566576716676246F0BD94463E4AC6
:1053C000926F9208624601D254E0C046F0B53A4E60
:1053D000346E756E776F366F00F04CF89446364A2F
:1053E00014665566576716676246F0BD002B24DBCE
:1053F00011D000293EDA00B5C943404200D1013145
:1054000000F038F8C943404200D10131DB43524239
:1054100000D1013300BD002AEBD1002801D10029C1
:1054200005D00020C90FC90701D1C043410800B50C
:105430000EF01EFF0022002300BD00B500290ADB8C
:10544000DB43524200D1013300F014F8C94340421B
:1054500000D1013100BDC943404200D10131DB43DD
:10546000524200D1013300F005F8DB43524200D133
:10547000013300BD002923D1002B18D1002A0CD004
:10548000BC460D4F38667A6600210023FFE7FFE730
:10549000FFE77A6F386F67467047002801D00748EA
:1054A000010000B50EF0E4FE0022002300BD020062
:1054B0000B00002000217047000000D0FFFFFFFF1D
:1054C000002B00D0BFE0130C28D1002AE7D080B415
:1054D000114F39667A66FFE7FFE730B4040C7B6F43
:1054E000396F1B0423433B667A66FFE7FFE7FFE75C
:1054F000C04684B27B6F3D6F1B0423433B667A66D4
:10550000FFE7FFE7C04600232C042D0C7A6F386FAD
:1055100000196941B0BC7047000000D0F0B5944656
:105520000025140E01D112020835140F01D1120109
:105530000435940F01D192000235D40F01D15200ED
:105540000135D40B0134254F7C66254C3C660E0C8E
:1055500093B2FFE7FFE7FFE73C6F6643360C770344
:10556000BE467343DF0B5B04C01AB941130C73438F
:10557000DB18C91ACE086643360CB64493B273439F
:105580001F0F1B01C01AB941130C73431F0B1B05DE
:10559000C01AB941860D8F023E436643360C092D71
:1055A00024DB520A7243801A7703460A6643360C9C
:1055B00016235B1BDE40DF40BF1964466643821B37
:1055C0007046043506330100D940A840C01900D305
:1055D0000131A24206D20023F0BD0000000000D03D
:1055E000FFFFFFFF121B0130F3D3F1E709277F1BF9
:1055F000FE406446A2B27243801A00D20139220CE6
:105600007243130C1204821A99410B007046043540
:1056100013370100F940A840801900D30131002B55
:1056200002D1A2420AD2F0BD013000D30131121BD7
:10563000FAD2013BF8D1A24200D2F0BD013000D332
:105640000131121BF7E7F0B51C0C00D080E00CB460
:1056500000251C0A04D11B02160E33431202083522
:105660001C0B04D11B01160F3343120104359C0B94
:1056700004D19B00960F334392000235DC0B02D11C
:1056800092185B4101351C00971864410134464F64
:105690007C66464C3C660E0CFFE7FFE7FFE7C04622
:1056A0003C6F6643360C7703BE4697B27743C01B08
:1056B00000D20139C01B00D201399FB27743C91B08
:1056C000C91B170C77437E04FF0B801BB941CE0822
:1056D0006643360C0C2D33DBB644120B1F053A43E0
:1056E0001B0B97B27743C01B00D201399FB277439F
:1056F000C91B170C77433E043F0C801BB941860D34
:105700008F023E43664329277F1BFE400C3D7746B0
:10571000AF40BF1930BCA2B2ABB272437343801A20
:105720009941220C7243130C1204801A9941020011
:105730000B000137001BA941F9D2781E0021F0BDF2
:105740000C277F1BFE4077467F0BAF40FF19E0E739
:1057500000245D1C07D0144F7D663966FFE7FFE724
:10576000FFE7FFE73C6F95B29EB265436643401B7F
:10577000B141150C1E0C6543664336042F0C3E43A5
:105780002D04401BB141994204D202000B002000BD
:105790000021F0BD01D19042F7D3801A9941013424
:1057A0009942F2D3F6E70000000000D0FFFFFFFFB0
:1057B00048404140484018B41B4B5B68FC4601938D
:1057C00008BD04DF835A001018B4174B1B68FC4651
:1057D000019308BD00DF8D5A00109446134A926F62
:1057E000920809D2624618B40F4BDB68FC4601935D
:1057F00008BD0CDF455D00100C4AF0B5146E556E07
:10580000576F166F6246FFF7EEFF084A146655663B
:1058100057671667F0BD18B4034B9B68FC460193AD
:1058200008BD08DFE95B0010401B0020000000D02D
:10583000FFB550404240504059404B40594000E075
:10584000FFB5154F4C00640D03D0BC4204D10C03CE
:1058500014D80020090D09055C00640D03D0BC427A
:1058600004D11C030AD800221B0D1B0501264B4046
:1058700009D44B4003D58B4200D18242FFBD9942EF
:10588000FCD19042FFBD0B43DB1803431343F5D01B
:10589000C9434918FFBD0000FF07000000B5FFF72E
:1058A000CFFF01D0002000BD012000BD00B5FFF7F3
:1058B000C7FF804100BDC04600B5FFF7C1FF01D959
:1058C000002000BD012000BD00B5FFF7B1FF01D9E8
:1058D000002000BD012000BD00B5FFF7A9FF8041F9
:1058E00000BD012040054A00121804D85A001218C1
:1058F00001D80020704701207047000000210028D7
:1059000005D17047C1174840401AFAD0C90713B5EE
:10591000064B1B6898470CBC441CA2401005120B98
:105920000349091B09051943114310BD0430002028
:105930001F04000010B54C00620D8023D218DB005C
:10594000D21A5B057E2A10DD9E3A13DACC170903C2
:10595000490819435242D140640001341532202ACB
:1059600005DAD0400843604310BD002010BD084652
:10597000604310BDC80FC018013810BD18B4044BE7
:105980005B6AFC46019308BD24DFF55E0010000051
:10599000401B002018B4044BDB6FFC46019308BD8C
:1059A0007CDF755F00100000401B0020132370B5E2
:1059B0001D78012D19D014DD1F48FFF715FB0600D7
:1059C0001E48FFF711FB1E4C80223100200000F022
:1059D000DDFC022D2DD01B48FFF7FEFA1A4B186094
:1059E00070BD1A4B164CA364F5E7184B144C23609A
:1059F0006360A360E36023616361A361E361236289
:105A00006362A362E36223636363A363E363236468
:105A10006364A364E36423656365A365E365236648
:105A20006366A366E36623676367A367E367A364AC
:105A3000D1E7064BA364CEE7534400005346000071
:105A4000401B00204C33000004300020515A00104D
:105A500007B5604601880A0A0230DF2AFAD1C9B2C6
:105A6000820804D3028840880004104300E00068E4
:105A7000014A5050039007BD401B00200FB403BCE7
:105A80000CBCF0B50124E407634000E0F0B50C0D58
:105A9000CF0F661E3605891B640503D3C9434042F8
:105AA00000D30131640D03D0661CF60A07D0E41B55
:105AB00000207F00791C89078912803C24031D0D7A
:105AC000DF0F6E1E36059B1B6D0503D3DB43524271
:105AD00000D301336D0D03D06E1CF60A07D0ED1B09
