:020000041000EA
:1000000000B5324B212058609868022188439860DF
:10001000D860186158612E4B002199600221596106
:100020000121F02299502B49196001219960352056
:1000300000F044F80222904214D00621196600F024
:1000400034F8196E01211966002018661A6600F04E
:100050002CF8196E196E196E052000F02FF8012189
:100060000842F9D1002199601B49196000215960AB
:100070001A491B48016001219960EB211966A021F2
:10008000196600F012F800219960164914480160C1
:100090000121996001BC002800D000471248134993
:1000A000086003C880F30888084703B5996A0420EC
:1000B0000142FBD001200142F8D103BD02B5186610
:1000C0001866FFF7F2FF186E186E02BD00000240BE
:1000D000000000180000070000035F00212200005C
:1000E000F4000018222000A00001001008ED00E03C
:1000F00000000000000000000000000074B24E7A12
:1001000000200420F7010010CB010010CD010010E9
:10011000C9010010C9010010C9010010C901001077
:10012000C9010010C9010010C9010010CF01001061
:10013000C9010010C9010010D1010010D301001045
:10014000C1010010C1010010C1010010C101001067
:10015000C1010010C1010010C1010010C101001057
:10016000C1010010C1010010C1010010C101001047
:10017000C1010010C1010010C1010010C101001037
:10018000C1010010C1010010C1010010C101001027
:10019000C1010010C1010010C1010010C101001017
:1001A000C1010010C1010010C1010010C101001007
:1001B000C1010010C1010010C1010010C1010010F7
:1001C000EFF30580103800BE00BE00BE00BE00BECA
:1001D00000BE00BEF2EB8871F00001101C0101109E
:1001E0003802001090A31AE71E481F49086006C88D
:1001F00081F3088810471D480068002801D019487D
:10020000F3E70DA40ECC002902D000F012F8F9E7B4
:100210001749184A002000E001C19142FCD116495B
:100220008847164988471649884700BEFDE701C937
:1002300001C29A42FBD370471C010110C00000208C
:1002400050180020AC180110000004200000042009
:10025000AC18011000100420001004200000000061
:10026000704700000000000008ED00E0000000D032
:1002700050180020542B00201547001005070010CF
:10028000D5460010F8B5C0460448054B10B583426A
:1002900003D0044B002B00D0984710BD501800200D
:1002A000501800200000000006480749091A8B106A
:1002B000C90FC91810B5491003D0044B002B00D04A
:1002C000984710BD50180020501800200000000072
:1002D00010B5074C2378002B09D1FFF7D5FF054B4C
:1002E000002B02D0044800E000BF0123237010BDA2
:1002F000881C00200000000070ED0010054B10B5B8
:10030000002B03D00449054800E000BFFFF7CCFFF5
:1003100010BDC046000000008C1C002070ED0010D5
:10032000F0B54546DE4657464E46E0B51F00182359
:10033000984604008BB080440D0016004146082208
:10034000684602F089FD20002269636907F0F0FB2E
:10035000002800D0F0E0002F00DAE5E0149B002B2D
:1003600003D01A00DB680133D360002D00D1F2E026
:100370002B7F002B03D12A6A6B6AB6185F41414676
:10038000082268460296039702F066FD22696369B7
:1003900006A807F067F9069B20009B46079B9A4634
:1003A000089B9946AB6A0593EB6A049307F05EFCE1
:1003B0003023149A8561C261EB5C8046002B59D1D1
:1003C000049B002B67DB2B7F002B15D1A86BE96BFF
:1003D000002803D180231B0699420DD0059A049B67
:1003E00007F0DCF807000E00514500DDBBE000D14E
:1003F000B6E0BB4500D1C3E05B46069353462100FF
:1004000007934B46102210316846089302F024FDF2
:10041000099B0799089A069807F008F94342584142
:1004200081444B46102206A94046089302F014FD71
:100430000822684608A902F00FFD2000069A079BD3
:1004400007F076FB002866D12800102206A9383074
:1004500002F002FD4146A06C08F074FF606F431C7F
:1004600000D571E063670BB0F0BCBB46B246A9464D
:10047000A046F0BD07F052F980197941236A9B46E6
:10048000636A9A46994261DD83468A46002399460B
:10049000049B002B97DA5B460693534607934B4623
:1004A00006A910224046089302F0D6FC4146A06CF3
:1004B00008F04CFF00289FD04E464746A8465D46B0
:1004C00001365346102206A9380007930896069570
:1004D00002F0C2FC3900A06C08F038FF0136002899
:1004E000EFD10822684608A902F0B6FC2000069A5F
:1004F000079B4546B84607F01BFB00280BD1280098
:10050000102206A9383002F0A7FC3900A06C08F0D0
:1005100019FF0020A7E7149808F028FA20004146A8
:1005200007F096FC00209EE732003B00364809F0B9
:1005300039F80026002711E7149808F017FA334815
:1005400009F030F800208EE701238BE799429DD116
:1005500058459BD998E7149808F008FA002082E7DC
:10056000584500D845E74823EB5C022B29D0032BE4
:100570000FD0012BCFD00023BB46B24699463BE7B4
:10058000B24500D038E7059B049A134300D033E707
:10059000E9E7200007F06AFB290006001022383145
:1005A000856102F059FC3100A06C08F0CFFE011EFD
:1005B00002D0A06C08F0D6FE3100200007F048FC05
:1005C0001AE7200007F052FB29008146383110223B
:1005D000856102F041FC4946A06C08F0B7FE002896
:1005E0000CD0149907F042FC4146200007F030FC83
:1005F0002000494607F02CFC002034E74946200043
:1006000007F026FCB7E7C04698ED001070ED00102B
:10061000E12110B54902064801F0BCF80221002092
:1006200000F0E4F80221012000F0E0F810BDC0461F
:1006300000400340F8B5094CA369DB060DD4102532
:10064000FF26074FA3691D42FCD1216838003140C5
:1006500004F0B0FAA3691D42F4D0F8BD0040034095
:10066000E0ED0010C42070B5400007F0EBF9224A1D
:10067000002382618024012220490362C166C06197
:10068000C3650366036702511D4CC0678467BC24C1
:100690000351043403510C340151D0214350010063
:1006A0008025002411312D06FF310C604D608C2116
:1006B00006004900435078361031465046183C3900
:1006C000465004314250113E04314254FF3E8C31B9
:1006D000465001006931FF310C604D600400B821C3
:1006E000813449004350FF342C3944500431425086
:1006F0004C32FF32835470BD11060010E8ED00103B
:100700003506001010B50021002008F05BFB10BD7D
:100710007047C046002200B5094B8BB01B68089299
:10072000079206920592049203920292013201927C
:10073000009204490022044808F0AAF90BB000BD59
:100740005C210020ECED0010D0190020014B03606B
:1007500001207047D0190020D0B5FFF783FF802219
:1007600001001D4B18319A5883601160020004008B
:1007700000210020F8321060516000211748621CEF
:100780009B6FFF3210605160283A1A60922200235A
:100790005200A3508021220000200906B0322065BB
:1007A0006165106051600E4A0126E26098220D4F8B
:1007B00076426361A3633000A3503900002207F042
:1007C000DFFF0122A062E1623000390007F0D8FFAC
:1007D000883420606160D0BDD019002040420F00F5
:1007E000FCED0010FFFFFF7F7047C046094A830001
:1007F0009A1810B514684022544080322240064CAA
:10080000C000A44663441A60044B9C4660444160A7
:1008100010BDC04604C0014004D00140004001406A
:100820008023DB051868000F7047C0460FB400B581
:10083000084883B004F036F9049B002B07D005A9C3
:100840001800019103F0DCFE034804F02BF90120AD
:1008500003F0EEFE08EE0010D4F2001070B5EFF3D6
:10086000108C72B60D4D2B68002BFCD0BFF35F8F40
:100870000724CB08C618C05C01230C40A3401C0011
:100880000440034207D118433070BFF35F8F2C60E0
:100890008CF3108870BD1000FFF7C8FF2C0100D04A
:1008A000F8B54746CE46884680B5EFF3108C72B651
:1008B000214D2C68002CFCD0BFF35F8F9A422CD8BE
:1008C000D4080727055D061901241740BC402C42B7
:1008D0001FD007210127894609E0D408055D0619C4
:1008E0004C4639001440A1400C00294211D001327D
:1008F0009342F2D201204042BFF35F8F00220E4BA1
:100900001A608CF3108800280FDBC0BCB946B046D3
:10091000F8BD254310003570EEE7BFF35F8F00236D
:100920002B608CF31088012040424346002BECD012
:100930000898FFF77BFFC0462C0100D0044A1078CE
:10094000431CDBB2172B00D9102313707047C0462D
:100950009010002010B5064B064C82B001000093A9
:1009600018221F232000FFF79BFF02B010BDC046D6
:1009700018EE00107C2600200021044B044ABFF32F
:100980005F8F02C39342FAD17047C046000100D086
:10099000800100D0054B064A1360064A136053607D
:1009A0009360D3601361536193617047808080804E
:1009B00000E400E004E400E01F2318401E3B8340F5
:1009C000002905D0C021044A4900535013607047E4
:1009D000802201498B50FAE700E100E001228240C9
:1009E000034B1B6813405A1E9341D8B27047C04650
:1009F00000E100E001238340014A13607047C046D4
:100A000000E200E0064B10309B688000C358054AA6
:100A100000209B1A2F229A424041C0B27047C04624
:100A200000ED00E09410002070B50D00EFF310868B
:100A300072B60F4A1368002BFCD0BFF35F8F0D4BCB
:100A400010309B6884001B590B4A934203D09D428F
:100A500001D001F027F9074B9B681D51BFF35F8F51
:100A6000BFF35F8F0022024B1A6086F3108870BDBF
:100A7000240100D000ED00E0C1010010F0B55746A0
:100A80004E46DE464546E0B585B0060000911700AB
:100A9000EFF3108B72B66A4A1368002BFCD0BFF3D9
:100AA0005F8F0025674B5D579A46002D00DAA9E05D
:100AB0006B00654C01935B199B009846A146C144AD
:100AC0004B4652469B7910361370604BB6009B68BC
:100AD00099590B1B2F2B33D95D4B994200D0ACE0B9
:100AE000019B42469C465B4B6544AD0063535A4BA9
:100AF0000232A218043B9B1A1B05584A5B0D65196C
:100B000013436B80564B0121AB80FF23AB71009BDD
:100B1000EF71AB604B460B4319004C4B9B689951EE
:100B2000BFF35F8FBFF35F8F0022454B1A608BF3DB
:100B3000108805B0F0BCBB46B246A946A046F0BD41
:100B400001200A008243D3798C46BB4231D8454606
:100B5000130044491B1B5B415943090D3D4B635333
:100B60003D4B02356519043B5B1B1B053B4D5B0D83
:100B70002B43AA464D466B800425AC465546E044BF
:100B8000131F44441B1B1B055B0D1D434B469971F2
:100B900000999D8099604946DF71334B0143136092
:100BA000BBE75800C01880002018C179B9422FD97E
:100BB00002000623D356002BF3DA02932B4B614637
:100BC0000393131D9A4604235B429C46E14450461E
:100BD0004B461B1A1B055B0D9C46204B9571984696
:100BE0006346404603439380019B5A199200039B3E
:100BF000A418A380029B1C4AA371009B2260E7718A
:100C0000A3608AE701F04EF8002553465D574FE791
:100C1000908802934005131D9A46031561469C4631
:100C20004046D444634604302018181AE0230005D7
:100C3000400D1B0218430390C5E701F033F84FE75E
:100C4000240100D04C2B00209410002000ED00E087
:100C5000C101001000A1FFFFC410002000E0FFFF51
:100C600001BDFFFFAAAA00000148804701BD0000A6
:100C7000F0B5DE4657464E464546E0B50C0083B01B
:100C8000EFF3108872B6634A1368002BFCD0BFF3F1
:100C90005F8F614B61499A68030010339F00D559FB
:100CA00000938D4243D0A54254D05D4EAA1B2F2AFB
:100CB0003DD85C4B9C461B689A4601231A00994616
:100CC0008240534613401F2201934B4602409340FB
:100CD0009A468022634650469850BFF35F8FEFF3E9
:100CE00005839B46002B37D0009B5B4501D000F06D
:100CF000D9FF2A004B469A439068844208D177E096
:100D00004B005B189B00F3189868844236D01A0099
:100D1000062151560029F3DA844255D0019B002B5D
:100D200027D0C02251463F4B5200995019603A4B90
:100D30009B68DD51BFF35F8FBFF35F8F0022354BA0
:100D40001A6088F3108803B0F0BCBB46B246A946CF
:100D5000A046F0BD0D00EAE72A004B469A43906892
:100D60008442D5D106201056130000280ADA0D005F
:100D700032E0802351462B4AD150D8E7062018563E
:100D8000002822DB42001118890074188946A168E6
:100D90009960E179D971062161569971002925DBA5
:100DA000A488F11A640524154C440919E0240905A6
:100DB000490D24022143998013181B4A9B00117886
:100DC000F31899711070A9E713005946002914D13E
:100DD000FF3191711549918013490A789A71144A2B
:100DE0009B1B5B415A43120D0A7097E71149E2E7DA
:100DF0000620105613000028C4DA0F4A0F49D21AF1
:100E0000083A5002400D014399800D4952080A43A7
:100E1000DA8083E7240100D000ED00E0C10100107A
:100E20009410002000E100E04C2B002001BDFFFFEA
:100E3000AAAA000001BD0000CE10002000F0FFFFB4
:100E400000F8FFFF70B501240443EFF30581EFF3D1
:100E5000108C72B6214A1368002BFCD0BFF35F8F51
:100E60001F4B05001F4AED1A6D416A43120D1E4DBE
:100E70008900AE6852B27658A6421CD00621595657
:100E800091421CD012215956914222D01E2159560E
:100E9000914220D02A2159560324914210D0134B5D
:100EA00019781A708171BFF35F8F00220B4B1A60A3
:100EB0008CF3108870BDAB680D4C5C50EFE70024DC
:100EC0006100091989005B18FF219971094999800E
:100ED000E5E70124F4E70224F2E7C046240100D04C
:100EE00094100020AAAA000000ED00E04C2B002086
:100EF000C101001001BDFFFF10B5084B084C82B0C6
:100F000001000093002205232000FFF7C9FC002800
:100F100001DB1F23181A02B010BDC04634EE0010CA
:100F2000512B002070B504000E001500FFF706FDE0
:100F30000100200000F006F8A680E580BFF35F8F77
:100F400070BDC046024B9C466144890001607047F9
:100F50004000003470B5114C114DAC420FD2FF2649
:100F60002368002B0CD0FFF7E9FC01002000FFF7FD
:100F7000E9FFA680BFF35F8F0834AC42F0D370BDA9
:100F8000FFF7DCFC01002000FFF7DCFF2671BFF358
:100F90005F8F0834AC42E3D3F1E7C046401800202D
:100FA0005018002010B50400FFF7C8FC0100200015
:100FB000FFF7C8FFFF232371BFF35F8F10BDC0464B
:100FC00010B504000120FFF7C5FC034BC3189B00BC
:100FD0002360BFF35F8F10BD40000034034B9C467D
:100FE000614489000160BFF35F8F704740000034A7
:100FF0000A4B1968EFF3108072B60A68002AFCD019
:10100000BFF35F8F1B68BFF35F8F00221A6080F30E
:10101000108840BF002000217047C046202B0020D0
:10102000F0B5DE4657464E464546E0B583B0EFF391
:10103000058203231340B54A990052580091904607
:1010400001229A409346B24B1A60B24B01935B4621
:10105000B1484363434608229B5E9946002B3ADA27
:1010600043469B881BB2002B00DB9DE043469B79E7
:10107000002B00D0E1E0434608241C5F002C20DB5D
:1010800043465A6963001B19DB00D3189D68DC686E
:101090006B1C00D103E1A048009984466144826A38
:1010A0000B69AE1A9B1A9E4213D35A46036A1A4220
:1010B0000FD0994800F028FB8C4202DCC7D1854252
:1010C000C5D940BF03B0F0BCBB46B246A946A04656
:1010D000F0BD0D61EDE7424652695B0092464B441C
:1010E000DB009A4453469E68DF6800F00DFB8F4298
:1010F000B6DC00D1F8E0002F00DAD9E052465346C2
:1011000054691B69019A934200D1CCE04146524692
:101110000820085E5288000421001043984704000C
:101120000D0023002B4300D1C2E0002D00DBDFE0E7
:1011300030003900001BA94153469860D960002255
:101140009A5E002A00DA8BE743465D6953009C18DB
:10115000E4002C19A768E4688C4200DD80E702D126
:10116000874200D97CE74646328108360DE08C4242
:1011700000D1C6E01E000023F25E002A0ADB530005
:101180009C18E4002C19A768E4689B18DB00EB1896
:101190008C42ECDD53461A804B46338043469B8895
:1011A0001BB2002B00DA61E743461A69EFF31081A6
:1011B00072B61368002BFCD0BFF35F8F43469E8846
:1011C000012342465B42938036B21369BFF35F8FBF
:1011D00000221A6081F31088002E00DA46E74346A9
:1011E0005D69083342469C467700BF19FF00EF193E
:1011F000BB68604698460823D15E9246FC68002989
:1012000007DA0EE0A24246D018000023C15E002992
:1012100006DB4B005B18DB00EB18DA68A242F1DD5D
:10122000524606800023FE5E3980002EDCDA9046AE
:1012300043469B79002B00D11DE700234246937162
:10124000434646460821595E08364B1C00D138E714
:1012500047468946556902E006004B1C18D04B00F2
:101260005B18DB00E8180A008C46E95E43881BB275
:10127000002BF1DA01235B42DC178360C4604A452E
:1012800003D031803B8903803A81E1464B1CE6D193
:10129000B8464C46F2E69A684245B5D9C0E7631CA9
:1012A00000D0F8E605E7200023699847002825D1FB
:1012B000534642461B8813811269EFF3108372B6BE
:1012C00011680029FCD0BFF35F8F42465146528817
:1012D0000A804246494651801269BFF35F8F002160
:1012E000116083F31088BBE6864200D803E7B7E6B7
:1012F000094800F009FA001969411DE7656824688A
:101300000FE7874200D835E744E7C046002B0020AE
:101310003C700540211000100040054070B52E4C77
:101320002569002D04D00A212C48FFF70BFE70BD63
:101330002B4E0321300000F0DDF9E660FFF7FEFAE6
:10134000284B03229C46D02322701B061B680121D8
:101350006370254B6044A3600F238000206102204E
:10136000638063694942A18019800231198647313F
:101370001D83585218315A5275325C3999521832BD
:101380000131995218320131995218320131995272
:10139000083518329D5202311832995218320131F3
:1013A000995218320131995218320131995218323A
:1013B000013199521832013199520C4B0C49DC60C1
:1013C00001303562FFF730FB01210320FFF7F4FA0B
:1013D000084B1D60A7E7C046DC100020202B002032
:1013E0000040054040000034FFFF1000002B0020AB
:1013F000211000103860054000487047DC100020C4
:10140000F8B51F0008AB1B7804001600002B08D1AC
:1014100000F082F932003B00121A8B41002B00DAF7
:1014200053E02269EFF3108072B61368002BFCD0F2
:10143000BFF35F8F0223E15E63694A005218D20056
:101440009B18002937DB1A8862802269BFF35F8FFF
:101450000025156080F31088069A9E60DF601A618F
:10146000079A5A615A8801325204520C101C002A01
:101470001FD082B25880080410432669EFF310870A
:1014800072B63268002AFCD0BFF35F8FA2881A8040
:10149000A1802369BFF35F8F00221A6087F3108851
:1014A0000B4923788C4601329A40E36863441A6002
:1014B000F8BD0120DDE72369BFF35F8F00221A60CA
:1014C00080F3108801204042F2E70020F0E7C04698
:1014D0003C20000070B501000469EFF3108C72B677
:1014E00020680028FCD0BFF35F8F02200D5E4C699E
:1014F00068004019C0002418002D37DB2088488080
:101500000869BFF35F8F002606608CF31088E360E4
:1015100063880498013320615B0405985B0CA2602A
:1015200060611A1C002B1FD093B2280462801843FC
:101530000A69EFF3108C72B61368002BFCD0BFF36E
:101540005F8F8B8823808D800B69BFF35F8F0022B4
:101550001A608CF310880B7801329A40CB680849E6
:101560008C4663441A6070BD0122DDE70B69BFF34E
:101570005F8F00221A608CF3108801204042F2E74E
:101580003C20000010B543890A1493421ADD530031
:101590009B184269DB00D3180469EFF3108C72B614
:1015A0002268002AFCD0BFF35F8F5A88090494B2E6
:1015B000090C8A4208D00369BFF35F8F00221A60CA
:1015C0008CF31088002010BD8022120214435C802E
:1015D000012302698371BFF35F8F002111608CF3D7
:1015E0001088044902788C469340C2680120624406
:1015F0001360E8E73C20000040787047F0B5D6461D
:101600004F464646C0B504000D0082B0EFF3058793
:101610008946002F0ED0344900204B6AAB4203D3D9
:101620008A6A0130A24226D302B0E0BCBA46B14673
:10163000A846F0BD2D4B9846DB689A464346504677
:101640001E7800F061F80B00514602000436B60027
:10165000715820008E1A2900801A99418F4211DC9E
:101660000ED020BF204A0020536A4B45DCD3926A3B
:101670000130A242D8D25B1B5A1E9341D8B2D3E7A5
:101680008642EED900F048F822002B00121A8B4156
:10169000002B1ADB00230193154B220000934046D8
:1016A0002B00FFF717FF011E0FDD0F4B5A6A4A454B
:1016B00017D39B6AA34212D34046FFF763FF0A4A3F
:1016C0000020536A4B45AFD3D1E7074A0020536A45
:1016D0004B45A9D3926A0120A242A5D2CBE74A4545
:1016E000EAD120BFE8E7C04600400540DC100020FA
:1016F000F10F001010B5024A0248FFF7AFF810BD15
:1017000050EE0010802600200300416A0A00986A0B
:10171000596A8A42FAD17047034B596A0A00986A9B
:10172000596A9142FAD170470040054070B50400F3
:101730000D00174A536A1900966A536A8B42FAD110
:101740003000190024184D41AB4216D813D0104A6E
:101750002B00526A954203D90D494A6A9A42FCD33A
:101760009A4207D10A4A02E0516A994202D1916A2B
:10177000A142F9D370BDA642E9D9054B5B6A1C00B2
:101780005A1CEFD0012301246442E5175B42E3E7D2
:1017900000400540F8B5040006200D0000F078F97F
:1017A000002844D0374B3849E3185A1E9341802211
:1017B000120494465B429B0D344A9B0563441360BC
:1017C000334A136018000A689043FBD12D4B314A0D
:1017D000E31859424B4180215B0049000620995291
:1017E00000F056F92900C00000F0AEFB0130C3093B
:1017F0001ED1402701226262A362266BF30722D426
:10180000E36A254B0620E51800232B60266300F0D1
:101810003FF93900800000F097FB7023E26A5A40DC
:101820000E3313402B601D4B23630323A364F8BDC9
:101830001B4A93421ED900231A4A1B4F6262A362BD
:10184000266BF307DCD5194B144AE3181A60656A56
:10185000A36A0620AD01ED1800F01AF9144900F052
:1018600073FBAD020100280000F06EFB0021FFF7C2
:101870005DFFC5E74006800E9F011A003F18030078
:10188000B9E7C0460080FCBF08C0004000E000404F
:1018900000F000402C2B00202C1000000103000061
:1018A000FEFF0000FFFF0000C0FF3F0030300000DF
:1018B0004E0E0000F8B5DE464E4657464546E0B5AA
:1018C0008B4605000A991800160000F03DFB0A9BA4
:1018D0006C001F02324B64199C46A4006444636888
:1018E00081469F4200D967602B1FDBB29846012BCF
:1018F00030D9C02380229B01E31812011A60294BC2
:10190000AD0059599A4600291BD17301E02622687F
:1019100053401E40802342465B01E3181E60012AAB
:1019200030D9802380229B01E31812011A605346AC
:101930004A4667605A51F0BCBB46B246A946A0462B
:10194000F8BD586900F000FB013043001B18033B51
:10195000FDD2DAE75B46012BCBD1C02303229B01EA
:10196000E3181A60023AA3681A42FCD07301E02619
:101970002268AD0053401E4080230A4A5B01924614
:10198000E3181E605A462168514003220A401A603B
:1019900001225B469A40A3681A42FCD0C1E7C046C8
:1019A0000080004084260020F0B546464F46D646CB
:1019B000C0B51F00344B44009C462418A400644466
:1019C000636888461600FF2B02D880235B006360A3
:1019D000031FDBB29A46012B30D9C02380229B0122
:1019E000E31812011A60294B8500595999460029BC
:1019F0001BD17301E026226853401E4080235246CB
:101A00005B01E3181E60012A30D9802380229B01EC
:101A1000E31812011A6080235B0063604B465F513C
:101A2000E0BCBA46B146A846F0BD586900F08CFA51
:101A3000013043001B18033BFDD2DAE74346012B7C
:101A4000CBD1C02303229B01E3181A60023AA3689A
:101A50001A42FCD07301E0262268850053401E40E4
:101A600080230A4A5B019146E3181E6042462168C2
:101A7000514003220A401A60012342469340A26863
:101A80001342FCD0C1E7C0460080004084260020FD
:101A9000014B8000C058704784260020F8B5040030
:101AA00021481E0017000D0000F04EFA010038001A
:101AB00000F04AFA069B36041B031E432368002BE2
:101AC00020DB1A4B1A49E3185A1E934180229201D7
:101AD00094465B421B0B174A1B0363441360164A70
:101AE00013601F000A689743FBD1144B2560E2186E
:101AF0002123A06013602368002BFCDA0823E66032
:101B00001360F8BD3F2322681340AB42D9D1A368CC
:101B10001B051B0D8342D4D1EE22E368D202134091
:101B2000B342CED1EDE7C046001BB7000040FDBF79
:101B300008C0004000E0004000F000400430000019
:101B400010B580241C4BE4051C6000281AD001232A
:101B50001A4C18431A4BDC611A4C44401C625962FF
:101B600098628021144BC90519601748174908600D
:101B7000E021C9041960002A07D18022144B120603
:101B80001A6010BD0E4BD861EBE753019B1A9B0006
:101B90009A18802312015B049A4209D213000D495E
:101BA0000B60074B5A608022094BD2051A60E8E7A8
:101BB000094B1A00F3E7C04600B00540D3C007B098
:101BC000008005402D3FF84FFCFF01000820014038
:101BD00000A00540F02A0020FFFFFF008023024AFA
:101BE0009B000B43D362704700800540142310B55F
:101BF0000100188804331B88984710BD162310B5C0
:101C00000100188802331B88984710BDF8B5474675
:101C1000CE4680B50F1E19D0142399460433040014
:101C20000025012698464B461888434621681B88A4
:101C3000984701C4431E9841013540420640AF42D7
:101C4000F1D13000C0BCB946B046F8BD0126F8E776
:101C5000142370B50400188804331B880D0005494F
:101C6000984703000020002C01DB0130A040290030
:101C70009847C04655420000AA23064A1B0113603C
:101C80008D235B00D3600449044B19605368002B1B
:101C9000FCDA70470040024000B0FA0000600240E9
:101CA0007047C04610B50148FEF7C0FD74EE001045
:101CB00070B5074D074EB54209D20024013E761B90
:101CC000B60808CD984723000134B342F9D170BD5E
:101CD00028ED001064ED0010054B064A06491A6015
:101CE000064A074B1A6010000B689843FBD17047F7
:101CF00000E00040BFCDFBFE08C00040FE7F3C007E
:101D000000F00040044BDB6C002B03D18022034B1E
:101D1000D2021A607047C046000011504C2011508A
:101D2000044A054B1A60054A1368DB018033FBD176
:101D30007047C046FFFFFF0100F0004008C00040B0
:101D40004022034B9A675A671A67DA667047C046A3
:101D500000F0014010B5FEF70FFE10BDF8B52749A1
:101D6000274C284D641AA6103200302E00D930229C
:101D70002800920001F070F8BC2C3BD830202F23B3
:101D80002C196407204A801BE40F9B1B052B16D9D6
:101D90003700002C02D0B300771CEA50001B331927
:101DA0009B004108EB18C900C9181A605A60083333
:101DB0009942FAD1012303421CD09843C619B300BB
:101DC000EA50731C2F2E15D09B00EA50B31C2E2E08
:101DD00010D09B00EA50F31C2D2E0BD09B00EA5034
:101DE000331D2C2E06D09B00EA50731D2B2E01D0E4
:101DF0009B00EA50054B9D60F8BDC04600010010F5
:101E0000C001001000000020C101001000ED00E042
:101E1000002310B5294C82B0A367FFF72DFF0122E4
:101E2000274B1A60636C012BFCD10322254B1A60EF
:101E3000224A936B012BFCD1013300930121224AEA
:101E400022480433FFF72AFE052301210093204A8C
:101E50002048FFF723FE0022022104201E4BFFF73B
:101E6000A3FD0022012105201C4BFFF79DFD002250
:101E7000002107201A4BFFF797FD002200210820C0
:101E8000174BFFF791FD8023DB0000930022002118
:101E90000920134BFFF70EFD0022104B00210620F6
:101EA000FFF782FD0420FFF7F3FD0E4900F04CF828
:101EB00001000020FFF792FE02B010BD008000403C
:101EC0003CB0004030B00040002F68590080024014
:101ED000008C864700C00240001BB70040597307C2
:101EE000006CDC0240420F0001480421014B1847FE
:101EF000001100200D1C0010124A936F9B0815D290
:101F00009066D166002905D0FFE7FFE7FFE7516F34
:101F1000106F704704B580210906C2175140002890
:101F200000D0C8430CF0B8FE002104BDF0B5146E1B
:101F3000556E576F166FFFF7E3FF146655665767C8
:101F40001667F0BD000000D0114A936F9B0813D2B2
:101F500010665166002905D0FFE7FFE7FFE7516FE4
:101F6000106F704704B5002801D00020C0430CF06A
:101F700093FE002104BDC046F0B5146E556E576F38
:101F8000166FFFF7E5FF1466556657671667F0BDD5
:101F9000000000D094464A4A926F9208624601D2ED
:101FA00028E0C046F0B5464E346E756E776F366FDA
:101FB00000F020F89446424A146655665767166743
:101FC0006246F0BD94463E4A926F9208624601D244
:101FD00054E0C046F0B53A4E346E756E776F366F8A
:101FE00000F04CF89446364A1466556657671667F3
:101FF0006246F0BD002B24DB11D000293EDA00B58B
:10200000C943404200D1013100F038F8C943404291
:1020100000D10131DB43524200D1013300BD002A1F
:10202000EBD1002801D1002905D00020C90FC90734
:1020300001D1C043410800B50CF00EFE0022002380
:1020400000BD00B500290ADBDB43524200D1013359
:1020500000F014F8C943404200D1013100BDC9432A
:10206000404200D10131DB43524200D1013300F044
:1020700005F8DB43524200D1013300BD002923D1D2
:10208000002B18D1002A0CD0BC460D4F38667A665A
:1020900000210023FFE7FFE7FFE77A6F386F67460D
:1020A0007047002801D00748010000B50CF0D4FDAE
:1020B0000022002300BD02000B0000200021704719
:1020C000000000D0FFFFFFFF002B00D0BFE0130C8B
:1020D00028D1002AE7D080B4114F39667A66FFE72D
:1020E000FFE730B4040C7B6F396F1B0423433B665E
:1020F0007A66FFE7FFE7FFE7C04684B27B6F3D6F7C
:102100001B0423433B667A66FFE7FFE7C0460023D4
:102110002C042D0C7A6F386F00196941B0BC7047E0
:10212000000000D0F0B594460025140E01D1120233
:102130000835140F01D112010435940F01D192001A
:102140000235D40F01D152000135D40B0134254F93
:102150007C66254C3C660E0C93B2FFE7FFE7FFE779
:102160003C6F6643360C7703BE467343DF0B5B045C
:10217000C01AB941130C7343DB18C91ACE08664361
:10218000360CB64493B273431F0F1B01C01AB941FA
:10219000130C73431F0B1B05C01AB941860D8F0228
:1021A0003E436643360C092D24DB520A7243801AE3
:1021B0007703460A6643360C16235B1BDE40DF407E
:1021C000BF1964466643821B70460435063301001E
:1021D000D940A840C01900D30131A24206D2002341
:1021E000F0BD0000000000D0FFFFFFFF121B013018
:1021F000F3D3F1E709277F1BFE406446A2B2724386
:10220000801A00D20139220C7243130C1204821A74
:1022100099410B007046043513370100F940A8407E
:10222000801900D30131002B02D1A2420AD2F0BDA5
:10223000013000D30131121BFAD2013BF8D1A24286
:1022400000D2F0BD013000D30131121BF7E7F0B529
:102250001C0C00D080E00CB400251C0A04D11B0229
:10226000160E3343120208351C0B04D11B01160F46
:102270003343120104359C0B04D19B00960F33436A
:1022800092000235DC0B02D192185B4101351C0033
:10229000971864410134464F7C66464C3C660E0CF0
:1022A000FFE7FFE7FFE7C0463C6F6643360C770366
:1022B000BE4697B27743C01B00D20139C01B00D283
:1022C00001399FB27743C91BC91B170C77437E04A2
:1022D000FF0B801BB941CE086643360C0C2D33DB57
:1022E000B644120B1F053A431B0B97B27743C01B32
:1022F00000D201399FB27743C91B170C77433E04C4
:102300003F0C801BB941860D8F023E43664329274F
:102310007F1BFE400C3D7746AF40BF1930BCA2B2D8
:10232000ABB272437343801A9941220C7243130C6F
:102330001204801A994102000B000137001BA941C9
:10234000F9D2781E0021F0BD0C277F1BFE40774696
:102350007F0BAF40FF19E0E700245D1C07D0144F4E
:102360007D663966FFE7FFE7FFE7FFE73C6F95B261
:102370009EB265436643401BB141150C1E0C65437C
:10238000664336042F0C3E432D04401BB141994255
:1023900004D202000B0020000021F0BD01D19042C8
:1023A000F7D3801A994101349942F2D3F6E700003D
:1023B000000000D0FFFFFFFF48404140484018B4F4
:1023C0001B4B5B68FC46019308BD04DF73260010BD
:1023D00018B4174B1B68FC46019308BD00DF7D262F
:1023E00000109446134A926F920809D2624618B4BC
:1023F0000F4BDB68FC46019308BD0CDF352900104C
:102400000C4AF0B5146E556E576F166F6246FFF7A3
:10241000EEFF084A1466556657671667F0BD18B494
:10242000034B9B68FC46019308BD08DFD9270010C9
:10243000881A0020000000D0FFB5504042405040B4
:1024400059404B40594000E0FFB5154F4C00640D1A
:1024500003D0BC4204D10C0314D80020090D090597
:102460005C00640D03D0BC4204D11C030AD80022D6
:102470001B0D1B0501264B4009D44B4003D58B4255
:1024800000D18242FFBD9942FCD19042FFBD0B4377
:10249000DB1803431343F5D0C9434918FFBD0000BF
:1024A000FF07000000B5FFF7CFFF01D0002000BDFF
:1024B000012000BD00B5FFF7C7FF804100BDC04649
:1024C00000B5FFF7C1FF01D9002000BD012000BD0C
:1024D00000B5FFF7B1FF01D9002000BD012000BD0C
:1024E00000B5FFF7A9FF804100BD012040054A006B
:1024F000121804D85A00121801D800207047012081
:10250000704700000021002805D17047C1174840DE
:10251000401AFAD0C90713B5064B1B6898470CBC84
:10252000441CA2401005120B0349091B090519435D
:10253000114310BD1C2B00201F04000010B54C00DF
:10254000620D8023D218DB00D21A5B057E2A10DDD3
:102550009E3A13DACC170903490819435242D14075
:10256000640001341532202A05DAD0400843604364
:1025700010BD002010BD0846604310BDC80FC01834
:10258000013810BD18B4044B5B6AFC46019308BDCA
:1025900024DFE52A00100000881A0020132370B5FC
:1025A0001D78012D19D014DD1F48FFF727FB060009
:1025B0001E48FFF723FB1E4C80223100200000F054
:1025C0004BFC022D2DD01B48FFF710FB1A4B186057
:1025D00070BD1A4B164CA364F5E7184B144C2360DE
:1025E0006360A360E36023616361A361E3612362CD
:1025F0006362A362E36223636363A363E3632364AD
:102600006364A364E36423656365A365E36523668C
:102610006366A366E36623676367A367E367A364F0
:10262000D1E7064BA364CEE75344000053460000B5
:10263000881A00204C3300001C2B0020412600107B
:1026400007B5604601880A0A0230DF2AFAD1C9B20A
:10265000820804D3028840880004104300E0006828
:10266000014A5050039007BD881A00200FB403BCE4
:102670000CBCF0B50124E407634000E0F0B50C0D9C
:10268000CF0F661E3605891B640503D3C94340423C
:1026900000D30131640D03D0661CF60A07D0E41B99
:1026A00000207F00791C89078912803C24031D0DBE
:1026B000DF0F6E1E36059B1B6D0503D3DB435242B5
:1026C00000D301336D0D03D06E1CF60A07D0ED1B4D
:1026D00000227F007B1C9B079B12803D2D032F1B3C
:1026E000661B58D4A446202E46DA20371400BC407E
:1026F0001D00BD40F24033412A4380185941CB0FA1
:1027000005D0C943C0430022644250415141624652
:102710004D0D28D10D0D07D100281FD0241940419F
:102720004941013A0D0DF9D0640006D3013000D3C0
:102730000131002C01D140084000013A0BD4941C17
:10274000E40A04D112051144DB071944F0BDD9078E
:10275000204B194300E0D9070020F0BD0029DDD14E
:10276000002CDBD1F0BD0132C6074008CD0728435D
:102770004908002EE1D0D9E73C2E29DA203E403727
:102780001400BC4000D00124F24014431A00BB40A6
:102790001C43D317ACE7AC46202F08DA20360400E0
:1027A000B4400D00B540F84039412843A5E73C2F1F
:1027B0000CDA203F40360400B44000D00124F84039
:1027C00004430800B1400C43C117EAE710001900A8
:1027D000002494E70000F07FF0B50C0D661E36056E
:1027E000891BE60A6405640D02D0651CED0A04D05D
:1027F000002001210905803C2403A4461C0D671E0E
:102800003F05DB1BE70A6405640D02D0651CED0A79
:1028100004D0002201231B05803C2403774064443C
:1028200097B484B296B27443070C7E43150C6F4381
:1028300080B26843361802D3012000043F183004E8
:10284000350C00197D41844688B29AB250430C0C75
:1028500062431F0C7C438EB27E43921902D3012641
:102860003604A4191604170C3618674101BC81B24E
:102870009AB25143040C62431B0C5C4380B2584330
:10288000121802D30120000424181004130C40185D
:1028900063412D185E410020474106BC88B293B2C7
:1028A00058430C0C6343120C544389B251435B18D8
:1028B00002D301210904641819041A0C0918624191
:1028C0006D1856410020474118BCF902720D1143A2
:1028D000F0026A0D1043ED020A0D03D16D1940415B
:1028E0004941013B124E9B1B7600B3420ED26D0054
:1028F00007D30130002671416646354301D14008B7
:1029000040001B05C918E4072144F0BD0BDA013370
:1029100006D1013004D101314F0D01D04908F2E751
:10292000E1070020F0BD013631050020EBE7000093
:10293000FF030000F0B51C0D671E3F05DB1BE70A17
:102940006405640D02D0661CF60A04D0002201233F
:102950001B05803C2403D0252D060026F6432E6659
:102960001E096E66CE0FF619B44649004F0D02D00F
:102970007E1CF60A03D000200021403F3F033E1B8F
:10298000B600B444013F7F05C91B49082E6F0136CC
:1029900076089C02950D25437543ED137543AD13E1
:1029A00001356D10F603761B0CB4CC02450D2C439B
:1029B000A2B2B3B25A43270C7B43350C6F43A4B287
:1029C0006C431B1902D3012424043F191C041D0C61
:1029D000A4187D4124196D41009A91B2ACB26143B3
:1029E000170C7C432B0C5F4392B25A43A41802D3BA
:1029F00001221204BF182204230C52187B41019CAF
:102A00006C431B19520ED9010A434401A01A81B22A
:102A1000B2B2514303145A43360C734387B277431F
:102A2000D617D21900277E4136049B191704160CBD
:102A30007F185E417316ED18F3010026803375414F
:102A4000A90F06D16400690AE8055B0A184309D298
:102A50002FE00422944480337541A90AA8059B0AFB
:102A6000184326D3404149412404009A019B0D009C
:102A70005543641B4343E41A95B286B27543170C61
:102A80007E43030C5F4392B25A43B61802D301222D
:102A90001204BF183204330C52197B4152429C413C
:102AA000002C02D40022013051414008CA071043D3
:102AB000490802B06246D7079210084BD218084B5B
:102AC0009A4203D212058918C919F0BD0020002AC4
:102AD00001DC3900F0BD01331905F5E7FD03000005
:102AE000FE070000002200B5203200F004F80800C4
:102AF00000BD000000220B150AD410B5944600F06A
:102B000031F81414013400DA0021CB17144C20479B
:102B10000020002170476244343A0CD40C2A07DAB2
:102B200004009140904052422032D440214310BDD5
:102B3000D843D94310BD203207D40C4694405242AA
:102B400020321141D040204310BD0800C917203267
:102B500003D452422032104110BD1800190010BD9C
:102B6000172B00100A0DCC0F531E1B05C91A520556
:102B700003D3C943404200D30131520D03D0531C4B
:102B8000DB0A07D0121B00206400611C8907891230
:102B9000803A1203014BD21A70470000FF03000075
:102BA00051434343C9188C46110C83B24B4310B4B4
:102BB000040C614392B280B2504362431C041B0C6C
:102BC000001910BC59411304120CC0185141614442
:102BD000704700004840414048400E4B5B68184732
:102BE0000C4B1B6818470C4A936F9B0802D2094B89
:102BF000DB681847F0B5146E556E576F166FFFF708
:102C0000F6FF054A1466556657671667F0BD014B17
:102C10009B681847881B0020000000D007B548407B
:102C20004140484001E0C04607B54200120E03D0C3
:102C3000FF2A03D1420218D8C00DC0054A00120E67
:102C400003D0FF2A03D14A020FD8C90DC9050122BA
:102C5000414005D4414001D5814207BD884207BDAE
:102C60000143491801D0C043001807BD00B5FFF764
:102C7000D5FF01D9002000BD012000BD491A002860
:102C800008D1084670470000C10FC90700D540426F
:102C9000002817D0F44603B40B4B1B68984706BCBA
:102CA00081409E384042803107D20B0607D0490050
:102CB000490AC0051043084360470130F8E7490A54
:102CC0008902F5E7704700001C2B0020132310B584
:102CD00012481C78FEF792FF0100012C0AD003DD98
:102CE00080220F4800F0B8F80E48FEF77FFF0E4B29
:102CF000186010BD0A4C5422200000F0ADF80B4BB8
:102D00006365A365E36523666366A366E36623677D
:102D10006367A367E3672362E361E5E75346000067
:102D2000881B00204C3300001C2B0020312D00108C
:102D300007B5604601880A0A0230DF2AFAD1C9B213
:102D4000820804D3028840880004104300E0006831
:102D5000014A5050039007BD881B002070B5040045
:102D60000A4E30000BF0D0FF20000AF0FDF80500FD
:102D700030000BF069FF002D05D0054B2C199C424B
:102D800001D8280070BD0348FDF750FD4018002011
:102D90000000042080EE0010F8B506000C000C4F77
:102DA00038000BF0B1FF2100300008F08DFA05006B
:102DB00038000BF049FF7443002D05D0054B2C194A
:102DC0009C4201D82800F8BD0348FDF72FFDC046FE
:102DD000401800200000042080EE001070B50500AF
:102DE0000C000B4E30000BF08FFF2800210008F084
:102DF000D1FA050030000BF027FF002D05D0054B60
:102E00002C199C4201D8280070BD0348FDF70EFD27
:102E1000401800200000042080EE001070B504006F
:102E2000054D28000BF070FF20000AF0A7F82800DD
:102E30000BF00AFF70BDC046401800200148042175
:102E4000014B1847101100200D1C0010014B1B688E
:102E50001847000010110020014B5B681847000064
:102E6000101100209A4200D2885470477047C04623
:102E7000F8B55746DE464E464546E0B599460A9BAC
:102E800007009A460D9B884693460B9C9B073BD1B7
:102E90000C9B9C423DD21E1B0B9415000C005E4403
:102EA0002A004B46013521002020B847B542F7D112
:102EB000A0460B9C002C20D0454636195346321BA9
:102EC000013C185D29004B46B847002CF6D12B0079
:102ED000350098460D9B9B070FD55B46EC1A0C9B63
:102EE000A3420AD9464698462A004B463100202084
:102EF0000134B84701354445F6D32800F0BCBB4641
:102F0000B246A946A046F8BD16001500002CD3D144
:102F1000E0E71600002CCFD11500EEE7F0B54F46E4
:102F20004646D646C0B584B098460EAB1B7894464C
:102F30009946129B0D9C109F119E9A0725D4002E36
:102F400065D1BC4221D201221A409246202C00D1E8
:102F5000E9E00C9A551E302202E0202C00D17BE0E3
:102F600001342A55A742F8D85246002A0DD0B4425F
:102F70000BD20C9A551E3022202C02D171E0202C4D
:102F80002DD001342A55B442F9D1DA063CD55A0580
:102F90002ED4002C28D10F9A102A00D1B6E0022A94
:102FA00000D1BCE030220C9C227001244A46002A49
:102FB00065D15A0700D499E02B220C9D2A55013483
:102FC00003930C9B62460093029643460194FFF7DD
:102FD0004FFF04B0E0BCBA46B146A846F0BD20247D
:102FE000DA06EDD55A0503D4A74266D0B44264D0C0
:102FF0000F9A102A71D0022A57D0202CE0D022003C
:10300000013430250C9FBD54202CD9D0CEE70122AD
:1030100015001D40AA461A4236D04A46002A4AD117
:103020000C321A4247D1BC42A1D2202C91D1202E81
:1030300017D82024DA06C3D55A051BD4202F01D077
:10304000202ED5D11F220F9D102D6FD0022DD8D14B
:1030500062250C9FBD54D0E75246002A79D0202E1D
:10306000BDD92024DA06ABD55A0503D4202FE9D0E8
:10307000202EE7D00F9A102AA2D12024A0E72D22DB
:103080000C9D2A5501349BE7BC4200D37DE7202CE0
:1030900000D05EE7DA06F0D55A05EED4202F62D0D4
:1030A000202EEAD134001F22CDE7202C00D187E763
:1030B00022000134CCE7013EB5E7621E012CC2D1EB
:1030C0000F9A102A00D06AE79A063BD558220C9C2A
:1030D0002270283A6270022468E79A060ED4202CE7
:1030E000CBD078220C9D2A55013486E71A0700D4EC
:1030F00066E720220C9D2A55013461E7202CBCD0C4
:1031000058250C9A12191570013476E79A0608D5DD
:1031100058220C9C227030226270022446E76032F2
:10312000F7E77822F5E7002A83D1B3E7A21E013C36
:103130009D0603D478250C9FBD5460E758250C9F4D
:10314000BD545CE778220C9C2270483A62700224DD
:103150002CE7DA0600D433E75A058BD4202F00D0B1
:1031600044E71F226FE73C001F226CE710B50028E0
:1031700000D110BD01F04AFCFBE7C0460B0010B5C2
:10318000002802D049681B68984710BDF0B5574623
:103190004E464546DE46E0B599B0824689469046A1
:1031A0000893229A239B10001900FFF79EF900282C
:1031B00000D0CDE0229823990122D94B5242FFF74B
:1031C0008FF9002800D0C3E0229823990122D54B23
:1031D0005242FFF76FF9002800D0B9E022982399F6
:1031E00000220023FFF766F9002800D0F1E1229EBB
:1031F000239F8023269ADB001A400D92269A1A42BA
:1032000001D1062324938023269A1B011A403B00F8
:1032100093460996334300D0B3E0002A00D0C2E1C0
:10322000002300240A930B94002304250993259B73
:103230000024AB4200D95C1B0223269A1A400C9250
:10324000269A134203D06B426B415B421C40099BA0
:10325000002B07D00A9A0B9B30003900FFF7C1F80A
:1032600006000F002298239900220023FFF722F97D
:10327000002803D0802109067B181F00269AAA4B3C
:10328000009601971340089E0493249B0394029395
:10329000424633004946504600F0AAF90400002D8A
:1032A00067D02020269A4946024013005A425341D3
:1032B0005B42621C18400A92330022004530D0471E
:1032C000099A6F1ED317D4185C40D30F9B46002574
:1032D00001E0202D13D008AA94461F232000634448
:1032E0000A2101355E19FEF72FFE303131702000C2
:1032F0000A21FEF729FE26000400092EE9D805233D
:103300000693002304930A3303935B46089E0293BB
:1033100010AB0A9A00934946330050460597019531
:10332000FFF7FCFD0C9A0400002A22D04246851AC1
:10333000259AAA421DD9B046574616002200434698
:10334000494620200135B8470134AE42F6D810E096
:10335000269B42460493259B49460393249B504653
:103360000293229B239C00930194089B00F040F958
:103370000400200019B0F0BCBB46B246A946A046E6
:10338000F0BD6A4B78009C46400D6044FFF7BEF8E4
:10339000674A684BFFF743F8674A684BFFF718F82E
:1033A000674A3B031B0B1A4304000D0009981100E8
:1033B000644B0022FFF703F8634A644BFFF72FF8D2
:1033C00002000B0020002900FFF702F8FFF7B6F813
:1033D0000990FFF79BF85E4A5E4B04000D00FFF773
:1033E0001EF800225C4BFEF7F3FFFFF7A7F85B4ADD
:1033F0005B4B29000C902000FFF711F804000C989B
:103400000D00FFF783F8574A574BFFF708F8020003
:103410000B0020002900FEF7D2FF04000D0002007F
:103420000B000A940B95FEF7FAFF04000D000A98B2
:103430000B9902000B00FEF7CBFF00220E900F91BC
:103440004A4B20002900FEF7CCFF0022484BFEF734
:10345000BFFF02000B0020002900FEF7C2FF002280
:10346000444BFEF7B5FF02000B0020002900FEF7D9
:10347000B8FF0A9A0B9B0D0080210400C9050020AB
:10348000FEF79DFF02000B0020002900FEF7A0FFC1
:1034900002000B000E980F99FEF7A3FF0022284BA5
:1034A000FEF796FF344B0C9C9C4664442305002297
:1034B000FEF7B5FF04000D0002000B0030003900DC
:1034C0000A940B95FEF7F6FF00285DD123002A0031
:1034D000C625099963318D42AD4159466D42043587
:1034E000002900D1A3E6134363D030003900234AFA
:1034F000234BFEF7EDFF002807D0002230003900F3
:10350000204BFEF7D7FF002853D1249B002B00D17E
:103510008DE60D9B5A1E9341249AD31A249386E676
:10352000FFFFEF7FFFFFEFFFFFF7FFFF01FCFFFF54
:10353000FB799F501344D33FB3C8608B288AC63FA2
:103540000000F03F0000F83F61436F63A787D23F60
:1035500071A379094F930A400000E03F1655B5BBAF
:10356000B16B0240EF39FAFE422EE63F00002C40DC
:103570000000244000001840FF0300002D431CEB16
:10358000E2361A3F80842E41099B0022013B0993B9
:103590002000164B2900FEF724FF0A00010003005B
:1035A0000A910B9294E7002300240A930B940023C2
:1035B0000993249A099B9A4214DDD31A013B249360
:1035C0008023269ADB001A430023002526920993C4
:1035D0002DE6802212069446229B1E00239B634404
:1035E0001F0006E600232493EAE7C04600002440BB
:1035F000F0B54546DE464E465746E0B595B08B469B
:10360000904699461E9A1F9B0A9019001000209D13
:10361000FEF76BFF002800D0B0E11E981F99012231
:10362000C74B5242FEF746FF002800D037E11E98F4
:103630001F990122C34B5242FEF752FF002800D0CF
:10364000A7E01E981F990022BF4BFEF749FF0028F4
:1036500000D088E01E981F990022BC4BFEF72AFF7D
:10366000002800D07FE01E981F9900220023FEF75B
:1036700021FF002800D0FAE000230B938023229C36
:10368000229ADB001C401A4200D102E1092D00D829
:103690007CE106A98C462C00172200233021093C2E
:1036A00062440133D154EF1A202B00D132E1A342FE
:1036B000F7D10022A44B069207931E981F99FEF79C
:1036C0003DFF0500FEF722FF02000B001E981F9928
:1036D000FEF775FE069A079BFEF7A1FE089009917A
:1036E000FEF750FF0600FEF70DFF02000B000898E2
:1036F0000999FEF764FE0022954B08900991FEF7A8
:10370000EFFE002800D1D2E001363000FEF7FAFECD
:10371000069A079BFEF7DCFE002801D00026013543
:10372000AA46002F00D098E02800FEF7EFFE020026
:103730000B001E981F99FEF742FE854B00220600E3
:103740000F00FEF7B7FE0CAB9A46002845D10022C9
:10375000300039007E4BFEF7C3FE00283DD1EB0759
:103760003BD5013539E0229B42460493219B5946C3
:1037700003930A981E9B1F9C0295009301944B464D
:10378000FFF704FD15B0F0BCBB46B246A946A04603
:10379000F0BD229B5B0767D403226E4B22990192F6
:1037A000039121990291009342464B4659460A984B
:1037B000FFF75EFBE6E706AA94461723280063445A
:1037C0000A2101341E19FEF797FB303128003170B1
:1037D0000A21FEF791FB051E76D0202CEBD10323A6
:1037E000229A1340012B1DD1219B002B1AD00B9B39
:1037F000002B00D0BBE0229A0C33134200D0B6E07D
:10380000219BA34200D887E006AB9C4617223023B9
:10381000624404E02199013413558C4259D0202C84
:10382000F8D12024229B01940393219B02935346B9
:10383000B9E706AA944617230A21634430000134ED
:103840001D19FEF781FB3031297030000A21013F3C
:10385000FEF77AFB092E46D90600202CE9D1554601
:103860000CAB20249A46B8E704223B4B96E71E9AFD
:103870001F9B00200021FEF7A2FD01230B93802354
:10388000229C229ADB001E901F911C401A4200D0FD
:10389000FCE60022314B0627069207930DE7229B98
:1038A0000393219B0293042301932D4B7BE700227A
:1038B00008980999264BFEF7FDFD002800D02FE758
:1038C000002E4FD101362BE70323229A1340012B00
:1038D00066D0202CA6D00B9B002B1FD02D23524648
:1038E000135501349EE75546202CB9D030233A19A0
:1038F000002F08D0172006A9013409180B55202CD9
:10390000AED09442F6D10CAB9A462E2352461355B4
:10391000013462E72024CCE6202C83D0229B5B0775
:1039200008D4229B1B0700D47CE720235246135562
:10393000013477E72B2352461355013472E7C04612
:10394000FFFFEFFFFFFFEF7F65CDCD4165CDCDC11F
:103950000000E03FDCEE0010D4EE001080842E4129
:10396000E4EE0010F30700D4DAE60136D8E6219B36
:10397000013B2193A34200D946E7AAE7229B039388
:10398000219B029303230193074B0CE7074BEA00AB
:103990009B185C681B682F000693079400248CE634
:1039A000219B002B95D022E7E0EE001040FA00109A
:1039B000F0B55746DE464E464546E0B5A5B01F0079
:1039C0002E9B91460D93CA4ACA4B82468B461A607B
:1039D000002900D129E2002338789846002800D138
:1039E0002BE2C54B44460C93C44B55464E460E93B2
:1039F0000AE0631C9846220033005946A847444613
:103A00003878002800D187E001372528F1D1082334
:103A10009A46043B9946023B9846013B00229C464D
:103A20000B943878791C0300203BDBB2102B03D8B1
:103A30000C9C9B00E3589F460300303B0B9C0B9271
:103A4000092B3AD9002398462A2800D1DDE000232B
:103A50009A462E284BD00300683BDBB2122B1ED8AF
:103A60000E9A9B00D3589F4663460F001A43D8E72F
:103A700043460F001A43D4E74B460F001A43D0E7E2
:103A800010230F001A43CCE753460F001A43C8E730
:103A900080235B000B9A78781A430B9201310F0058
:103AA00067284FD82428A4D90300253BDBB2422B3A
:103AB0009FD893499B00CB589F46002398460B9B69
:103AC00047469C4600E00131BB00DB195B001F1834
:103AD0000878303F0300303B092BF4D963460B9341
:103AE0000023B8469A460F0001312E28B3D180201A
:103AF0000B9AC00002430B923022524294467878CF
:103B00000B0084446246092A00D8AAE12A2800D181
:103B1000B9E10F0001319EE7A046AA46B146C8456B
:103B200003D301235B424B4498464B4642465946D9
:103B30000020D047200025B0F0BCBB46B246A946C5
:103B4000A046F0BD01006939C9B20F2900D950E77C
:103B500001238B409C466B4B994663464A46134073
:103B60000F9362464B461A4200D068E10A2956D0AC
:103B7000072900D03DE70D9B02CB9846002900D0D5
:103B800092E10B9B10211A008A4310001131084367
:103B9000814680201A00C0000240110003421CD15F
:103BA00014AB9C461F220F2362440D959C461500C2
:103BB0000F9B0B9402E0202B0CD0110064460C40AC
:103BC00020003730092C00D807380133E8540A099F
:103BD0000F29F0D80B9C0D9D0F934B46082206939E
:103BE0005346059208320392002204930F9B0292DF
:103BF00001931CAB22000093594633002800FFF7C5
:103C00008DF9434604000D93FAE60D9B04CB9046D4
:103C1000002A79DB78780D930F00013117E70D9BAF
:103C200002CB14930B789C4618005346002B00D10E
:103C300034E1002815D05346013B013399460D94D9
:103C40000B9C89444A460B00A14601E0934203D0F5
:103C50005C780133002CF9D14A465B1A0D9C0B921B
:103C60000F938023DB0099460B9A13400D934B462C
:103C70001A4204D00F9B534501D953460F93022398
:103C800099460B9A13400B934B46134200D1F5E132
:103C90006346002B00D1D6E10D9B002B00D182E1C1
:103CA0000B1BD14631009A463B00A1442E005F46D3
:103CB0004D4622009B46894609E04B463900541C7C
:103CC000B0475346185D002800D192E1220095428A
:103CD000F3D14B465A46A946BB46350017001E0095
:103CE0004C460B9B002B00D0ADE1149B0D9387E657
:103CF000B1390010EC2A0020A4F80010E8F80010F8
:103D000034F90010419000000B9A283802430B92BE
:103D100042465242787890460F000D93013196E664
:103D200078786C2800D15DE180230B9A5B001A4300
:103D30000B920131B3E680239B00ABE678786828CC
:103D400000D148E180230B9A01311A430B92A6E679
:103D5000672800D1B2E0472800D11AE1452800D1F8
:103D60001CE10B9A0721049242460D9B03920733F4
:103D700052468B43190002920CC92800009201930D
:103D80000D91220033005946FFF700FA040037E690
:103D9000462800D18DE00B9A0721049242460D9BE4
:103DA0000392073352468B43190002920CC9280034
:103DB000009201930D91220033005946FFF718FC41
:103DC00004001DE6631C9846220033005946252056
:103DD000A847444614E60D9B04330F93631C994691
:103DE0000B9B9A0700D40AE10D9B220018785946D4
:103DF0003300A84743464444012B00D86FE1B04646
:103E00002E0025004C46B9465F4622004346013449
:103E100039002020B047AC42F7D12C00BB4635001A
:103E20004F4646460F9B0D93EAE5D64B38789A46A7
:103E300000239846002800D0D3E500246FE66F28C1
:103E400042D000D8FDE11023782800D19BE00B9AE6
:103E50009A430B920A239C46002314930A330F9330
:103E600038E057460B9AB900C919490001330F18B9
:103E70001878303F010030390929F4D9BA460B923D
:103E80001F00591CE7E50D9BB87804CB0237D143DE
:103E9000C9170A4092460D93791CDCE5002800D131
:103EA000DFE602235B42C8E621200B9A02439146DB
:103EB00076E620230B9A1A430B926CE780230B9A29
:103EC0001B011A430B924CE708239C4600231493D2
:103ED00008330F930B9880230200DB001A40110077
:103EE0000200184200D080E00C239A431000802387
:103EF00002009B001A400B92184200D0F1E0802390
:103F000002005B001A4091460D9A04321492184246
:103F100000D0C3E2430600D5D7E0030600D421E376
:103F20000D9B1B880993002B00D02DE11033984383
:103F3000002900D128E100239946434605935346C2
:103F400004930F9B06900393002302934B46019327
:103F50001CAB22000093594633002800FEF7DEFF19
:103F60000400C2E6582809D0622800D0E3E2022308
:103F70009C460023149302330F93ABE720230B9A44
:103F80001A430B92103B9C460023149310330F935B
:103F9000A0E780230B9A1B011A430B9220230B9A54
:103FA0001A430B92DDE60B1B9A460F9B99463B008A
:103FB00037005E469B4622003B003100A84753462F
:103FC0000134185D0028F6D14B460F935B46B3468B
:103FD0003E001F0085E6C0230B9AB8781A430B9267
:103FE000F91C5CE5C0239B00F6E70D239A43100003
:103FF0007DE75B463500BB464E461F0071E64346F3
:10400000012B66D9631E434432002E001D003B0085
:10401000A2465F4691469B4622004B46013439003A
:104020002020B047AC42F7D15B463500BB464E4638
:10403000A14654461F000D9B4A4618785946330046
:104040004444A847EEE60F9BA146984500D84CE6AD
:104050004444E41AB0462E0025004C46B9465F465B
:1040600022004346013439002020B047AC42F7D14A
:104070002C00BB4635004F46464636E60F98804535
:1040800000D873E24346E218131A32002E001D00D6
:104090003B0091465F469B460F9122004B46013400
:1040A00039002020B047AC42F7D15B46BB461F0029
:1040B00043460F9901330F930B7835009C464E46CB
:1040C0006046002800D0E7E50FE60D9B1B780993BA
:1040D00029E70D9B2200187859463300A8474C4623
:1040E000A0E60D9AFA3BFF3B07329A43013399460B
:1040F00091444B460D931368526815921A4306D1AA
:104100001032904300220992002900D083E06122FE
:10411000810600D54122D2B20A9214AA91460A9A87
:1041200000210A3A0B9242461792524618925A467A
:10413000B24609911E001F31149B4944BB46169498
:104140001A950024674698468946159D19901B923A
:104150000AE03032D2B24B4601341A55A8454CD051
:10416000202C4CD006000D003A000023300029001E
:10417000FDF728FFD2B2092AEBD90B9B9C4662447B
:10418000D2B2E8E76D2E00106123820600D54123EC
:10419000DBB20A3B0B93434614A91F228C461593AE
:1041A00053466244B2460D9417974C468046A94642
:1041B0001700099D0F9E169308E03033DBB20134DF
:1041C0003B55B5420ED3202C0CD005003100280001
:1041D000FDF7BAFECBB20929EFD90B9A9446634496
:1041E000DBB2ECE7159B40469846169B4D4656467B
:1041F000A1469A460D9C179F9FE6B742B0D9179BE0
:1042000056469846189B5F469A461B9B09949B46C8
:10421000169C19981A9D43460593534604930F9B89
:104220000690039300230293099B01931CAB220089
:104230000093594633002800FEF770FE0400FFF794
:10424000DFFB10230B9A9A430F92692800D091E16B
:104250000B9980230A00DB001A4010000A00194263
:1042600003D0112118008A430F920F9A8023110066
:104270009B0019408C461A425BD1802311005B00E1
:10428000194089460D9904310B911A4200D0B2E0D1
:1042900013005B0600D4EDE00D9B1B781A00D90FCC
:1042A0000D91002B00D1A3E0100014AA94464246C1
:1042B0001F23159252466344A846BA464D461494AD
:1042C000B14604001F00169201E0202D0FD02000FF
:1042D0000A21FDF739FE01357E1930313170200099
:1042E0000A21FDF731FE26000400092EEDD8159BAA
:1042F0004E46A94645469846169B57469A46149CF4
:104300000F9B069343460593534604930A23039356
:104310000D9B02934B4601931CAB22000093594620
:1043200033002800FEF7FAFD0B9B04000D93FFF706
:1043300067FB07220D9B07339343013294469C444D
:1043400062460D920CCBD90F0B911100194300D18D
:104350009BE0D91713911291514010911399594034
:10436000119110981199129A139B801A99411090EB
:10437000119114AA9446424600231592524699463A
:10438000169232001F336344A8464E46BA46149430
:104390001F00109C119D914601E0202E10D020009E
:1043A00029000A220023FDF70DFE013630322B00D2
:1043B000BA550D0022000400002BEED1092AECD8DA
:1043C000159B10941195454698464B46169AB14652
:1043D00057461E009246149C0F9B06934346059336
:1043E000534604930A2303930B9B02934B461CE70B
:1043F000002885D159E70D9B1B68DA0F1100002BAF
:1044000000D1A6E0DA179818504014AA91461F234D
:1044100042464B44A8460D94169704006546B146A3
:104420001F001491159201E0202D0FD020000A21C9
:10443000FDF78AFD01357E193031317020000A21E7
:10444000FDF782FD26000400092EEDD8159BAC4631
:1044500045469846149B4E4619000D9C169F0F9B8F
:104460000291069343460593534604930A2303930C
:10447000634650E713001B066ED50D9B00229B5E22
:10448000D9175A184A4092B209E7002399460028E2
:10449000A2D100220023109211936AE70D9B1B68A2
:1044A0009946002B03D110339843002938D161235A
:1044B000820600D54123DBB20A3B0D934346169397
:1044C000534614A91F228C4617932B0062444D4675
:1044D000B246159418978046170099460B9C0F9E7C
:1044E00008E03033DBB201343B55B5420ED3202C0B
:1044F0000CD0050031002800FDF726FDCBB20929BC
:10450000EFD90D9A94466344DBB2ECE7169B404624
:104510009846179B56464D469A460B94189F159CF5
:1045200043460593534604930F9B06900393002341
:1045300002930B9B0BE50B9980230A00DB001A40CA
:1045400010000A00194200D08BE610239A430F9204
:104550008BE6002883D158E70D9B1B68D9175A18A2
:104560004A409CE60D9B1B680993DCE40300013381
:104570000F93A5E50B926DE40CB430B585B008AC93
:1045800008CC064D0A000094010028000394FFF7B0
:104590000FFA05B030BC08BC02B01847652E0010F9
:1045A00000B585B0039101210290009303481300E8
:1045B0004A4202A9FFF7FCF905B000BD7D310010A9
:1045C0000FB430B50C4985B008AA08CA0D6803922B
:1045D000002D0CD000920122084C5242200002A96A
:1045E000A847012005B030BC08BC04B0184718002B
:1045F00000F058FA0020F5E7EC2A00206D31001099
:1046000010B5094A0300146884B0002C08D00122B8
:1046100000910648524203A9A047012004B010BDF2
:1046200000F040FA0020F9E7EC2A00206D3100107C
:1046300000BEFDE7094A03001068002805D00849BC
:10464000C3188B4207D81360704706480449C31843
:1046500010608B42F7D901204042F5E7E8260020A0
:1046600000000420542B0020030010B508001100A6
:10467000002B05D1044B1A685B6800F065F910BD8A
:1046800001204042FBE7C04648F800100300013B10
:1046900010B508001400012B06D8012300222100C8
:1046A00000F0D2F8200010BD01204042FBE7C046D8
:1046B000012040427047C046012040427047C0463A
:1046C000012040427047C0460300022200209A4267
:1046D0004041704710B5FFF7ABFFC04630B50D0045
:1046E00083B01900002A0BD0074B084C01920093AD
:1046F00002002B002000FFF763FF0120FFF798FF67
:10470000034B1A00F1E7C046ECEE0010FCEE00107F
:1047100018F1001070B5FDF7CBFA074D074EB54202
:1047200009D20024013E761BB60808CD9847230025
:104730000134B342F9D170BD64ED001070ED00108A
:10474000030010B5080011001B68984710BDC04653
:10475000F0B5C64600B5437D07000D001600002BDE
:1047600038D0002A2EDD00216A1E90466A5C037D47
:104770004C1C00200A2A0CD0A64216D043461B5DD2
:1047800021000D3B5A4253416A5CDBB24C1C0A2AA1
:10479000F2D1002BF0D1884217DB022110483B6890
:1047A0009847A64207D02000E8E7864203DD311A89
:1047B0003B6828189847AD19013D2B780D3B5A42AC
:1047C00053413B7580BCB846F0BD091A3B682818B8
:1047D0009847E2E70368110028009847F2E7C046CF
:1047E00090FA0010F0B5C6460B6806000C0000B544
:1047F000802B06D05A1C2260E418267180BCB84673
:10480000F0BD0F4B1D68002D16D00B1D98460D4FA7
:1048100002E02D69002D0FD02B68002BF9D03B68EA
:10482000002B01D0AB42F4D1280041462268FFF7AB
:104830008FFF2D69002DEFD101220023DBE7C04659
:10484000DC260020E4260020F0B5DE4657464E4622
:104850004546E0B585B017001C0006000D00FCF7CA
:104860005BFF0023314A12184B41802109068B421D
:1048700002D301222E4B52422E4908008A460AF0EA
:1048800023FA01906B1C03D1300008F07BFE050079
:10489000002C26D0284B9846284B1C68002C15D09D
:1048A000002F21D1264F02E02469002C0ED023686E
:1048B000002BF9D03B68002B01D09C42F4D12000A2
:1048C0002A003100C0472469002CF0D1019B002B45
:1048D00028D1280005B0F0BCBB46B246A946A04688
:1048E000F0BD184B9846D7E7154B994602ABDF1D34
:1048F0000A239B4602E02469002CE7D02368002BA2
:10490000F9D04B461B68002B01D0A342F3D12A00FB
:1049100031002000C0475B460122390020003B7077
:10492000C047E8E750460AF08FF9D2E740420F004F
:10493000FFFFFF7F4818002051470010DC260020B1
:10494000E426002041470010F8B557464E4645463C
:10495000DE4698461A4BE0B59B461A4B07000E0000
:1049600091469A46184D5B461C68002C03D115E011
:104970002469002C12D02B68002B01D0A342F7D160
:10498000A368002BF4D03100380098470028EFDDF1
:10499000F0BCBB46B246A946A046F8BD53465B6A8A
:1049A000984508D85246926A4A4502D302204042AE
:1049B000EEE79845FAD101200021FCF7B7FED2E7D7
:1049C000DC26002000400540E42600200A4A136847
:1049D000002B05D10CE01A001B691032002B07D008
:1049E0009842F8D1002902D1036913600161704730
:1049F0000029FCD01060FAE7DC26002010B500F09A
:104A0000B3F900F0FBFB012010BDC046F0B5CE4667
:104A1000474680B583B06B460600DD1D2870FCF765
:104A20007BFE00231A4A12184B41802109068B4253
:104A300002D30122174B52421749080088460AF058
:104A400043F9164B81461C68002C14D0144F02E029
:104A50002469002C0FD02368002BF9D03B68002B71
:104A600001D09C42F4D1200001222900FFF770FE02
:104A70002469002CEFD14B46002B05D1300003B048
:104A8000C0BCB946B046F0BD40460AF0DDF8F5E7D7
:104A900040420F00FFFFFF7F48180020DC26002067
:104AA000E426002070B5040008F06CFD012301002D
:104AB000050001222000FFF7C7FE084B1C68002CF0
:104AC00006D06368002B05D098472469002CF8D1E4
:104AD000280070BD2469002CF3D1F9E7DC26002002
:104AE000F0B5CE46474680B5A3B004000D00FCF7F4
:104AF00013FE0023294A12184B41802109068B42DC
:104B000002D30122264B5242264F38000AF0DCF82D
:104B100000230600019322002B00234801A9FFF780
:104B20003FFD019B8046002B14D1204B1C68002CBC
:104B300006D06368002B0BD098472469002CF8D16D
:104B4000002E25D1404623B0C0BCB946B046F0BDCA
:104B50002469ECE7154B1D689946002D1CD0144CB8
:104B600002E02D69002D0FD02B68002BF9D02368AF
:104B7000002B01D0AB42F4D12800019A02A9FFF723
:104B8000E7FD2D69002DEFD14B4601951C68CEE75E
:104B900038000AF059F8D5E70195D1E740420F00F7
:104BA000FFFFFF7F48180020E5470010DC260020AB
:104BB000E42600200FB400B583B004A901C9019117
:104BC000FFF78EFF03B008BC04B01847F0B500290A
:104BD00015DD0E4B0D271A680D4B0E4CD3185D4298
:104BE0006B41451820215B001E5F0478A64207D068
:104BF00093691942FCD101301460A842F5D1F0BD8F
:104C000093691942FCD11760F2E7C046302B0020AF
:104C10000080FCBF2C2B0020204B70B504000D1E23
:104C20001E682ADD002010211D4B013C1A68936983
:104C3000194214D1013093691942FCD113682354ED
:104C40008542F4D1002E08D050239363516B183B5A
:104C50000B4014498C466244136028000CE0002E7F
:104C600008D050239363516B183B0B400D498C4681
:104C70006244136000280DD070BD002E0AD050226F
:104C8000074B1B689A63596B183A0A4005498C46D2
:104C900063441A6003204042EEE7C0466C260020C1
:104CA000302B002034100000064B10B51B68002B81
:104CB00006D00021044A12689163044A106898479C
:104CC00010BDC0466C260020302B0020742600202A
:104CD0000822034B19688B691A42FCD17047C04601
:104CE000302B0020F8B51A4F1A4B3A680500D3183C
:104CF00058424341184E14331C003368002D02D033
:104D0000002B0FD0F8BD002BFCD0002120009563B4
:104D1000FBF752FE20001149FBF7AAFF104B35604C
:104D20001D60EFE70E4B200019600C493560FBF762
:104D30007BFE01212000FBF73FFE50223B689A6377
:104D4000596B183A0A4007498C4663441A60D9E700
:104D5000302B00200080FCBF6C260020A94C0010E6
:104D600074260020341000000D4B10B51B780D4B3D
:104D70000D4C1B780D4B02211B780D4B002023603E
:104D8000FBF734FD02210120FBF730FDE121206813
:104D90004902FCF7FFFC01210648FFF717FE10BD92
:104DA0001401011010010110302B00200C01011022
:104DB00000400340201100207047C0460022014BF4
:104DC0001A7070474D2B00204B790020FF2B0BD120
:104DD0008B79002B08D1CB79012B05D1082A03D977
:104DE000024B8A7809301A707047C0464D2B00205C
:104DF0000120704710B5012901D0012010BD1349D1
:104E00005379107909781B02034300209942F5D1A8
:104E10005378012B08D0022BF0D10020642200210E
:104E2000FCF78EFE0120E9E7D37891781B02194345
:104E3000DB0507D54A0A100001231A407E331940CA
:104E4000FCF706FF01204A0A4042F5E74D2B0020FF
:104E50000048704778FB001070B505001400012071
:104E6000012909D153780020012B05D163791279EA
:104E70001B021343072B00D070BD21002800024AFB
:104E80009F3301F05FFAF7E7D0FA001001230370B7
:104E900000487047B0FA00104B780A781B021343A1
:104EA0008A7810B512041A43CB781B061343962256
:104EB000D200934200D010BD0022012011004042D8
:104EC000FCF7C6FE024B1860024B19607047C046E3
:104ED000702600207826002010B5024B1878FBF7CA
:104EE00089FD10BD4F2B0020154B70B51A68002AA4
:104EF00022D0EFF3108172B610680028FCD0BFF307
:104F00005F8F00200F4A596010701B68BFF35F8FDE
:104F1000186081F31088002400250B4E3078FBF7D1
:104F20005DFD002804D1002400252900200070BD6B
:104F30003078FBF75FFDF8E7FA240025A400ECE7E2
:104F4000F82A0020502B00204F2B002070B50400C1
:104F500000200E0001F016FB002836D0002001F0E2
:104F600027FB002831D0FCF7D7FB0023184A121882
:104F70004B41802109068B4216D2164D280009F0BC
:104F8000A3FE002821D0002001F0FCFA00280FD158
:104F900001200021404200F009FD03246442280062
:104FA00009F052FE200070BD01220B4B5242E4E793
:104FB000002001F0FDFA0028EAD021003200002094
:104FC00001F000FB041EEAD1E7E703246442E9E7AD
:104FD00040420F00242B0020FFFFFF7F10B5FCF79D
:104FE0009BFB00230E4A12184B41802109068B427D
:104FF00002D301220B4B52420B4C200009F064FEFD
:1050000000280CD001200021404200F0CFFC0020FD
:1050100001F022FB0028F5D1200009F015FE10BD9B
:1050200040420F00FFFFFF7F242B0020F8B5DE4633
:10503000574680B505000C00FCF76EFB0023374A8D
:1050400012184B41802109068B4202D30122344BB6
:105050005242344908008A4609F036FE002803D13E
:10506000C0BCBB46B246F8BD002001F08BFA002858
:105070004AD00026002C43DD2B4B9B4614E0A91997
:10508000002001F023FB070001200021404200F036
:105090008DFC002001F0E0FAFCF73EFB224BF619F4
:1050A00018605960B4422BDD002001F02FFBA71BD4
:1050B0000200B84200DD3A00002AE0D101200021C0
:1050C000404200F073FC002001F0C6FA002001F01D
:1050D00059FA002814D0002001F018FB0028E1D173
:1050E000FCF71AFB5B460F001A685B6800218446D8
:1050F0000E4812184B419F4202D8D3D19445D1D9C2
:10510000504609F0A1FDABE700200021064B1860D6
:105110005960504609F098FDA2E7C04640420F0092
:10512000FFFFFF7F242B0020801A002020A1070012
:1051300030B52B4C85B00021200009F0B5FD0028CA
:105140001CD1284B1A68002A16D0EFF3108172B6D2
:1051500010680028FCD0BFF35F8F012422485960FB
:1051600002781B68D2B20470BFF35F8F0020186012
:1051700081F31088002A17D005B030BD012000212E
:10518000404200F013FC002001F012FA050020005C
:1051900009F05AFD002DEFD0144B1B68002BEBD00B
:1051A000134A10689847E7E7FCF726F90400FCF774
:1051B000B3FAFA220023920012184B41802109060B
:1051C0008B4202D301220B4B52420121029100215A
:1051D0000191094920000091FCF712F9CCE7C04683
:1051E000242B0020F82A0020502B002070260020BD
:1051F00078260020FFFFFF7FE94E0010D02310B576
:105200001B0684B01C68FCF7F7F8FCF7F5F9A04220
:1052100002D0002004B010BD2A4B002100201B78D2
:1052200001F070FD28480368002B47D00120FBF7F0
:1052300063FEFF23254C264920701840FBF7F4FB42
:1052400020780121FBF7B8FB0520FBF7DBFB0028EA
:1052500026D1082200211F48FDF7F8FDFCF7CCF805
:105260000400FCF759FAFA220023920012184B416D
:10527000802109068B4202D30122174B52420121A1
:10528000029100210191154920000091FCF7B8F826
:105290000028BEDB12480121FFF798FB0120B9E787
:1052A0000120FBF757FB0B4B01001800FBF796FEA4
:1052B000002205200B49FBF7E1FBEBE7FBF772FE51
:1052C000B4E7C04618010110242B00204F2B00200A
:1052D00031510010F82A0020FFFFFF7FE94E001037
:1052E00038110020D94E00100048704714FC0010FF
:1052F00000487047C0FB001010B504001748037841
:10530000002B20D0002C06D1154B16484380063BBD
:10531000FF3B038010BD052C19D8134BA400E058A7
:1053200012490123013804E001330A800231142BB1
:105330000FD0C25C002AF7D1C022DBB25B00920022
:1053400008481343E5E7112100F01AF8DAE70020D6
:10535000E0E7CA2303489B00DBE7C046342B00206C
:1053600009040000B4260020A8FB0010B626002087
:1053700010B5024800F0D8F810BDC046142B00202C
:1053800030B54B1E012900D1A7E0664A11780D09FE
:105390002C0030349F2900D9A2E00470012B00D1E9
:1053A000BEE00F21147821400C003034092900D9C7
:1053B00098E04470022B00D1B2E05478250929000E
:1053C00030319F2C00D990E08170032B00D1A7E0F1
:1053D0000F2121400C003034092900D987E0C47026
:1053E000042B00D19CE094782509290030319F2CB2
:1053F00000D97FE00171052B00D191E00F21214000
:105400000C003034092900D976E04471062B00D114
:1054100086E0D4782509290030319F2C00D96EE030
:105420008171072B00D17BE00F2121400C0030342B
:10543000092966D8C471082B00D171E014792509B7
:10544000290030319F2C5FD80172092B68D00F21C1
:1054500021400C003034092958D844720A2B5FD0FF
:1054600054792509290030319F2C52D881720B2B99
:1054700056D00F2121400C00303409294BD8C4727A
:105480000C2B4DD094792509290030319F2C00D95F
:10549000073101730D2B43D00F2121400C00303414
:1054A000092901D937310C0044730E2B38D0D1793A
:1054B0000C09220030329F2900D9073282730F2B4A
:1054C0002ED00F220A4011003731092A01D830327C
:1054D0001100C173102B23D010300023037030BD96
:1054E00007345AE737310C0063E707316CE737318F
:1054F0000C0074E707317DE737310C0085E7073191
:105500008EE737310C0095E707319DE737310C0006
:10551000A3E70731AAE737310C00C4720C2BB1D1D5
:10552000C018DAE7142B002010B588B004000D2253
:1055300000216846FDF78AFC0D22002104A8FDF732
:1055400085FC4B236A466846137004A90D2209F0B6
:1055500073FB1521082220006944FDF77DFC08B08B
:1055600010BDC046F8B500F043F90C23194DFF22D9
:10557000AB6705201849FBF781FA184C402200213F
:105580002000FDF763FC4027002301262121144A57
:1055900066702783A260136063545F31618445396C
:1055A0006354104A10496360E2602787A1620B6070
:1055B0006362E26209F058FB80239B052E64EB6472
:1055C00090230A4A0120EA508022094B5202DA64F1
:1055D000F8BDC04600001150D1050020EC26002087
:1055E00084001050000110508000105010D00100B5
:1055F0000020115010B501210520FBF7DDF910BD89
:1056000010B500220021024800F012F910BDC0467A
:105610000C270020044B1970002904D0802190230E
:10562000024A8902D1507047482B002000201150B7
:105630000B785B0602D14B78052B00D070478A7837
:10564000014B1A60FAE7C04600001150F0B5C6469B
:10565000C87800B58007830F1800012B60D08F78C1
:105660000A794B797F213940FC091B024E00134314
:10567000334D32195201AA189770012767405770AD
:1056800000275B055B0DD7701383D076B846CA0040
:10569000012C32D02B4FBC468F016244BC46AC4437
:1056A0006746BA6047461760002932D0264AC900CB
:1056B00090466246414451603F223F339343022863
:1056C00037D0224937190A687F01D3180B60204967
:1056D000EF19FA608B422ED836197601AD19EB7EA0
:1056E0001C499B064A4013438022120613436A68F2
:1056F0001360012080BCB846F0BD174FBC468F0137
:105700006244BC46AC446746BA624746176000290B
:1057100008D1002364012C196360104BE360E8E7B3
:105720000020E7E70B4AC9009046624641445162B7
:10573000C2E75B00C5E7FCF7B5FAFA68CCE7C046FC
:10574000EC2600208400105004001050F42A0020A1
:10575000FF0F10500000105080001050000110503A
:1057600010B509F081FA10BD10B57F200C00204063
:105770004000E409110000191A00034B4001C01851
:1057800000F056F8012010BDEC2600207F23180001
:1057900010B50840CA090B4203D107497D3B9B1A4B
:1057A0008B66400080188022044B40010021C01805
:1057B000120109F0A1FA10BD00201150EC260020C2
:1057C0007F22130010B50B400A4200D110BDC90959
:1057D0005B005B1804485B01C018002300220349EA
:1057E000C37009F089FAF1E7EC260020FFF7FFFF0C
:1057F00080220A4B520410B51A60094B09491A60FD
:1058000010000B689843FBD180220021520106480A
:10581000FDF71CFB0922054B5A6710BD00E0004054
:1058200000F0004008C0004000001050000011507F
:10583000002310B5C38201338282837601610400A4
:1058400009F052FA002804D080219023074A8902E7
:10585000D150200009F010FA002802D0012323774C
:1058600010BD200009F038FAFAE7C04600201150B8
:105870007047C0467047C046002070470020704700
:105880007047C0467047C0467047C0467047C04624
:10589000024B5878431E9841C0B2704784210020C3
:1058A000024B18784007C00F7047C0468421002083
:1058B000F0B5D6464F464646C0B5314B07009A462E
:1058C0001B780E00FF2B01D0012044E0002941D0BD
:1058D000002154222B48FDF7B9FA00222A4C2B4B09
:1058E00020001A70FBF75EFB294B1C60294C20003E
:1058F000143CFBF765FB200001F00CFE264B274D06
:105900001C60274B002B2BD02800FFF7BFFA254B3C
:105910002A781860244900248946224900238846B1
:1059200010E043461B6862019B18002B12D05B6895
:10593000002B0FD098472A780134E4B2511C230081
:10594000A1420FDBA242ECD89B1A5B014B445B687F
:10595000002BEFD10020E0BCBA46B146A846F0BD0E
:105960002A78D7E75346310038001F70FFF7FAFD59
:105970000028EFD03800FFF73DFE0120EBE7C046DE
:105980006C110020842100207C210020492B002064
:10599000D821002064110020DC210020452B0020AC
:1059A0008D4E0010AC1F0020D0FC0010F0B5DE467C
:1059B00057464E464546E0B5C84B91B002931B781A
:1059C000FF2B00D13EE1C64BC64E9B465F46C64B01
:1059D0000DAC0193C54B009335686A69EFF31081F4
:1059E00072B61368002BFCD0BFF35F8FA96128004B
:1059F000210001F0BDFB6A69AB69BFF35F8F002135
:105A0000116083F31088002800D11BE16378082B14
:105A1000E2D89B00FB589F466368002BDCD0A0684F
:105A20009847D9E77F222179AF4D0A405300EB1800
:105A30009846C809804440460123303005799D438B
:105A40000571057903339D430571002A00D100E1FA
:105A50004346A74A1B7D1278934200D3EFE0A54A44
:105A60005B011568ED18002D00D1EBE0A3686279A9
:105A70002078AD69A847AFE79F4A1378002B00D183
:105A8000E0E01378013BDBB213701378002BA3D155
:105A90000122954D01212B78042013432B703423D0
:105AA000EA5C8A43EA54EA5C8243EA540133EA5CE2
:105AB0008A43EA54EA5C8243EA54237800209B46F6
:105AC00000F0A0FC602223791A40602A00D1EFE0A8
:105AD000402A00D1F5E0DB06DB0E012B00D113E1FB
