:020000041000EA
:1000000000B5324B212058609868022188439860DF
:10001000D860186158612E4B002199600221596106
:100020000121F02299502B49196001219960352056
:1000300000F044F80222904214D00621196600F024
:1000400034F8196E01211966002018661A6600F04E
:100050002CF8196E196E196E052000F02FF8012189
:100060000842F9D1002199601B49196000215960AB
:100070001A491B48016001219960EB211966A021F2
:10008000196600F012F800219960164914480160C1
:100090000121996001BC002800D000471248134993
:1000A000086003C880F30888084703B5996A0420EC
:1000B0000142FBD001200142F8D103BD02B5186610
:1000C0001866FFF7F2FF186E186E02BD00000240BE
:1000D000000000180000070000035F00212200005C
:1000E000F4000018222000A00001001008ED00E03C
:1000F00000000000000000000000000074B24E7A12
:1001000000200420F7010010CB010010CD010010E9
:10011000C9010010C9010010C9010010C901001077
:10012000C9010010C9010010C9010010CF01001061
:10013000C9010010C9010010D1010010D301001045
:10014000C1010010C1010010C1010010C101001067
:10015000C1010010C1010010C1010010C101001057
:10016000C1010010C1010010C1010010C101001047
:10017000C1010010C1010010C1010010C101001037
:10018000C1010010C1010010C1010010C101001027
:10019000C1010010C1010010C1010010C101001017
:1001A000C1010010C1010010C1010010C101001007
:1001B000C1010010C1010010C1010010C1010010F7
:1001C000EFF30580103800BE00BE00BE00BE00BECA
:1001D00000BE00BEF2EB8871109201103C9201103B
:1001E0003802001090A31AE71E481F49086006C88D
:1001F00081F3088810471D480068002801D019487D
:10020000F3E70DA40ECC002902D000F012F8F9E7B4
:100210001749184A002000E001C19142FCD116495B
:100220008847164988471649884700BEFDE701C937
:1002300001C29A42FBD370473C920110C0000020DB
:10024000F818002074AA0110000004200000042007
:1002500074AA011000100420001004200000000007
:10026000704700000000000008ED00E0000000D032
:10027000F81800204430002079840010592C001018
:1002800039840010F8B5C0460448054B10B58342C8
:1002900003D0044B002B00D0984710BDF818002065
:1002A000F81800200000000006480749091A8B10C2
:1002B000C90FC91810B5491003D0044B002B00D04A
:1002C000984710BDF8180020F81800200000000022
:1002D00010B5074C2378002B09D1FFF7D5FF054B4C
:1002E000002B02D0044800E000BF0123237010BDA2
:1002F000401D002000000000004C0110054B10B50F
:10030000002B03D00449054800E000BFFFF7CCFFF5
:1003100010BDC04600000000441D0020004C01102C
:10032000F0B54546DE4657464E46E0B51F00182359
:10033000984604008BB080440D0016004146082208
:10034000684606F03BFC2000226963690BF054FD0F
:10035000002800D0F0E0002F00DAE5E0149B002B2D
:1003600003D01A00DB680133D360002D00D1F2E026
:100370002B7F002B03D12A6A6B6AB6185F41414676
:10038000082268460296039706F018FC2269636902
:1003900006A80BF0A7FA069B20009B46079B9A46EF
:1003A000089B9946AB6A0593EB6A04930BF0DAFD60
:1003B0003023149A8561C261EB5C8046002B59D1D1
:1003C000049B002B67DB2B7F002B15D1A86BE96BFF
:1003D000002803D180231B0699420DD0059A049B67
:1003E0000BF01CFA07000E00514500DDBBE000D108
:1003F000B6E0BB4500D1C3E05B46069353462100FF
:1004000007934B46102210316846089306F0D6FB3E
:10041000099B0799089A06980BF048FA43425841FD
:1004200081444B46102206A94046089306F0C6FBBD
:100430000822684608A906F0C1FB2000069A079B1F
:100440000BF0DAFC002866D12800102206A938300B
:1004500006F0B4FB4146A06C0DF0F8FA606F431C47
:1004600000D571E063670BB0F0BCBB46B246A9464D
:10047000A046F0BD0BF092FA80197941236A9B46A1
:10048000636A9A46994261DD83468A46002399460B
:10049000049B002B97DA5B460693534607934B4623
:1004A00006A910224046089306F088FB4146A06C3E
:1004B0000DF0D0FA00289FD04E464746A8465D462C
:1004C00001365346102206A9380007930896069570
:1004D00006F074FB3900A06C0DF0BCFA0136002860
:1004E000EFD10822684608A906F068FB2000069AAA
:1004F000079B4546B8460BF07FFC00280BD128002F
:10050000102206A9383006F059FB3900A06C0DF016
:100510009DFA0020A7E714980CF046FD2000414604
:100520000BF054FE00209EE732003B0036480DF0F1
:10053000BDFB0026002711E714980CF035FD334869
:100540000DF0B4FB00208EE701238BE799429DD18B
:1005500058459BD998E714980CF026FD002082E7B7
:10056000584500D845E74823EB5C022B29D0032BE4
:100570000FD0012BCFD00023BB46B24699463BE7B4
:10058000B24500D038E7059B049A134300D033E707
:10059000E9E720000BF0E6FC2900060010223831C4
:1005A000856106F00BFB3100A06C0DF053FA011EC3
:1005B00002D0A06C0DF05AFA310020000BF006FEBC
:1005C0001AE720000BF0CEFC2900814638311022BA
:1005D000856106F0F3FA4946A06C0DF03BFA00285D
:1005E0000CD014990BF026FE414620000BF0EEFDD6
:1005F000200049460BF0EAFD002034E74946200080
:100600000BF0E4FDB7E7C046284C0110004C011088
:10061000F8B5104B04009F6A060038000FF070F91F
:100620000FF078F9092105F081FA4D1C2A003900F4
:1006300009482C3608F070F9300065650CF01EFE94
:10064000A36B002B05D001223000616D0CF0E0FBA4
:10065000A063F8BD00400540704C011070B5030068
:1006600005000122040084335C351A7028000CF068
:1006700005FEA36E002B06D0842301222800E1583A
:100680000CF0C6FBA06670BD70B50300050001222A
:10069000B4338C351A70040028000CF0EFFDEB68C1
:1006A000002B06D0B42301222800E1580CF0B0FB47
:1006B000E86070BDA420F8B580000BF027FB022392
:1006C00088225B4283658350303283500023C021EF
:1006D00010328350304A94244250C42290258050D6
:1006E00040328350043283502C4A543142500431FA
:1006F00043501839FF3964000151294C6D004451B1
:100700009224022664000051403403510434035102
:100710000C3402510434035110340651214C60351D
:100720004451C22464000051403403510434035145
:100730000C340251EC2280250024520083504032B8
:100740002D06821814605560070088222137920018
:100750008350FF3710328750603704328750043A95
:1007600087183C3A875004328650043281547432E0
:100770008218146055609E22920083500200A223CA
:10078000C0329B00C250C2183C3BC2500433C1501F
:100790000433C154F8BDC04611060010944C01103A
:1007A0005D06001089060010F8B5C023CE469946B4
:1007B00030334746984603000122E833814480B530
:1007C0000600070005001A700400804448460CF03B
:1007D00055FD4B46DB68213751368135FF37FF36F3
:1007E000FF35002B07D0E8230122E15848460CF0E2
:1007F0000FFB4B46D86000234246404693620CF004
:100800003DFD4346DB68002B08D08C235B00E1589C
:10081000012240460CF0FCFA4346D8600023380021
:10082000BB620CF02BFDFB68002B07D0A4235B0000
:1008300001223800E1580CF0EBFAF860134B30005D
:10084000B3620CF01BFDF368002B07D0BC235B00E8
:1008500001223000E1580CF0DBFAF0600C4B28006C
:10086000AB620CF00BFDEB68002B07D0D4235B00D0
:1008700001222800E1580CF0CBFAE860054807F0A7
:10088000C3FFC0BCB946B046F8BDC046984C011085
:10089000A44C0110AC4C0110F8B507000300002275
:1008A00006000500E833C0371A70040038000CF069
:1008B000E5FCFB6851368135FF36FF35002B06D04D
:1008C000E82301223800E1580CF0A2FAF860124B3C
:1008D0003000B3620CF0D2FCF368002B07D0BC23CD
:1008E0005B0001223000E1580CF092FAF0600B4BF3
:1008F0002800AB620CF0C2FCEB68002B07D0D423BD
:100900005B0001222800E1580CF082FAE8600448FC
:1009100007F07AFFF8BDC046C44C0110CC4C011062
:10092000D44C0110F8B54746CE46050080B5036D9E
:1009300006000400C76A00201A8DD98D91469A8D51
:100940005B8D21358046F036FF359F4201DA9742B4
:1009500028DB00233000B3620CF090FCF368002B1E
:1009600007D08C235B0001223000E1580CF050FAD4
:10097000F060636B2800AB620CF080FCEB68002B2E
:1009800007D0A4235B0001222800E1580CF040FAB4
:10099000E8604F4502DB4346002B08D1C0BCB94696
:1009A000B046F8BD01238F4236DA9846D1E71C489D
:1009B00007F02AFF250000234C225135A35223645F
:1009C000184BFF35AB6228000CF058FCEB68002B8D
:1009D00007D0BC235B0001222800E1580CF018FA74
:1009E000E8602500104B8135FF35AB6228000CF024
:1009F00045FCEB68002B07D0D4235B0001222800C4
:100A0000E1580CF005FAE86090231B01E3186362DB
:100A100001222823E254C1E70023984699E7C04603
:100A2000F04C0110184D0110204D0110F8B547464B
:100A3000CE46050080B5036D06000400C76A00209D
:100A40001A8DD98D91469A8D5B8D21358046F03671
:100A5000FF359F4201DA974228DB00233000B36262
:100A60000CF00CFCF368002B07D08C235B000122F8
:100A70003000E1580CF0CCF9F060636B2800AB62F9
:100A80000CF0FCFBEB68002B07D0A4235B000122D9
:100A90002800E1580CF0BCF9E8604F4502DB434602
:100AA000002B08D1C0BCB946B046F8BD01238F4227
:100AB00035DA9846D1E71B4807F0A6FE25004C23FF
:100AC00000225135E252184BFF35AB6228000CF082
:100AD000D5FBEB68002B07D0BC235B00012228006C
:100AE000E1580CF095F9E8602500104B8135FF3591
:100AF000AB6228000CF0C2FBEB68002B07D0D423BC
:100B00005B0001222800E1580CF082F9E86096238E
:100B10001B01E318636201222823E254C2E7002389
:100B200098469AE7284D0110504D0110584D01107C
:100B3000F8B54746CE46050080B5036D06000400B3
:100B4000C76A00201A8ED98D91469A8D5B8D21350A
:100B50008046F036FF359F4201DA974228DB636B0F
:100B60003000B3620CF08AFBF368002B07D08C23B3
:100B70005B0001223000E1580CF04AF9F0600023DC
:100B80002800AB620CF07AFBEB68002B07D0A423A3
:100B90005B0001222800E1580CF03AF9E8604F456B
:100BA00002DB4346002B08D1C0BCB946B046F8BDB5
:100BB00001238F4235DA9846D1E71B4807F024FE1F
:100BC00025004C2300225135E252184BFF35AB6211
:100BD00028000CF053FBEB68002B07D0BC235B0014
:100BE00001222800E1580CF013F9E8602500104BB1
:100BF0008135FF35AB6228000CF040FBEB68002B21
:100C000007D0D4235B0001222800E1580CF000F942
:100C1000E86096231B01E318636201222823E25453
:100C2000C2E7002398469AE7284D0110504D011065
:100C3000584D011010B5024807F0E6FD10BDC04642
:100C4000604D01108C23C358F0B5996A4C220023E3
:100C500005000400060087B0C1630364436401AF6C
:100C600083525135304807F057FEFF35E36B1421AE
:100C70002E4A380007F032FB2800AF620CF0FEFA73
:100C8000EB688136FF36002B07D0BC235B000122C6
:100C90002800E1580CF0BCF8E860E36B012B1FD092
:100CA0009A1E032A04D9063B032B2BD907B0F0BDAB
:100CB0001F4B3000B3620CF0E1FAF368002B07D051
:100CC000D4235B0001223000E1580CF0A1F8F06061
:100CD0008A231B01E318636201222823E254E5E71B
:100CE000144B3000B3620CF0C9FAF368002B07D044
:100CF000D4235B0001223000E1580CF089F8F06049
:100D00000D4BE7E70D4B3000B3620CF0B7FAF36818
:100D1000002B07D0D4235B0001223000E1580CF0F7
:100D200077F8F060064BD5E7884D01109C4D011017
:100D3000AC4D0110A44D011088080000B44D011005
:100D4000B8080000A822F0B5574645464E46DE4694
:100D5000520090460400E0B505000600036D804493
:100D6000988D1A8D8446598DD88D1B8E21359A46C3
:100D7000E36A012789B0F036FF35934200DB002794
:100D8000FFB20197276BB94693423DDA4C22A25C31
:100D90009246012257465740BA468B424BDA83426D
:100DA00055DA00224B469346B36230000CF066FAE7
:100DB000F368002B07D08C235B0001223000E15840
:100DC0000CF026F8F0604B462800AB620CF056FAA7
:100DD000EB68002B07D0A4235B0001222800E15818
:100DE0000CF016F8E8605346002B00D088E04C2346
:100DF000019AE2545B46002B32D109B0F0BCBB46ED
:100E0000B246A946A046F0BD934210DD8B420EDDEE
:100E1000634500DC96E0834200DC93E00122534509
:100E200000DC92E0934600224B469246BCE700224B
:100E300092468B42B3DB8342B3DAFC2148468905F4
:100E400005F039FD00224B4693468146ACE7FC2174
:100E50004846890505F02FFD0022031C9346A3E7B1
:100E60003B4807F0D1FC00233000B3620CF006FAD7
:100E7000F368002B07D08C235B0001223000E1587F
:100E80000BF0C6FFF06000232800AB620CF0F6F90F
:100E9000EB68002B07D0A4235B0001222800E15857
:100EA0000BF0B6FFE86042462A4B404693620CF0D6
:100EB000E5F94346DB68002B08D0BC235B00E15812
:100EC000012240460BF0A4FF4346D8602500224B88
:100ED0008135FF35AB6228000CF0D0F9EB68002BB0
:100EE00007D0D4235B0001222800E1580BF090FFCB
:100EF000E8601A4B0122E31863622823E2547CE77E
:100F000003A98946236C14210133154A23644846FA
:100F100007F0E4F943464A4640469A620CF0AEF9BF
:100F20004346DB68002B08D0BC235B00E15801225C
:100F300040460BF06DFF4346D860216C094807F02E
:100F4000EBFC54E70022924675E700226AE7C046B0
:100F5000E84D0110044E0110104E011078090000F8
:100F6000BC4D0110C44D0110F0B54F464646D64663
:100F700004000500C0B50600036D21351A8D588D9B
:100F8000DB8D01279C46E36A86B0F036FF3593423D
:100F900000DB00270021FFB28946934206DA4C228B
:100FA000A25C91460122494651408946226B9046F7
:100FB000924683422CDA634533DA53463000B362FB
:100FC0000CF05CF9F368002B07D08C235B00012246
:100FD0003000E1580BF01CFFF06043462800AB6284
:100FE0000CF04CF9EB68002B07D0A4235B00012226
:100FF0002800E1580BF00CFFE8604B46002B17D19E
:101000004C23E75406B0E0BCBA46B146A846F0BD52
:101010006345D2DAFC21101C890505F04CFC8046A2
:10102000CBE7FC21101C890505F045FC8246C4E78E
:101030002500236C01AE01335135FF3523641421A3
:10104000264A300007F04AF92800AE620CF016F983
:10105000EB68002B07D0BC235B0001222800E1587D
:101060000BF0D6FEE860216C1D4807F055FC236CA0
:10107000012B2ED0022BC3D11A4807F0C5FB1A4B07
:101080002800AB620CF0FAF8EB68002B07D0BC2309
:101090005B0001222800E1580BF0BAFEE860250051
:1010A000124B8135FF35AB6228000CF0E7F8EB6896
:1010B000002B07D0D4235B0001222800E1580BF05D
:1010C000A7FEE8600A4B0122E31863622823E2547A
:1010D00096E7084807F098FB92E7C046184E0110C3
:1010E000204E0110484E0110744E0110804E011028
:1010F000E8080000384E0110F0B54F464646D64687
:1011000004000500C0B50600036D21351A8D588D09
:10111000DB8D01279C46E36A86B0F036FF359342AB
:1011200000DB00270021FFB28946934206DA4C22F9
:10113000A25C91460122494651408946226B904665
:10114000924683422CDA634533DA53463000B36269
:101150000CF094F8F368002B07D08C235B0001227D
:101160003000E1580BF054FEF06043462800AB62BB
:101170000CF084F8EB68002B07D0A4235B0001225D
:101180002800E1580BF044FEE8604B46002B17D1D5
:101190004C23E75406B0E0BCBA46B146A846F0BDC1
:1011A0006345D2DAFC21101C890505F084FB8046DA
:1011B000CBE7FC21101C890505F07DFB8246C4E7C6
:1011C0002500236C01AE01335135FF352364142112
:1011D000204A300007F082F82800AE620CF04EF88A
:1011E000EB68002B07D0BC235B0001222800E158EC
:1011F0000BF00EFEE860216C174807F08DFB216CA8
:10120000012922D0022902D04B1F012BC0D8250072
:10121000124807F081FB8135114BFF35AB62280086
:101220000CF02CF8EB68002B07D0D4235B000122D4
:101230002800E1580BF0ECFDE8608D231B01E3185A
:10124000636201222823E254A2E7064807F0DCFA91
:101250009EE7C046884E0110204E0110944E0110AA
:10126000804E0110384E0110F0B54746CE460500BD
:1012700080B5036D06000400C76A00201A8DD98D61
:1012800091469A8D5B8D2135804687B0F036FF35CB
:101290009F4201DA97425FDB00233000B3620BF01C
:1012A000EDFFF368002B07D08C235B000122300098
:1012B000E1580BF0ADFDF060636B2800AB620BF002
:1012C000DDFFEB68002B07D0A4235B000122280080
:1012D000E1580BF09DFDE8604F4538DB4346002B9D
:1012E00035D02600250000234C22216C5136813553
:1012F000FF36FF35A352052936DD2364304807F059
:1013000083FA304B3000B3620BF0B8FFF368002B68
:1013100007D0BC235B0001223000E1580BF078FDC0
:10132000F060294B2800AB620BF0A8FFEB68002BA4
:1013300007D0D4235B0001222800E1580BF068FDA0
:10134000E860224BE318636201222823E25407B0CD
:10135000C0BCB946B046F0BD01238F4201DA9846C1
:101360009AE70023984697E701AF194807F0D4FAA7
:10137000236C1421174A380006F0B0FF3000B76222
:101380000BF07CFFF368002B07D0BC235B0001222D
:101390003000E1580BF03CFDF0600F4B2800AB62D1
:1013A0000BF06CFFEB68002B07D0D4235B0001220D
:1013B0002800E1580BF02CFDE860084BC2E7C0465E
:1013C000B04E0110E44E0110EC4E0110180900005F
:1013D000F44E0110884E0110B44D0110B808000001
:1013E000A8225200F0B5DE46934630329446574666
:1013F0004E46454684446246E0B5036D8DB0059285
:10140000D98D0400050006001A8D8344588D029181
:1014100001211F8EE36A21358C46F036FF35934259
:1014200001DB00218C466146C9B2039101218C4643
:10143000BB4201DB00218C466146C9B20491002108
:101440008946934206DA4C22A25C91460122494623
:101450005140894600229046BB4204DA4D32A75CD7
:101460004C3A5740B846276B029ABA46834239DA5B
:10147000934240DA53463000B3620BF0FFFEF3684C
:10148000002B07D08C235B0001223000E1580BF0C9
:10149000BFFCF0602800AF620BF0F0FEEB68002BA1
:1014A00007D0A4235B0001222800E1580BF0B0FC18
:1014B000E8600122E16B8B1E9A429B415D4201353F
:1014C0000A421FD14B46002B5AD14C23039AE254B7
:1014D000049A0133E2540DB0F0BCBB46B246A946B3
:1014E000A046F0BD9342C5DAFC21381C890505F001
:1014F000E2F9071CBEE7FC21381C890505F0DBF981
:101500008246B7E74346002BDFD0236C07AE01339A
:1015100023643C4A00913000142106F0DFFE5B4654
:1015200058469E620BF0AAFE5B46DB68002B08D093
:10153000BC235B00E158012258460BF069FC5B4676
:10154000D860E26B216C304807F0E6F9236CAB42BF
:10155000BBD1E16B2D4807F0DFF9059D2C4B28002E
:10156000AB620BF08BFEEB682800002B06D0D42377
:101570005B000122E1580BF04BFCE860254B3BE09F
:10158000236C07AE01332364234A009130001421F9
:1015900006F0A4FE5B4658469E620BF06FFE5B466B
:1015A000DB68002B08D0BC235B00E15801225846C1
:1015B0000BF02EFC5B46D860E26B216C174807F0FD
:1015C000ABF9236CAB4200D07FE7E16B144807F026
:1015D000A3F9059D134B2800AB620BF04FFEEB689F
:1015E0002800002B06D0D4235B000122E1580BF029
:1015F0000FFCE86093231B01E31863620122282398
:10160000E25462E7704F01107C4F0110A04F0110AF
:10161000BC4F011048090000244F0110304F011049
:10162000544F0110804E0110A8225200F0B5DE4642
:1016300093463032944657464E4645468444624669
:10164000E0B5036D8DB00592D98D0400050006004C
:101650001A8D8344588D029101211F8EE36A213532
:101660008C46F036FF35934201DB00218C46614603
:10167000C9B2039101218C46BB4201DB00218C469B
:101680006146C9B2049100218946934206DA4C2290
:10169000A25C91460122494651408946002290466B
:1016A000BB4204DA4D32A75C4C3A5740B846276B30
:1016B000029ABA46834239DA934240DA53463000FE
:1016C000B3620BF0DBFDF368002B07D08C235B00CB
:1016D00001223000E1580BF09BFBF0602800AF6264
:1016E0000BF0CCFDEB68002B07D0A4235B0001229C
:1016F0002800E1580BF08CFBE8600122E16B8B1FA6
:101700009A429B415D4201350A421FD14B46002B54
:101710005AD14C23039AE254049A0133E2540DB097
:10172000F0BCBB46B246A946A046F0BD9342C5DA1E
:10173000FC21381C890505F0BEF8071CBEE7FC211A
:10174000381C890505F0B7F88246B7E74346002BF9
:10175000DFD0236C07AE013323643C4A0091300094
:10176000142106F0BBFD5B4658469E620BF086FDD9
:101770005B46DB68002B08D0BC235B00E1580122EC
:1017800058460BF045FB5B46D860E26B216C304855
:1017900007F0C2F8236CAB42BBD1E16B2D4807F0D8
:1017A000BBF8059D2C4B2800AB620BF067FDEB6886
:1017B0002800002B06D0D4235B000122E1580BF057
:1017C00027FBE860254B3BE0236C07AE0133236425
:1017D000234A00913000142106F080FD5B465846F4
:1017E0009E620BF04BFD5B46DB68002B08D0BC23F0
:1017F0005B00E158012258460BF00AFB5B46D860BB
:10180000E26B216C174807F087F8236CAB4200D0DD
:101810007FE7E16B144807F07FF8059D134B280024
:10182000AB620BF02BFDEB682800002B06D0D42315
:101830005B000122E1580BF0EBFAE86093231B01F7
:10184000E318636201222823E25462E7704F01101B
:101850007C4F0110A04F0110BC4F0110480900003F
:10186000244F0110304F0110544F0110804E0110D1
:10187000F0B5CE46474604000500060080B5036D6E
:1018800021359A8D598D94461A8ED88D91461B8D8F
:10189000E26A276B87B0F036FF359A4201DD8A4253
:1018A00035DC8A423DDA824228DA002290463B1C2F
:1018B000B36230000BF0E2FCF368002B07D08C23FE
:1018C0005B0001223000E1580BF0A2FAF060280022
:1018D000AF620BF0D3FCEB68002B07D0A4235B00B6
:1018E00001222800E1580BF093FAE8604346002BF0
:1018F00023D107B0C0BCB946B046F0BDFC21381CAE
:10190000890504F0D8FF0022031C9046D0E7624509
:1019100007DD824205DD01234A4565DD98463B1C13
:10192000C6E78242C1DAFC21381C890504F0C3FFF6
:1019300000223B1C9046071CBAE7E16B2B4806F0DF
:10194000EBFF00233000B3620BF098FCF368002B30
:1019500007D08C235B0001223000E1580BF058FACD
:10196000F06000232800AB620BF088FCEB68002BD2
:1019700007D0A4235B0001222800E1580BF048FAAD
:10198000E860250001AE5135E36BFF351421184A9C
:10199000300006F0A3FC2800AE620BF06FFCEB6891
:1019A000002B07D0BC235B0001222800E1580BF07C
:1019B0002FFAE86025000F4B8135FF35AB62280018
:1019C0000BF05CFCEB68002B07D0D4235B000122FA
:1019D0002800E1580BF01CFAE860074B0122E318DD
:1019E00063622823E25484E7002397E7C44F011081
:1019F000E04F0110104E011078090000F8B5992051
:101A0000DE4657464E4645460001E0B50AF07EF9EF
:101A100003000200583303658C239432C067C25020
:101A20002C33DC22C0500023D82152008350FE4AC0
:101A300049004250DA225200805040328350FB4D20
:101A4000043283500C3285500432835001228424A6
:101A500068314250F649A400015185218900405067
:101A600040314350043143500C3145500431435010
:101A700002218A469E215446890044509C24ED4907
:101A8000A40001519D218900405040314350043150
:101A900043500C3145508721032709014118583420
:101AA000015110340751B427E34CBF00C451B52491
:101AB000A400005140340351043403510C34055147
:101AC000DE4C0719CA24A40007510424A346CE24DF
:101AD0005E46CC27A4000651D94CBF00C451CD248A
:101AE000A400005140340351043403510C34055117
:101AF0008A242401A446E22484446746A4000751B2
:101B0000052710340751E427CE4CBF00C451E5240B
:101B1000A400005140340351043403510C340551E6
:101B2000C94CA446FA2484446746A40007510627FA
:101B300010340751FC27C54CBF00C451FD24A4003C
:101B40000051C34C035104340351C24C05518D2440
:101B50002401A446892484446746E40007510727EA
:101B6000103407518A27BC4CFF00C451BB4C0051B4
:101B7000BB4C035104340351BA4C0551BA4CA44632
:101B8000952484446746E400075108271034075120
:101B90009627B64CFF00C451B54C0051B54C0351CB
:101BA00004340351B44C055190242401A446A124CB
:101BB00084446746E4000751092710340751A227DF
:101BC000AE4CFF00C451AE4C0051AE4C0351043436
:101BD0000351AD4C0551AD4CA446AD248444674639
:101BE000E40007510A24A446AF246746E4000751E5
:101BF000AE27A74CFF00C451A64C0051A64C035180
:101C000004340351A54C055193242401A046B92462
:101C100080444746E40007510B2710340751BA2788
:101C20009F4CFF00C4519F4C00519F4C0351043402
:101C300003519E4C05519E4CA046C5248044474606
:101C4000E40007510C2710340751C627994CFF00B8
:101C5000C451994C0051994C035104340351984C90
:101C6000055196242401A046D12480444746E4002F
:101C700007510D2710340751D227924CFF00C45151
:101C8000914C0051914C035104340351904C055137
:101C9000904C0519DD24E40005514034A046802510
:101CA0008044002447462D063C607D60E627FF0007
:101CB000C3518427BF00B946E8278144FF004E4640
:101CC000B9468144C6514F46834E875104368251EE
:101CD000824E8255D8267600B146F32681444F467F
:101CE000F6008751183EB046804446463460756021
:101CF000F126F60083511036B14681444F46784EA6
:101D0000875104368251774A774F83547432821850
:101D100014605560FC22D2008350B4229200904699
:101D2000FE2280444646D2008650CC229200904645
:101D3000804446466D4A8650E42292009046FF2237
:101D400080444646D2008650FC2292009046804451
:101D50004646674A86508A22D200904680228044B6
:101D60004646120186509622D2009046804446464E
:101D7000604A8650A222D2009046804446465E4A7F
:101D80008650AE22D2009046804446465B4A86503A
:101D9000BA22D200904681228044464612018650E3
:101DA000E13AFF3A904680444646554A8650243AE6
:101DB000904680444646534A8650664604328650D2
:101DC0005646183A8650B0328218146055604E4A12
:101DD0004E4D83509C22920084184D4A8450D93A2B
:101DE000FF3A84184B4A8450494A84184A4A84501E
:101DF0005C4604328650494A8450020087241832D7
:101E000024010251464C4451464C00250619002439
:101E100034607560882636018355084E8251424EE3
:101E2000C6518926360181E0A9070010944C0110A3
:101E300099080010450C0010450D0010880800009E
:101E4000690F0010F9100010B808000069120010A6
:101E5000340400004404000025090010540400006C
:101E600094040000A4040000E8080000E11300103E
:101E7000B4040000F404000004050000291600105A
:101E80001405000054050000640500001809000056
:101E90002D0A001074050000B4050000C405000000
:101EA000310B0010D40500001406000024060000C9
:101EB0004809000071180010340600007406000084
:101EC00084060000350C001094060000D4060000C3
:101ED000E406000078090000040700000C07000079
:101EE0005C070000640700008C080000F407000095
:101EF000FC07000004080000080800000C080000AF
:101F000014080000B407000058080000740800001E
:101F1000680800006C0800002C0800001808000089
:101F2000EC4F011078080000F44F0110861934605E
:101F30007560434E434F835508368251424EC65119
:101F4000424E434F8619346075608B2636018355A7
:101F5000404E8251404EC6518C263601861934605F
:101F600075603E4E3E4F8355083682513D4EC651F8
:101F70003D4E3E4F8619346075608E26360183557E
:101F80003B4E82513B4EC6518F2636018619346036
:101F90007560394E394F835508368251384EC651D7
:101FA000384E394F86193460756091263601835555
:101FB000364E8251364EC65192263601861934600D
:101FC0007560344E344F835508368251334EC651B6
:101FD000334E344F8619346075609426360183552C
:101FE000314E8251314EC6519526360186193460E4
:101FF00075602F4E2F4F8355083682512E4EC65195
:102000002E4E8619346075609726360183552C4E06
:1020100082512C4A2C4E825198221201821814604F
:1020200055602A4A835428228361C1610162436258
:102030008354F0BCBB46B246A946A046F8BDC04694
:1020400098080000A408000008500110A80800002B
:10205000BC080000B808000020500110C8080000AB
:10206000D408000038500110D8080000EC08000027
:10207000E808000048500110F808000004090000BA
:1020800054500110080900001C0900001809000044
:102090006C50011028090000340900008450011020
:1020A000380900004C090000480900009850011050
:1020B0005809000064090000B050011068090000D0
:1020C00078090000C05001107C0900008809000058
:1020D0009423F0B5C76AC5583433C4583B7D066EA7
:1020E00083B0002B0CD1337D002B1AD12B7D002B1C
:1020F00028D1237D002B36D10CF064FE03B0F0BD57
:102100000023802200210020009310330CF0C2FD38
:10211000012300220021B86A0CF068FB337D002BFC
:10212000E4D00023802210210020009310330CF013
:10213000B1FD012310220021B06A0CF057FB2B7D6A
:10214000002BD6D0002380222021002000931033C2
:102150000CF0A0FD012320220021A86A0CF046FB10
:10216000237D002BC8D00023802200933021002043
:1021700010330CF08FFD012330220021A06A0CF0F7
:1021800035FBB9E7084B10B51A78002A00D010BD0E
:1021900001321A700CF0A8FA04480CF09FFA0020E3
:1021A0000CF0AEFAF3E7C046353000208072011023
:1021B000F0B5DE20C646800000B509F0A7FD03009B
:1021C0003433C3623433036602008C2380659C324F
:1021D000C0500833C2502C33C05034320833C25080
:1021E0002C338422C0500023802152008350464A61
:1021F000490042508222B424B0255200805040321F
:1022000083504249043283500C328150043283504F
:10221000583AFF3A640002513D4C6D004451B224DB
:102220006400005140340351043403510C34015113
:10223000DC21441C49004350FF3458314450010014
:1022400080250024F9312D06FF310C604D6080217E
:1022500089004350103146183C39465004314250F1
:1022600004314354743141180C604D60962189004B
:102270004350B03E1031465047183C394750043166
:10228000862742500421BF00C1519037C7193C60D6
:102290007D60AC27BF00C3511037BC4684448846DC
:1022A0006146C6513C3FC15141460437C251183FB7
:1022B000C151C021890047183C607D60C227BF0022
:1022C000C3511037BC4684446146C6513C3FC1519E
:1022D00041460437C251183FC151D62189004718E1
:1022E0003C607D60D824A4000351DC239B00C650D1
:1022F000C4183C3BC4500433C2504246183BC25041
:1023000080BCB846F0BDC04685210010944C011039
:10231000D1200010036D9B6A836470478423C358E7
:102320009B6AC3647047C046B823F0B54E46DE468C
:1023300057464546C358E0B59946EC230400C558B6
:1023400083B0806809F01CFBA26BE36B06000F00F2
:10235000002B11DD30003900801A9941002915DC6D
:10236000002900D17BE0A663E76303B0F0BCBB4665
:10237000B246A946A046F0BD002BF4D1002AF2D007
:1023800030003900801A99410029E9DD90235B0073
:1023900098464B469B6AA0449A4604F0F7FA3249A5
:1023A00004F089FA04F000FB534600900191206C80
:1023B000181A03F0C5FE2D4A2D4B03F04AFE0022E9
:1023C0002C4B03F028FE009A019B03F024FE03F03F
:1023D000FFFEAD6A8146606C281A03F0B1FE234A05
:1023E000234B03F036FE0022224B03F014FE009A2A
:1023F000019B03F010FE03F0EBFE534649462364B5
:1024000083466564A06C04F03CFA434698624046FB
:102410000AF034FF4346DB68002B08D0A4235B009E
:10242000E158012240460AF0F3FC4346D8602500FB
:10243000E06C594604F025FA5135FF35A8622800B2
:102440000AF01CFFEB68002B00D18CE7BC235B007B
:1024500001222800E1580AF0DBFCE86083E7064B24
:10246000984200D87FE791E75F708930C3718BB6DF
:1024700065BCB93F008076403F420F00F0B5802038
:10248000C646C00000B509F041FC03000200583305
:10249000036584238C32C067C2502C33C050343261
:1024A0000833C2502C33C05034320833C250A622F5
:1024B0002C33C0501B3BFF3B5200835030328350C3
:1024C0000023C0210C328350474A49004250C222A7
:1024D000F424F025520080504032835043490432A6
:1024E00083500C32815004328350D83AFF3A640052
:1024F00002513F4C6D004451F224640000514034BD
:102500000351043403510C340151DF3D04340351B1
:10251000FF3D103405519025364CAD0044519124B7
:10252000A400005140340351043403510C340151D0
:10253000A621802500248900435040312D064118F2
:102540000C604D600600B821813689004350FF368B
:102550001031465046183C3946500431A8264250A6
:102560000421B600815190368619346075600700E9
:10257000CE26E137B6008351FF37103687518719D1
:102580003C3E875104368251183E8151903686195F
:1025900034607560E426B6008351513EFF3EE82763
:1025A000B046BF008044BC4646468444C651664699
:1025B0003C3FC651F8260437C251B600183FC151FE
:1025C00087193C607D60FA24A4000351FE23444631
:1025D0009B00C450C4183C3BC4500433C250183B49
:1025E000C15080BCB846F0BD15230010944C0110BA
:1025F0001D23001029230010C36A70B59C6A0021B6
:10260000201C04F087F9FE21431E984164006408F1
:1026100005008905201C04F085F9002805D007482D
:10262000290001220CF03CFF70BD0549201C04F07C
:1026300042F904F0A3F980B2F2E7C046FF0F0000B0
:1026400000F07F45036E70B59C6A0021201C04F0E9
:1026500061F9FE21431E9841640064080500890564
:10266000201C04F05FF9002805D00748290000224B
:102670000CF016FF70BD0549201C04F01CF904F095
:102680007DF980B2F2E7C046FF0F000000F07F4501
:1026900010B501200CF0D6FE10BDC046B02070B5BC
:1026A000800009F033FB03003433C3623433036624
:1026B0008C238065A022C050002398218350384A83
:1026C000802442509C22F8258050403283500432AE
:1026D0008350344A54314250043143506400EF393E
:1026E0000151314C4451FC24005140340351043415
:1026F00003510C34025104340351F63D103405519A
:102700002A4C5735FF354451AE2464000051403403
:102710000351043403510C340251D82204005200F6
:102720008350983458328450020080250024F132BE
:102730002D06FF3214605560FC2252008350103287
:1027400086183C3A865004328150043283547432E5
:102750008218146055609422113E92008350FF3E0F
:102760001032865086183C3A8650043284268150B6
:102770000422B60082519036861934607560AA240E
:10278000A40003510400AE2359349B00FF34C4500D
:10279000C4183C3BC4500433C150183BC25070BDF8
:1027A00091260010944C0110F925001045260010C8
:1027B000F0B5C646836B04009E6A416B00B5070006
:1027C000301C04F061F89423E16A051C6063301C3E
:1027D000984604F070F8216B061C281C04F06BF876
:1027E000011C301C04F050F843466C37E0503800B0
:1027F0000AF044FDA36F002B06D0434601223800A7
:10280000E1580AF005FBA06780BCB846F0BDC046A1
:10281000AC2070B5400009F079FA030040338363BF
:10282000A8220023A02140668350134A80254250ED
:10283000A422805040328350043283500F4A5431D6
:102840004250F82283500200002439322D06FF3214
:1028500014605560A0225200835002005133FF33B0
:10286000A032C250C2183C3BC25001220433C250B5
:10287000183B0332C25070BDB1270010944C0110B8
:10288000F8B5CE464746050006008021224A0400DE
:1028900080B5D06890350006000F603601304900E1
:1028A00053680B42FCD10138176A0028F8D1802107
:1028B000D068194A0004000F7F4201308900536834
:1028C0000B42FCD10138536A0028F8D15B4298468C
:1028D00088233000E75099460AF0D0FCE36E002BC5
:1028E00006D04B4601223000E1580AF091FAE0662A
:1028F00043462800AB620AF0C1FCEB68002B06D00F
:10290000B82301222800E1580AF082FAE860C0BC2E
:10291000B946B046F8BDC04600002050F0B5D646D6
:102920004F4646460025C0B53D4C8AB020003D4983
:1029300008F002FD0223082200212000009508F083
:1029400027FE00220121082001F0A4FC0022012121
:10295000092001F09FFC8026F827C02376021B0384
:102960007F0202A9102206A89A46049302960397B2
:10297000059504F023F92C4B06A9102202A89946CC
:10298000079304F01BF98023DB020593274B0022F9
:10299000039380231B0398460493002102AB20007D
:1029A00008F050FE01222368012113432360200018
:1029B000022300950B3208F0EBFD002201210C20D0
:1029C00001F068FC002201210D2001F063FC534658
:1029D00002A9102206A8049302960397059504F015
:1029E000EDF84B4606A9102202A8079304F0E6F87A
:1029F000C023DB0205930E4B0022039343460121C3
:102A00000493200002AB08F01DFE0222236813434A
:102A100023600AB0E0BCBA46B146A846F0BDC04645
:102A200000002050945C011080770100807701083D
:102A30008077010C8C2070B5800009F067F90300E5
:102A40003433C362C8220023C02180658350274AE3
:102A500094244250C422902580504032835024490F
:102A6000043283500C32815004328350183AFF3ABA
:102A7000640002511F4C6D004451922464000051C7
:102A800040340351043403510C340151BC2104007F
:102A900049004350C034583144500100802500247F
:102AA000B9312D06FF310C604D600600E021D136B2
:102AB00049004350FF362C3946500431425004310E
:102AC0004354743141180C604D6086218900435095
:102AD00001008A2321319B00FF31C150C1183C3BCA
:102AE000C1500433C250183BC25070BD1D290010A4
:102AF000944C0110812800102823026BD25C04330F
:102B0000C25470472C2370B5C35C0400002B34D131
:102B10002D23C35C002B1CD00CF0CAFB2000C0305E
:102B2000030019490B435B071CD18B1CC31A042BF0
:102B300018D94A880B8812041A43CB888D881B0445
:102B40002B430CC00B899834200023860AF096FB97
:102B500070BD0CF075FB2000C03003000B490B4327
:102B60005B07E2D00B88983423854B8863858B887C
:102B7000A385CB88E3850B89E6E70CF081FA2D234A
:102B80000122E254E4E7C046CC2F0020301B002095
:102B9000902070B5800009F0B9F803003833036362
:102BA000343343669023C065D822C0500023D0211F
:102BB0008350264A9C244250D4229825805040328B
:102BC00083502349043283500C32815004328350A5
:102BD000283AFF3A640002511E4C6D0044519A2479
:102BE0006400005140340351043403510C3401514A
:102BF000C42149004350010080250024C9312D061D
:102C0000FF310C604D60E821060049004350D0368A
:102C10001031465046183C3946500431425018395C
:102C20004250903141180C604D608A218900435018
:102C300001008E2331319B00FF31C150C1183C3B54
:102C4000C1500433C250183BC25070BDF92A001065
:102C5000944C0110052B001010B5002100200AF043
:102C600033FC10BD7047C046002210B501240B4B49
:102C70008AB01B680892079206920392029204326D
:102C8000059401920E34013A009205490022049401
:102C900004480AF029FA0AB010BDC04614220020E8
:102CA000C8500110781A0020014B036001207047C2
:102CB000781A0020F0B5DE4657464E464546E0B548
:102CC00099B0FDF7F7FCFE4B82469946836080235E
:102CD000002100229B00534419605A608223002186
:102CE000F8489B0053441860596052464B46E13205
:102CF0009B6FFF321A608B22514600209200885051
:102D00000121F1482C325244106051609822002178
:102D1000002092005244106051608E229200524472
:102D20005A60A123002552469B00D5508027534668
:102D300000263F06F8331E665F661E605F606033E4
:102D40001E665F66FEF75AFE4B46836002235B42B7
:102D5000984642464146EE33C2503033C25030337B
:102D6000C2503033C250AF32FF32EC3B04008150CE
:102D70004165C15048462D3AFF3A83582000B13092
:102D8000FF301860DC23E362D04BE22023636363EF
:102D9000CF4B0121A3634C23C000E5632564656428
:102DA000A564E5522318CB48002218605960E3203F
:102DB000C00023180021484619605A60836FDE2046
:102DC000C000221800209A60C34B9835E0502000C4
:102DD000E930FF30066047609220800023186030A1
:102DE0001E605F60231860301E605F6023186030D3
:102DF0001E605F60231860301E605F6023186030C3
:102E00001E605F60231860301E605F6023186030B2
:102E10001E605F60231860301E605F6023186030A2
:102E20001E605F60231860301E605F602318603092
:102E30001E605F60231860301E605F602318484684
:102E40001E605F60435920005B6818301860FFF710
:102E5000AFF90200484690604046106350665051FA
:102E60004546CE30155080214D466B581100013239
:102E7000FF325A600B003933FF331E605F601E66FD
:102E80005F660A91FFF7FAFAFC239B05C362FA23F7
:102E90004A469B05826003634246882305004265DB
:102EA000C2504046BE32A8503432A85000230022FF
:102EB0000020AA63EB632B00A864E86483468620A5
:102EC000B933FF3380002A646A641E605F602B1888
:102ED00060301E605F602B181E605F60FFF7DEFBD6
:102EE000010002004846886040464B460863486639
:102EF00082301B5898329A600B00D0331E665F6692
:102F00001E605F6060331E665F660B91FFF780FC9A
:102F10004946EB6A8160C3622B6B41460363982389
:102F2000C1505B46C16343630990D8300660476077
:102F3000FFF76EFC4B468360EB6A9821C3622B6BF4
:102F40000363030040465850594601935963D863C0
:102F5000D8331E605F60FFF76DFD83460100484671
:102F60008C2388604046C8504346BE300B500B63EC
:102F7000802049460B585946C031D96038310E601F
:102F80004F600E664F666031FFF702FE494602232E
:102F90008160982143509339A633C15043468946F6
:102FA000C731435041464363836603000331818543
:102FB0000C9009336930FF33FF301E605F6006609C
:102FC00047605646454B5746F36000267E61E03623
:102FD0008846B95152460331012008F079FE0C367B
:102FE000B85152460421012008F072FE5646E827E7
:102FF0005246F0510421012008F06AFE5746E426AB
:10300000B85140275744076051460E9747465C36F3
:103010008F5152460421012008F05AFE56464C3783
:10302000FF37F051524604210120A42608F050FE3B
:1030300051467600885152460421012008F048FE8E
:103040005646083FF0517026D02156440660574638
:103050000F96464649007E509D395246FF39012061
:10306000D62708F035FE51467F00C851524604214C
:10307000012008F02DFED421574649007850A5398B
:103080005246FF390120D22708F022FE51467F0028
:10309000C851053F124BFF3F57440760E360E823E8
:1030A000616149465B00E15022001097013905201B
:1030B000EE2708F00DFE7F00E0512200042111E010
:1030C000781A00208096980000BCA0650AD7A33D1E
:1030D0000AD7A3BD00F2052A3C070000D450011016
:1030E000DC500110052008F0F3FDEC214900894671
:1030F0006050D5392200FF39052008F0E9FDD421C0
:10310000EA238C465B00661DE050A444FF36A03BDA
:103110006146466004969C46B226A4447600634607
:1031200001600D91B446CA21A444490066468C460C
:10313000A444836005936346036103938C230322B5
:103140009B009139C660FF39E2500320220008F04D
:10315000BFFD8F218900605022000421032008F068
:10316000B7FD8E218900605022000421032008F061
:10317000AFFD8D239B00E05002964660039E0D99A3
:10318000866004265C3301602200E650042104209E
:1031900008F09EFDA7239B00E0502200042104209C
:1031A00008F096FDA6218900605022000421042029
:1031B00008F08EFDA5239B00E050029B04998360DC
:1031C000BC23059A016003999B004260C160220004
:1031D000E6500421042008F07BFDBF239B00E05053
:1031E00022000421042008F073FDBE239B00E05060
:1031F00022000421042008F06BFDBD239B00E05059
:10320000059B049A4360029B03998360D4239B002F
:103210000260C1602200E6500421042008F058FD3D
:10322000D7239B00E05022000421042008F050FD29
:10323000D6239B00E05022000421042008F048FD22
:10324000D5239B00E050059B049A4360029B0399A1
:103250008360EC239B000260C1602200E6500421E1
:10326000042008F035FDEF239B00E05022000421EC
:10327000042008F02DFDEE239B00E05022000421E5
:10328000042008F025FDED239B00E050059B049AE7
:103290004360029B039983608223DB000260C1606C
:1032A0002200E6500421042008F012FDFE4B22000B
:1032B000E0500421042008F00BFD8323DB00E050E4
:1032C00022000421042008F003FDF84B049AE0508A
:1032D000059B03994360029B026083608E23DB00A1
:1032E000C1602200E6500421042008F0F1FCF04BFC
:1032F0002200E0500421042008F0EAFC8F23DB00C8
:10330000E05022000421042008F0E2FCE94B049A7A
:10331000E050059B03994360029B026083609A23FF
:10332000DB00C1602200E6500421042008F0D0FC3C
:10333000E14B2200E0500421042008F0C9FC9B234B
:10334000DB00E05022000421042008F0C1FCDB4B2C
:10335000049AE050059B03994360029B02608360DE
:10336000A623DB00C1602200E6500421042008F0FF
:10337000AFFCD34B2200E0500421042008F0A8FC4D
:10338000A723DB00E05022000421042008F0A0FC69
:10339000CC4B049AE050059B03994360029B02606A
:1033A0008360B223DB00C1602200E65004210420C8
:1033B00008F08EFCC44B2200E0500421042008F0E9
:1033C00087FCB323DB00E05022000421042008F036
:1033D0007FFCBE4B049AE050059B03994360029B1F
:1033E00002608360BE23DB00C1602200E65004213E
:1033F000042008F06DFCB64B2200E05004210420AC
:1034000008F066FCBF23DB00E0502200042104200A
:1034100008F05EFCAF4B049AE050059B03994360B3
:10342000029B02608360CA23DB00C1602200E65079
:103430000421042008F04CFCA74B2200E05004219A
:10344000042008F045FCCB23DB00E05022000421DF
:10345000042008F03DFCA14B4146E050039B049E34
:10346000C360D6230660059EDB004660029E2200F4
:103470008660E1500120033108F02AFC984B2200BD
:10348000E0500421012008F023FCD723DB00E050AA
:1034900022000421012008F01BFC924B0A99E05005
:1034A000914B0660CB6053464B61902300225B003A
:1034B000CA506033CA5053466B61D0230221029632
:1034C0008A4E5B00EE60EA506033EA506033E950A8
:1034D0002A000231022008F0FBFB9B239B00E850EE
:1034E0002A000421022008F0F3FB9A239B00E850F5
:1034F0002A000421022008F0EBFB99239B00E850EE
:10350000313BFF3B9C46AC44634603601193B223BE
:103510005B009C46AC446346436012930020B82392
:103520000B9A0421D6605561D0506033D05060337F
:10353000D050099A6E4B5561D36046461300C022A5
:1035400001309E501A001E0008F0C2FBCC2204215C
:10355000B0503200012008F0BBFBC8220421B0505B
:1035600032000120099608F0B3FBC426099A614B8A
:103570009051803202601392019AC021D36055614C
:103580001300424601205A501A00BC3908F0A0FB33
:10359000CC230199C8500A000120042108F098FBAF
:1035A000C8230199C8500A000120042108F090FBAB
:1035B000019B514698515E468033036014934E4BF5
:1035C0007161F36059460023E0200B50A0215A4658
:1035D0001E004900023353503D39FF39DE3808F0F0
:1035E00077FBA62359465B00C8505A4604210220A7
:1035F00008F06EFBA42359465B00C8505A460421CC
:10360000022008F065FBA22359465B00C850A03B8E
:103610005B440360159374235146F0225B4443607E
:1036200016930C98354B4161C36033008650464673
:103630005133FF33C650020006000421012008F078
:1036400047FBAE235B00F05032000421012008F05C
:103650003FFBAC225200B05004213200012008F0A0
:1036600037FBAA235B00F0503300AC3303605146B4
:103670004046C864C8677F30096517930950AC237A
:1036800050464146C1505146B020095038300B5881
:1036900040465246042118600C9608F019FB51462A
:1036A000EC228B582CE0C0461C04000014040000DF
:1036B0007C04000074040000DC040000D40400005A
:1036C0003C050000340500009C0500009405000046
:1036D000FC050000F40500005C0600005406000034
:1036E000BC060000B4060000E8500110F0500110C4
:1036F000F85001100851011018510110205101100B
:10370000FD4A1860A3180360A42040000B584046EF
:1037100052460421186008F0DBFAA62152464900FF
:1037200053585A464A4418600260D420524640001A
:103730001358404649391860FF3908F0C9FAD622B3
:10374000514652008B58424618600C9B4146E93363
:10375000FF330360E0202250043024508823404689
:103760005B004030E250FF300433E45022507032AE
:103770000430FF322450A1505C300432A450215058
:103780000430245048462358220019604046033133
:1037900008F09EFAE3592200186048462358404634
:1037A0000421586008F094FAE35922005860484612
:1037B000235840460421986008F08AFAE359220011
:1037C00098604846235840460421D86008F080FAA3
:1037D000E3592200D8604846235840460421186126
:1037E00008F076FAE3590C9FC822BC4652006244A6
:1037F00091464F461A6818611760A827BF00BC465B
:10380000AC4467465A6807971760BE2292009446F8
:10381000AC44624617009A680A99176086228C4663
:10382000DB68920062441A60089717009C2292009D
:10383000624402608E20414680002358069219603F
:1038400022000331012008F043FA8F229200A3588E
:10385000414618608E2080002358220059600120C4
:10386000033108F035FA8F229200A3584146586080
:103870008E2080002358220099600120033108F037
:1038800027FA8F2249469200A35801261A689860A9
:103890005B6811601F60069B41460360A6208000A4
:1038A0002358220019600120033108F011FAA721E2
:1038B0008900635888461860A6208000235822009B
:1038C0005E600421012008F003FA4146635822009B
:1038D0005860A6208000235804219E60012008F033
:1038E000F7F94146635822009860A62080002358CB
:1038F0000421DE60012008F0EBF941466358079986
:103900001A68D86011605A6808999B6811601F6036
:10391000069B22000360BE208000235881461E6063
:103920000421012008F0D4F9BF218900635888469A
:1039300018604846235822005E600421012008F0E8
:10394000C7F941466358220058604846235804216D
:103950009E60012008F0BCF941466358220098603F
:10396000484623580421DE60012008F0B1F94146A1
:10397000635807991A68D86011605A6808999B685B
:1039800011601F60069B22000360D6208000235830
:1039900081461E600421012008F09AF9D722920086
:1039A000A358904618604846235822005E600421C0
:1039B000012008F08DF94246A3580421586048467A
:1039C000235822009E60012008F082F94246A35845
:1039D00004219860484623582200DE60012008F048
:1039E00077F94246A35807991A68D86011605A6857
:1039F00008999B6811601F60069B22000360EE20FF
:103A00008000235881461E600421012008F060F9DF
:103A1000EF229200A358904618604846235822008F
:103A20005E600421012008F053F94246A3580421A6
:103A300058604846235822009E60012008F048F94B
:103A40004246A35804219860484623582200DE606D
:103A5000012008F03DF94246A35807991A68D8603A
:103A600011605A6808999B6811601F60069B2200CC
:103A700003608320C000235881461E60042101207A
:103A800008F026F91D4A0421A358904618604846BC
:103A9000235822005E60012008F01AF94246A3581C
:103AA000042158604846235822009E60012008F0F7
:103AB0000FF94246A3580421986048462358220033
:103AC000DE60012008F004F94246A35807991A68FD
:103AD000D86011605A6808999B6811601F60069B46
:103AE000220003608F20C000235881461E600421FD
:103AF000012008F0EDF803E0180800001C040000A5
:103B0000FE4A0421A35890461860484623582200D4
:103B10005E60012008F0DCF84246A358042158609A
:103B20004846235822009E60012008F0D1F8424602
:103B3000A35804219860484623582200DE600120E3
:103B400008F0C6F84246A35807991A68D860116071
:103B50005A6808999B6811601F60069B22000360E9
:103B60009B20C000235881461E600421012008F0DC
:103B7000AFF8E34A0421A3589046186048462358FA
:103B800022005E60012008F0A3F84246A3580421F9
:103B900058604846235822009E60012008F098F89B
:103BA0004246A35804219860484623582200DE600C
:103BB000012008F08DF84246A35807991A68D8608A
:103BC00011605A6808999B6811601F60069B22006B
:103BD0000360A720C000235881461E6004210120F5
:103BE00008F076F8C74A0421A35890461860484662
:103BF000235822005E60012008F06AF84246A3586C
:103C0000042158604846235822009E60012008F095
:103C10005FF84246A3580421986048462358220082
:103C2000DE60012008F054F84246A35807991A684C
:103C3000D86011605A6808999B6811601F60069BE4
:103C400022000360B320C000235881461E60042177
:103C5000012008F03DF8AC4A0421A35890461860B2
:103C60004846235822005E60012008F031F84246A1
:103C7000A358042158604846235822009E60012022
:103C800008F026F84246A358042198604846235875
:103C90002200DE60012008F01BF84246A358079975
:103CA0001A68D86011605A6808999B6811601F6093
:103CB000069B22000360BF20C000235881461E607F
:103CC0000421012008F004F8904A0421A3589046EA
:103CD00018604846235822005E60012007F0F8FF74
:103CE0004246A358042158604846235822009E604B
:103CF000012007F0EDFF4246A35804219860484692
:103D000023582200DE60012007F0E2FF4246A3585C
:103D100007991A68D86011605A6808999B68116001
:103D20001F60069B22000360CB20C0002358814601
:103D30001E600421012007F0CBFF754A0421A3581F
:103D4000904618604846235822005E60012007F024
:103D5000BFFF4246A358042158604846235822001A
:103D60009E60012007F0B4FF4246A35804219860EA
:103D7000484623582200DE60012007F0A9FF424692
:103D8000A35807991A68D86011605A6808999B6807
:103D900011601F60069B22000360D723DB00E358FD
:103DA00004211E60012007F093FF5A4B2A00E358BC
:103DB000042118600760A02040002E5004302D50D0
:103DC0002C302E5004302D50F4302B589B27804639
:103DD0001E60012007F07CFFBF00EB592A0018602D
:103DE00040462B5804215E60012007F071FFEB591B
:103DF00009995860019F1B684A1CFF321A607B1C9E
:103E00008C27FF3303600A00CE51080090214050F8
:103E1000C8200100135881461E60C439012007F0F4
:103E200057FFCC21099A884653580B9984228C4617
:103E3000902192006244186002600198C65140507F
:103E400049468146435802001E60C439012007F0EC
:103E50003FFF0B994B4642468C4601939B589D323F
:103E6000FF3262441860026080235846C6508420A6
:103E700081465846494640505946B0200E50A4202D
:103E800034334000C9500B5848385A461E6004214C
:103E9000FF3807F01DFFA6215A4649005358042158
:103EA0001860A4204000135848385E60FF3807F0BF
:103EB0000FFFA6215A4649005358D4215860890063
:103EC0001B686A1858311A606B180360B820804666
:103ED000AC224146BC230C9852004650C050835837
:103EE000B43902001E600600012007F0F1FEAE2387
:103EF000F4215B00F358C9000EE0C0467C040000CA
:103F0000DC0400003C0500009C050000FC050000EE
:103F10005C060000BC060000186063180360504691
:103F20002C30E0512000C03030632000F030286594
:103F30003030030048462B50200021005130FF3024
:103F4000030081310A98FF31C362016628002130E5
:103F5000FF300300290009980B9A836351316C30BC
:103F6000D062FF3150460B0001995C308B63030037
:103F700058466C311166C362EC236030E850303033
:103F8000030040462B5050468C30030030007366CF
:103F9000B04B98301B6D20651198139A1860149FD0
:103FA00012989A6058600C96DF60029E0E9F9E6287
:103FB000159E1F615E630126109F0F9A9F61049FEB
:103FC00003991F62059F5A615F62169F0D9AD9621D
:103FD0001F631799A04F7642DA619963002230007F
:103FE000390008F07FFE5346D03318605960012233
:103FF0003000390008F076FE53463133FF33186045
:10400000596002223000390008F06CFE53469133AB
:10401000FF331860596000223000390008F062FE5A
:104020002300C133FF33186059600122300039008A
:1040300008F058FE88229200A318186059600222E6
:104040003000390008F04EFEA0229200A31818603C
:10405000596004223000390008F044FEB822920072
:10406000A3181860596005223000390008F03AFEA4
:10407000D0229200A318186059600622300039003F
:1040800008F030FEE8229200A31818605960072259
:104090003000390008F026FE8022D200A3181860F4
:1040A000596008223000390008F01CFE8C22D20032
:1040B000A3181860596009223000390008F012FE78
:1040C0009822D200A318186059600A2230003900E3
:1040D00008F008FEA422D200A318186059600B2231
:1040E0003000390008F0FEFDB022D200A31818609D
:1040F00059600C223000390008F0F4FDBC22D200D7
:10410000A318186059600D223000390008F0EAFD4C
:10411000C822D200A318186059600E22300039005E
:1041200008F0E0FDD422D20094466444206061602F
:1041300000223000390008F0D5FD0A9C0F22230030
:104140001133FF33186059603000390008F0CAFDA0
:1041500023007133FF33186059600E22300039009C
:1041600008F0C0FD2B009133FF33186059600F2217
:104170003000390008F0B6FD2B00F133FF33186032
:10418000596010223000390008F0ACFD94229200F2
:10419000944665442860696000223000390008F0C8
:1041A000A1FD0B9C12222300A83318605960300037
:1041B000390008F097FD23000933FF331860596078
:1041C00013223000390008F08DFD23006933FF33DE
:1041D0001860596011223000390008F083FD099BF6
:1041E0001122B033186059603000390008F07AFDB0
:1041F000019B0022B033186059603000390008F08C
:1042000071FD5B46D03318605960022230003900DE
:1042100008F068FD5B463133FF33186059600222B5
:104220003000390008F05EFD0C9C03222300E033CF
:10423000186059603000390008F054FD2300413304
:10424000FF331860596019B0F0BCBB46B246A946AE
:10425000A046F0BD781A0020FFFFFF7F7047C046E0
:10426000094A83009A1810B51468402254408032DD
:104270002240064CC000A44663441A60044B9C468E
:104280006044416010BDC04604C0014004D00140FC
:1042900000400140074B8000C3181B68C900920012
:1042A0000A435A400C231340034A94466044036077
:1042B0007047C04604C0014004D001400123D02211
:1042C0008340120693629361094A83009A18116829
:1042D0004022514080320A400649C0008C46634467
:1042E0001A60054B9C460523604443607047C046F6
:1042F00004C0014004D00140004001408023DB05A0
:104300001868000F7047C0460FB400B5084883B066
:1043100004F07AFA049B002B07D005A9180001913C
:1043200004F020F8034804F06FFA012004F032F89A
:104330002851011018570110EFF3108072B6034A8C
:104340001368002BFCD0BFF35F8F70472C0100D0A7
:10435000BFF35F8F0022024B1A6080F31088704712
:104360002C0100D070B5EFF3108C72B60D4D2B6898
:10437000002BFCD0BFF35F8F0724CB08C618C05CAE
:1043800001230C40A3401C000440034207D1184302
:104390003070BFF35F8F2C608CF3108870BD1000FD
:1043A000FFF7B2FF2C0100D0F8B54746CE4688464D
:1043B00080B5EFF3108C72B6214D2C68002CFCD028
:1043C000BFF35F8F9A422CD8D4080727055D0619E2
:1043D00001241740BC402C421FD0072101278946E9
:1043E00009E0D408055D06194C4639001440A14087
:1043F0000C00294211D001329342F2D201204042F6
:10440000BFF35F8F00220E4B1A608CF310880028D8
:104410000FDBC0BCB946B046F8BD2543100035706F
:10442000EEE7BFF35F8F00232B608CF31088012031
:1044300040424346002BECD00898FFF765FFC0468A
:104440002C0100D0044A1078431CDBB2172B00D992
:10445000102313707047C046E010002010B5064BC3
:10446000064C82B00100009318221F232000FFF7A2
:104470009BFF02B010BDC0463851011048270020F4
:104480000021044B044ABFF35F8F02C39342FAD169
:104490007047C046000100D0800100D0054B064A9D
:1044A0001360064A136053609360D36013615361D5
:1044B000936170478080808000E400E004E400E0C5
:1044C0001F2318401E3B8340002905D0C021044A09
:1044D0004900535013607047802201498B50FAE71E
:1044E00000E100E001228240034B1B6813405A1E8A
:1044F0009341D8B27047C04600E100E001238340F9
:10450000014A13607047C04600E200E0064B1030DD
:104510009B688000C358054A00209B1A2F229A42AC
:104520004041C0B27047C04600ED00E0E4100020FA
:1045300070B50D00EFF3108672B60F4A1368002BAA
:10454000FCD0BFF35F8F0D4B10309B6884001B596C
:104550000B4A934203D09D4201D001F0B7F9074BBB
:104560009B681D51BFF35F8FBFF35F8F0022024B2B
:104570001A6086F3108870BD240100D000ED00E0C1
:10458000C1010010F0B557464E46DE464546E0B53F
:1045900085B0060000911700EFF3108B72B66A4ADF
:1045A0001368002BFCD0BFF35F8F0025674B5D576E
:1045B0009A46002D00DAA9E06B00654C01935B1967
:1045C0009B009846A146C1444B4652469B79103603
:1045D0001370604BB6009B6899590B1B2F2B33D976
:1045E0005D4B994200D0ACE0019B42469C465B4B40
:1045F0006544AD0063535A4B0232A218043B9B1A28
:104600001B05584A5B0D651913436B80564B0121FE
:10461000AB80FF23AB71009BEF71AB604B460B434C
:1046200019004C4B9B689951BFF35F8FBFF35F8FAD
:104630000022454B1A608BF3108805B0F0BCBB46D6
:10464000B246A946A046F0BD01200A008243D379B4
:104650008C46BB4231D84546130044491B1B5B4185
:104660005943090D3D4B63533D4B02356519043BDE
:104670005B1B1B053B4D5B0D2B43AA464D466B80D8
:104680000425AC465546E044131F44441B1B1B0540
:104690005B0D1D434B46997100999D809960494679
:1046A000DF71334B01431360BBE75800C018800033
:1046B0002018C179B9422FD902000623D356002B06
:1046C000F3DA02932B4B61460393131D9A4604239E
:1046D0005B429C46E14450464B461B1A1B055B0D52
:1046E0009C46204B95719846634640460343938011
:1046F000019B5A199200039BA418A380029B1C4A99
:10470000A371009B2260E771A3608AE701F0DEF8E5
:10471000002553465D574FE7908802934005131DCF
:104720009A46031561469C464046D444634604308D
:104730002018181AE0230005400D1B0218430390AF
:10474000C5E701F0C3F84FE7240100D03B3000205B
:10475000E410002000ED00E0C101001000A1FFFF07
:104760001411002000E0FFFF01BDFFFFAAAA000016
:104770000148804701BD0000F0B5DE4657464E4671
:104780004546E0B50C0083B0EFF3108872B6634A7B
:104790001368002BFCD0BFF35F8F614B61499A68AF
:1047A000030010339F00D55900938D4243D0A5429A
:1047B00054D05D4EAA1B2F2A3DD85C4B9C461B68EB
:1047C0009A4601231A0099468240534613401F22FD
:1047D00001934B46024093409A46802263465046DE
:1047E0009850BFF35F8FEFF305839B46002B37D0C4
:1047F000009B5B4501D001F069F82A004B469A43C3
:104800009068844208D177E04B005B189B00F31856
:104810009868844236D01A00062151560029F3DAEE
:10482000844255D0019B002B27D0C02251463F4BDC
:104830005200995019603A4B9B68DD51BFF35F8F6E
:10484000BFF35F8F0022354B1A6088F3108803B0E6
:10485000F0BCBB46B246A946A046F0BD0D00EAE753
:104860002A004B469A4390688442D5D106201056C0
:10487000130000280ADA0D0032E0802351462B4A4B
:10488000D150D8E706201856002822DB4200111824
:10489000890074188946A1689960E179D971062167
:1048A00061569971002925DBA488F11A6405241545
:1048B0004C440919E0240905490D2402214399803B
:1048C00013181B4A9B001178F31899711070A9E70F
:1048D00013005946002914D1FF3191711549918077
:1048E00013490A789A71144A9B1B5B415A43120D73
:1048F0000A7097E71149E2E70620105613000028D6
:10490000C4DA0F4A0F49D21A083A5002400D014347
:1049100099800D4952080A43DA8083E7240100D0C8
:1049200000ED00E0C1010010E410002000E100E013
:104930003B30002001BDFFFFAAAA000001BD00001E
:104940001E11002000F0FFFF00F8FFFF70B50124EA
:104950000443EFF30581EFF3108C72B6214A13681C
:10496000002BFCD0BFF35F8F1F4B05001F4AED1AD1
:104970006D416A43120D1E4D8900AE6852B27658E1
:10498000A6421CD00621595691421CD012215956DC
:10499000914222D01E215956914220D02A215956A7
:1049A0000324914210D0134B19781A708171BFF310
:1049B0005F8F00220B4B1A608CF3108870BDAB68C0
:1049C0000D4C5C50EFE700246100091989005B1869
:1049D000FF21997109499980E5E70124F4E7022450
:1049E000F2E7C046240100D0E4100020AAAA00008B
:1049F00000ED00E03B300020C101001001BDFFFFD1
:104A000010B5084B084C82B001000093002205232A
:104A10002000FFF7C9FC002801DB1F23181A02B091
:104A200010BDC046545101104130002070B5040043
:104A30000E001500FFF706FD0100200000F006F84B
:104A4000A680E580BFF35F8F70BDC046024B9C46D9
:104A500061448900016070474000003470B5114C1A
:104A6000114DAC420FD2FF262368002B0CD0FFF76C
:104A7000E9FC01002000FFF7E9FFA680BFF35F8F8C
:104A80000834AC42F0D370BDFFF7DCFC010020001D
:104A9000FFF7DCFF2671BFF35F8F0834AC42E3D32E
:104AA000F1E7C046E8180020F818002010B504000F
:104AB000FFF7C8FC01002000FFF7C8FFFF232371A8
:104AC000BFF35F8F10BDC04610B504000120FFF793
:104AD000C5FC034BC3189B002360BFF35F8F10BD61
:104AE00040000034034B9C46614489000160BFF3E1
:104AF0005F8F7047400000340A4B1968EFF3108055
:104B000072B60A68002AFCD0BFF35F8F1B68BFF340
:104B10005F8F00221A6080F3108840BF00200021C0
:104B20007047C04608300020F0B5DE4657464E4676
:104B30004546E0B583B0EFF3058203231340B54A41
:104B4000990052580091904601229A409346B24BE8
:104B50001A60B24B01935B46B14843634346082257
:104B60009B5E9946002B3ADA43469B881BB2002B8A
:104B700000DB9DE043469B79002B00D0E1E04346FB
:104B800008241C5F002C20DB43465A6963001B1974
:104B9000DB00D3189D68DC686B1C00D103E1A048E2
:104BA000009984466144826A0B69AE1A9B1A9E4240
:104BB00013D35A46036A1A420FD0994800F0A8FB53
:104BC0008C4202DCC7D18542C5D940BF03B0F0BCDE
:104BD000BB46B246A946A046F0BD0D61EDE7424690
:104BE00052695B0092464B44DB009A4453469E68F0
:104BF000DF6800F08DFB8F42B6DC00D1F8E0002FBB
:104C000000DAD9E05246534654691B69019A93422F
:104C100000D1CCE0414652460820085E528800048C
:104C200021001043984704000D0023002B4300D1BE
:104C3000C2E0002D00DBDFE030003900001BA9419D
:104C400053469860D96000229A5E002A00DA8BE70A
:104C500043465D6953009C18E4002C19A768E4687A
:104C60008C4200DD80E702D1874200D97CE74646CE
:104C7000328108360DE08C4200D1C6E01E000023D0
:104C8000F25E002A0ADB53009C18E4002C19A76886
:104C9000E4689B18DB00EB188C42ECDD53461A806D
:104CA0004B46338043469B881BB2002B00DA61E7FA
:104CB00043461A69EFF3108172B61368002BFCD0DB
:104CC000BFF35F8F43469E88012342465B42938039
:104CD00036B21369BFF35F8F00221A6081F3108828
:104CE000002E00DA46E743465D69083342469C469B
:104CF0007700BF19FF00EF19BB686046984608238C
:104D0000D15E9246FC68002907DA0EE0A24246D046
:104D100018000023C15E002906DB4B005B18DB0096
:104D2000EB18DA68A242F1DD524606800023FE5EEF
:104D30003980002EDCDA904643469B79002B00D167
:104D40001DE7002342469371434646460821595EBB
:104D500008364B1C00D138E747468946556902E0C2
:104D600006004B1C18D04B005B18DB00E8180A004B
:104D70008C46E95E43881BB2002BF1DA01235B42CB
:104D8000DC178360C4604A4503D031803B890380CF
:104D90003A81E1464B1CE6D1B8464C46F2E69A68A9
:104DA0004245B5D9C0E7631C00D0F8E605E720000E
:104DB00023699847002825D1534642461B88138112
:104DC0001269EFF3108372B611680029FCD0BFF3AB
:104DD0005F8F4246514652880A804246494651807A
:104DE0001269BFF35F8F0021116083F31088BBE667
:104DF000864200D803E7B7E6094800F089FA0019AF
:104E000069411DE7656824680FE7874200D835E7E8
:104E100044E7C046E82F00203C700540294B0010B5
:104E20000040054070B52E4C2569002D04D00A21A4
:104E30002C48FFF70BFE70BD2B4E0321300000F015
:104E40005DFAE660FFF7FEFA284B03229C46D0236A
:104E500022701B061B6801216370254B6044A36010
:104E60000F23800020610220638063694942A18092
:104E700019800231198647311D83585218315A5210
:104E800075325C3999521832013199521832013118
:104E90009952183201319952083518329D52023117
:104EA00018329952183201319952183201319952FF
:104EB00018320131995218320131995218320131A8
:104EC00099520C4B0C49DC6001303562FFF730FB26
:104ED00001210320FFF7F4FA084B1D60A7E7C04645
:104EE0002C11002008300020004005404000003414
:104EF000FFFF1000E82F0020294B0010386005400C
:104F0000004870472C110020F8B51F0008AB1B7833
:104F100004001600002B08D100F002FA32003B001A
:104F2000121A8B41002B00DA53E02269EFF3108054
:104F300072B61368002BFCD0BFF35F8F0223E15ED3
:104F400063694A005218D2009B18002937DB1A887F
:104F500062802269BFF35F8F0025156080F310889F
:104F6000069A9E60DF601A61079A5A615A88013278
:104F70005204520C101C002A1FD082B25880080420
:104F800010432669EFF3108772B63268002AFCD00E
:104F9000BFF35F8FA2881A80A1802369BFF35F8F60
:104FA00000221A6087F310880B4923788C4601325F
:104FB0009A40E36863441A60F8BD0120DDE7236985
:104FC000BFF35F8F00221A6080F3108801204042F7
:104FD000F2E70020F0E7C0463C20000070B5010079
:104FE0000469EFF3108C72B620680028FCD0BFF380
:104FF0005F8F02200D5E4C6968004019C0002418C4
:10500000002D37DB208848800869BFF35F8F0026BA
:1050100006608CF31088E360638804980133206194
:105020005B0405985B0CA26060611A1C002B1FD00A
:1050300093B22804628018430A69EFF3108C72B6A9
:105040001368002BFCD0BFF35F8F8B8823808D808B
:105050000B69BFF35F8F00221A608CF310880B7806
:1050600001329A40CB6808498C4663441A6070BD8F
:105070000122DDE70B69BFF35F8F00221A608CF31A
:10508000108801204042F2E73C20000010B543891F
:105090000A1493421ADD53009B184269DB00D318AF
:1050A0000469EFF3108C72B62268002AFCD0BFF3BB
:1050B0005F8F5A88090494B2090C8A4208D00369A8
:1050C000BFF35F8F00221A608CF31088002010BDA0
:1050D0008022120214435C80012302698371BFF3B2
:1050E0005F8F002111608CF31088044902788C4690
:1050F0009340C268012062441360E8E73C2000004E
:1051000040787047F0B504000D0006267642F71788
:10511000C64636196F4100B582B08F4214D811D0FF
:1051200000F0FEF832003B00121A8B41002B17DC16
:10513000002B47D02000290000F030F902B080BCDD
:10514000B846F0BD8642EBD90022002316001F00AE
:1051500000F0E6F832003B00121A8B41002BE7DD2D
:1051600000F0DEF832003B00121A8B41002B0ADB04
:1051700000230193154B3200009315483B00FFF7C5
:105180002DFF0028D6DB00239C46B046114A124E64
:10519000736A9F4204D8B16A8845CBD99F42C9D16E
:1051A0001168EFF3108072B60B68002BFCD0BFF3D0
:1051B0005F8F1368BFF35F8F6146196080F31088BB
:1051C00020BFE5E7002AB5D0CAE7C046F94A00107B
:1051D0002C110020083000200040054070B504006C
:1051E0000D0000F09DF88023001969411B069942CB
:1051F00002D3012002494042FFF784FF70BDC04640
:10520000FFFFFF7FF0B5D6464F464646C0B50400C7
:105210000D0082B0EFF305878946002F0ED0344988
:1052200000204B6AAB4203D38A6A0130A24226D3E4
:1052300002B0E0BCBA46B146A846F0BD2D4B984638
:10524000DB689A46434650461E7800F061F80B0032
:10525000514602000436B600715820008E1A29000B
:10526000801A99418F4211DC0ED020BF204A0020C5
:10527000536A4B45DCD3926A0130A242D8D25B1B01
:105280005A1E9341D8B2D3E78642EED900F048F8CF
:1052900022002B00121A8B41002B1ADB00230193F2
:1052A000154B2200009340462B00FFF797FE011E8E
:1052B0000FDD0F4B5A6A4A4517D39B6AA34212D39C
:1052C0004046FFF7E3FE0A4A0020536A4B45AFD33E
:1052D000D1E7074A0020536A4B45A9D3926A0120BF
:1052E000A242A5D2CBE74A45EAD120BFE8E7C046B3
:1052F000004005402C110020F94A001010B5024A68
:105300000248FFF72FF810BD705101104C27002004
:105310000300416A0A00986A596A8A42FAD17047C2
:10532000034B596A0A00986A596A9142FAD1704748
:105330000040054070B504000D00174A536A19007B
:10534000966A536A8B42FAD13000190024184D41F5
:10535000AB4216D813D0104A2B00526A954203D99B
:105360000D494A6A9A42FCD39A4207D10A4A02E09E
:10537000516A994202D1916AA142F9D370BDA64205
:10538000E9D9054B5B6A1C005A1CEFD001230124AC
:105390006442E5175B42E3E700400540064A536A72
:1053A0009942FCD807D1044B02E05A6A914202D1DB
:1053B0009A6A8242F9D3704700400540F8B504006C
:1053C00006200D0000F078F9002844D0374B38490A
:1053D000E3185A1E93418022120494465B429B0DAF
:1053E000344A9B0563441360334A136018000A680B
:1053F0009043FBD12D4B314AE31859424B41802158
:105400005B0049000620995200F056F92900C000BF
:1054100000F0B4FB0130C3091ED1402701226262B3
:10542000A362266BF30722D4E36A254B0620E51816
:1054300000232B60266300F03FF93900800000F064
:105440009DFB7023E26A5A400E3313402B601D4BC4
:1054500023630323A364F8BD1B4A93421ED9002390
:105460001A4A1B4F6262A362266BF307DCD5194B05
:10547000144AE3181A60656AA36A0620AD01ED18A4
:1054800000F01AF9144900F079FBAD020100280080
:1054900000F074FB0021FFF74DFFC5E74006800ECA
:1054A0009F011A003F180300B9E7C0460080FCBF07
:1054B00008C0004000E0004000F000401430002030
:1054C0002C10000001030000FEFF0000FFFF0000A1
:1054D000C0FF3F00303000004E0E0000F8B5DE4641
:1054E0004E4657464546E0B58B4605000A991800DA
:1054F000160000F043FB0A9B6C001F02324B64193C
:105500009C46A4006444636881469F4200D967605A
:105510002B1FDBB29846012B30D9C02380229B0180
:10552000E31812011A60294BAD0059599A46002917
:105530001BD17301E026226853401E40802342465F
:105540005B01E3181E60012A30D9802380229B0171
:10555000E31812011A6053464A4667605A51F0BC7C
:10556000BB46B246A946A046F8BD586900F006FB06
:10557000013043001B18033BFDD2DAE75B46012BE9
:10558000CBD1C02303229B01E3181A60023AA3681F
:105590001A42FCD07301E0262268AD0053401E4041
:1055A00080230A4A5B019246E3181E605A4621682E
:1055B000514003220A401A6001225B469A40A368C8
:1055C0001A42FCD0C1E7C0460080004054270020AA
:1055D000F0B546464F46D646C0B51F00344B440092
:1055E0009C462418A4006444636888461600FF2B78
:1055F00002D880235B006360031FDBB29A46012B55
:1056000030D9C02380229B01E31812011A60294B74
:1056100085005959994600291BD17301E02622685B
:1056200053401E40802352465B01E3181E60012A4E
:1056300030D9802380229B01E31812011A60802355
:105640005B0063604B465F51E0BCBA46B146A8467A
:10565000F0BD586900F092FA013043001B18033B7B
:10566000FDD2DAE74346012BCBD1C02303229B01B5
:10567000E3181A60023AA3681A42FCD07301E026CC
:105680002268850053401E4080230A4A5B019146F0
:10569000E3181E6042462168514003220A401A6006
:1056A000012342469340A2681342FCD0C1E7C046A2
:1056B0000080004054270020014B8000C0587047F4
:1056C00054270020F8B5040021481E0017000D00E3
:1056D00000F054FA0100380000F050FA069B36043E
:1056E0001B031E432368002B20DB1A4B1A49E318C7
:1056F0005A1E93418022920194465B421B0B174A2B
:105700001B0363441360164A13601F000A68974323
:10571000FBD1144B2560E2182123A060136023689D
:10572000002BFCDA0823E6601360F8BD3F232268F3
:105730001340AB42D9D1A3681B051B0D8342D4D1C2
:10574000EE22E368D2021340B342CED1EDE7C04669
:10575000001BB7000040FDBF08C0004000E0004053
:1057600000F000400430000010B580241C4BE4051C
:105770001C6000281AD001231A4C18431A4BDC6114
:105780001A4C44401C62596298628021144BC9052E
:105790001960174817490860E021C9041960002AF8
:1057A00007D18022144B12061A6010BD0E4BD8612F
:1057B000EBE753019B1A9B009A18802312015B04AC
:1057C0009A4209D213000D490B60074B5A608022A0
:1057D000094BD2051A60E8E7094B1A00F3E7C04607
:1057E00000B00540D3C007B0008005402D3FF84F02
:1057F000FCFF01000820014000A00540D82F002038
:10580000FFFFFF008023024A9B000B43D3627047D7
:1058100000800540142310B50100188804331B884C
:10582000984710BD162310B50100188802331B8855
:10583000984710BDF8B54746CE4680B50F1E19D023
:1058400014239946043304000025012698464B464C
:105850001888434621681B88984701C4431E984115
:10586000013540420640AF42F1D13000C0BCB946DC
:10587000B046F8BD0126F8E7142370B50400188877
:1058800004331B880D000549984703000020002CB5
:1058900001DB0130A04029009847C0465542000076
:1058A000AA23064A1B0113608D235B00D3600449C1
:1058B000044B19605368002BFCDA7047004002402B
:1058C00000B0FA00006002407047C04610B50148C1
:1058D000FEF71AFD9451011070B5074D074EB54201
:1058E00009D20024013E761BB60808CD9847230054
:1058F0000134B342F9D170BDB84B0110F44B011023
:10590000054B064A06491A60064A074B1A60100002
:105910000B689843FBD1704700E00040BFCDFBFE11
:1059200008C00040FE7F3C0000F00040044BDB6CF0
:10593000002B03D18022034BD2021A607047C0466D
:10594000000011504C201150044A054B1A60054AC2
:105950001368DB018033FBD17047C046FFFFFF01B6
:1059600000F0004008C000404022034B9A675A678D
:105970001A67DA667047C04600F0014010B5FEF7BE
:105980007FFD10BDF8B52749274C284D641AA61095
:105990003200302E00D930222800920001F00EF99A
:1059A000BC2C3BD830202F232C196407204A801BA5
:1059B000E40F9B1B052B16D93700002C02D0B30037
:1059C000771CEA50001B33199B004108EB18C900F3
:1059D000C9181A605A6008339942FAD10123034268
:1059E0001CD09843C619B300EA50731C2F2E15D053
:1059F0009B00EA50B31C2E2E10D09B00EA50F31CE3
:105A00002D2E0BD09B00EA50331D2C2E06D09B0070
:105A1000EA50731D2B2E01D09B00EA50054B9D6070
:105A2000F8BDC04600010010C001001000000020B9
:105A3000C101001000ED00E0002310B5294C82B038
:105A4000A367FFF72DFF0122274B1A60636C012B20
:105A5000FCD10322254B1A60224A936B012BFCD107
:105A6000013300930121224A22480433FFF72AFE22
:105A7000052301210093204A2048FFF723FE00223E
:105A8000022104201E4BFFF7A3FD00220121052067
:105A90001C4BFFF79DFD0022002107201A4BFFF74A
:105AA00097FD002200210820174BFFF791FD80236E
:105AB000DB000093002200210920134BFFF70EFDAD
:105AC0000022104B00210620FFF782FD0420FFF783
:105AD000F3FD0E4900F052F801000020FFF792FE9E
